Archive member included to satisfy reference by file (symbol)

d:/cours/eea-a2s1/language_c/info_indus_s2/stm32cubeide_1.5.1/stm32cubeide/plugins/com.st.stm32cube.ide.mcu.externaltools.gnu-tools-for-stm32.7-2018-q2-update.win32_1.5.0.202011040924/tools/bin/../lib/gcc/arm-none-eabi/7.3.1/../../../../arm-none-eabi/lib/thumb/v7e-m/fpv4-sp/hard\libc_nano.a(lib_a-errno.o)
                              Core/Src/syscalls.o (__errno)
d:/cours/eea-a2s1/language_c/info_indus_s2/stm32cubeide_1.5.1/stm32cubeide/plugins/com.st.stm32cube.ide.mcu.externaltools.gnu-tools-for-stm32.7-2018-q2-update.win32_1.5.0.202011040924/tools/bin/../lib/gcc/arm-none-eabi/7.3.1/../../../../arm-none-eabi/lib/thumb/v7e-m/fpv4-sp/hard\libc_nano.a(lib_a-exit.o)
                              d:/cours/eea-a2s1/language_c/info_indus_s2/stm32cubeide_1.5.1/stm32cubeide/plugins/com.st.stm32cube.ide.mcu.externaltools.gnu-tools-for-stm32.7-2018-q2-update.win32_1.5.0.202011040924/tools/bin/../lib/gcc/arm-none-eabi/7.3.1/../../../../arm-none-eabi/lib/thumb/v7e-m/fpv4-sp/hard/crt0.o (exit)
d:/cours/eea-a2s1/language_c/info_indus_s2/stm32cubeide_1.5.1/stm32cubeide/plugins/com.st.stm32cube.ide.mcu.externaltools.gnu-tools-for-stm32.7-2018-q2-update.win32_1.5.0.202011040924/tools/bin/../lib/gcc/arm-none-eabi/7.3.1/../../../../arm-none-eabi/lib/thumb/v7e-m/fpv4-sp/hard\libc_nano.a(lib_a-impure.o)
                              d:/cours/eea-a2s1/language_c/info_indus_s2/stm32cubeide_1.5.1/stm32cubeide/plugins/com.st.stm32cube.ide.mcu.externaltools.gnu-tools-for-stm32.7-2018-q2-update.win32_1.5.0.202011040924/tools/bin/../lib/gcc/arm-none-eabi/7.3.1/../../../../arm-none-eabi/lib/thumb/v7e-m/fpv4-sp/hard\libc_nano.a(lib_a-exit.o) (_global_impure_ptr)
d:/cours/eea-a2s1/language_c/info_indus_s2/stm32cubeide_1.5.1/stm32cubeide/plugins/com.st.stm32cube.ide.mcu.externaltools.gnu-tools-for-stm32.7-2018-q2-update.win32_1.5.0.202011040924/tools/bin/../lib/gcc/arm-none-eabi/7.3.1/../../../../arm-none-eabi/lib/thumb/v7e-m/fpv4-sp/hard\libc_nano.a(lib_a-init.o)
                              d:/cours/eea-a2s1/language_c/info_indus_s2/stm32cubeide_1.5.1/stm32cubeide/plugins/com.st.stm32cube.ide.mcu.externaltools.gnu-tools-for-stm32.7-2018-q2-update.win32_1.5.0.202011040924/tools/bin/../lib/gcc/arm-none-eabi/7.3.1/../../../../arm-none-eabi/lib/thumb/v7e-m/fpv4-sp/hard/crt0.o (__libc_init_array)
d:/cours/eea-a2s1/language_c/info_indus_s2/stm32cubeide_1.5.1/stm32cubeide/plugins/com.st.stm32cube.ide.mcu.externaltools.gnu-tools-for-stm32.7-2018-q2-update.win32_1.5.0.202011040924/tools/bin/../lib/gcc/arm-none-eabi/7.3.1/../../../../arm-none-eabi/lib/thumb/v7e-m/fpv4-sp/hard\libc_nano.a(lib_a-memcpy-stub.o)
                              Middlewares/Third_Party/FreeRTOS/Source/queue.o (memcpy)
d:/cours/eea-a2s1/language_c/info_indus_s2/stm32cubeide_1.5.1/stm32cubeide/plugins/com.st.stm32cube.ide.mcu.externaltools.gnu-tools-for-stm32.7-2018-q2-update.win32_1.5.0.202011040924/tools/bin/../lib/gcc/arm-none-eabi/7.3.1/../../../../arm-none-eabi/lib/thumb/v7e-m/fpv4-sp/hard\libc_nano.a(lib_a-memset.o)
                              d:/cours/eea-a2s1/language_c/info_indus_s2/stm32cubeide_1.5.1/stm32cubeide/plugins/com.st.stm32cube.ide.mcu.externaltools.gnu-tools-for-stm32.7-2018-q2-update.win32_1.5.0.202011040924/tools/bin/../lib/gcc/arm-none-eabi/7.3.1/../../../../arm-none-eabi/lib/thumb/v7e-m/fpv4-sp/hard/crt0.o (memset)
d:/cours/eea-a2s1/language_c/info_indus_s2/stm32cubeide_1.5.1/stm32cubeide/plugins/com.st.stm32cube.ide.mcu.externaltools.gnu-tools-for-stm32.7-2018-q2-update.win32_1.5.0.202011040924/tools/bin/../lib/gcc/arm-none-eabi/7.3.1/../../../../arm-none-eabi/lib/thumb/v7e-m/fpv4-sp/hard\libc_nano.a(lib_a-sprintf.o)
                              Core/Src/main.o (sprintf)
d:/cours/eea-a2s1/language_c/info_indus_s2/stm32cubeide_1.5.1/stm32cubeide/plugins/com.st.stm32cube.ide.mcu.externaltools.gnu-tools-for-stm32.7-2018-q2-update.win32_1.5.0.202011040924/tools/bin/../lib/gcc/arm-none-eabi/7.3.1/../../../../arm-none-eabi/lib/thumb/v7e-m/fpv4-sp/hard\libc_nano.a(lib_a-nano-svfprintf.o)
                              d:/cours/eea-a2s1/language_c/info_indus_s2/stm32cubeide_1.5.1/stm32cubeide/plugins/com.st.stm32cube.ide.mcu.externaltools.gnu-tools-for-stm32.7-2018-q2-update.win32_1.5.0.202011040924/tools/bin/../lib/gcc/arm-none-eabi/7.3.1/../../../../arm-none-eabi/lib/thumb/v7e-m/fpv4-sp/hard\libc_nano.a(lib_a-sprintf.o) (_svfprintf_r)
d:/cours/eea-a2s1/language_c/info_indus_s2/stm32cubeide_1.5.1/stm32cubeide/plugins/com.st.stm32cube.ide.mcu.externaltools.gnu-tools-for-stm32.7-2018-q2-update.win32_1.5.0.202011040924/tools/bin/../lib/gcc/arm-none-eabi/7.3.1/../../../../arm-none-eabi/lib/thumb/v7e-m/fpv4-sp/hard\libc_nano.a(lib_a-nano-vfprintf_i.o)
                              d:/cours/eea-a2s1/language_c/info_indus_s2/stm32cubeide_1.5.1/stm32cubeide/plugins/com.st.stm32cube.ide.mcu.externaltools.gnu-tools-for-stm32.7-2018-q2-update.win32_1.5.0.202011040924/tools/bin/../lib/gcc/arm-none-eabi/7.3.1/../../../../arm-none-eabi/lib/thumb/v7e-m/fpv4-sp/hard\libc_nano.a(lib_a-nano-svfprintf.o) (_printf_i)
d:/cours/eea-a2s1/language_c/info_indus_s2/stm32cubeide_1.5.1/stm32cubeide/plugins/com.st.stm32cube.ide.mcu.externaltools.gnu-tools-for-stm32.7-2018-q2-update.win32_1.5.0.202011040924/tools/bin/../lib/gcc/arm-none-eabi/7.3.1/../../../../arm-none-eabi/lib/thumb/v7e-m/fpv4-sp/hard\libc_nano.a(lib_a-memchr.o)
                              d:/cours/eea-a2s1/language_c/info_indus_s2/stm32cubeide_1.5.1/stm32cubeide/plugins/com.st.stm32cube.ide.mcu.externaltools.gnu-tools-for-stm32.7-2018-q2-update.win32_1.5.0.202011040924/tools/bin/../lib/gcc/arm-none-eabi/7.3.1/../../../../arm-none-eabi/lib/thumb/v7e-m/fpv4-sp/hard\libc_nano.a(lib_a-nano-svfprintf.o) (memchr)
d:/cours/eea-a2s1/language_c/info_indus_s2/stm32cubeide_1.5.1/stm32cubeide/plugins/com.st.stm32cube.ide.mcu.externaltools.gnu-tools-for-stm32.7-2018-q2-update.win32_1.5.0.202011040924/tools/bin/../lib/gcc/arm-none-eabi/7.3.1/../../../../arm-none-eabi/lib/thumb/v7e-m/fpv4-sp/hard\libc_nano.a(lib_a-memmove.o)
                              d:/cours/eea-a2s1/language_c/info_indus_s2/stm32cubeide_1.5.1/stm32cubeide/plugins/com.st.stm32cube.ide.mcu.externaltools.gnu-tools-for-stm32.7-2018-q2-update.win32_1.5.0.202011040924/tools/bin/../lib/gcc/arm-none-eabi/7.3.1/../../../../arm-none-eabi/lib/thumb/v7e-m/fpv4-sp/hard\libc_nano.a(lib_a-nano-svfprintf.o) (memmove)
d:/cours/eea-a2s1/language_c/info_indus_s2/stm32cubeide_1.5.1/stm32cubeide/plugins/com.st.stm32cube.ide.mcu.externaltools.gnu-tools-for-stm32.7-2018-q2-update.win32_1.5.0.202011040924/tools/bin/../lib/gcc/arm-none-eabi/7.3.1/../../../../arm-none-eabi/lib/thumb/v7e-m/fpv4-sp/hard\libc_nano.a(lib_a-nano-freer.o)
                              d:/cours/eea-a2s1/language_c/info_indus_s2/stm32cubeide_1.5.1/stm32cubeide/plugins/com.st.stm32cube.ide.mcu.externaltools.gnu-tools-for-stm32.7-2018-q2-update.win32_1.5.0.202011040924/tools/bin/../lib/gcc/arm-none-eabi/7.3.1/../../../../arm-none-eabi/lib/thumb/v7e-m/fpv4-sp/hard\libc_nano.a(lib_a-nano-svfprintf.o) (_free_r)
d:/cours/eea-a2s1/language_c/info_indus_s2/stm32cubeide_1.5.1/stm32cubeide/plugins/com.st.stm32cube.ide.mcu.externaltools.gnu-tools-for-stm32.7-2018-q2-update.win32_1.5.0.202011040924/tools/bin/../lib/gcc/arm-none-eabi/7.3.1/../../../../arm-none-eabi/lib/thumb/v7e-m/fpv4-sp/hard\libc_nano.a(lib_a-nano-mallocr.o)
                              d:/cours/eea-a2s1/language_c/info_indus_s2/stm32cubeide_1.5.1/stm32cubeide/plugins/com.st.stm32cube.ide.mcu.externaltools.gnu-tools-for-stm32.7-2018-q2-update.win32_1.5.0.202011040924/tools/bin/../lib/gcc/arm-none-eabi/7.3.1/../../../../arm-none-eabi/lib/thumb/v7e-m/fpv4-sp/hard\libc_nano.a(lib_a-nano-svfprintf.o) (_malloc_r)
d:/cours/eea-a2s1/language_c/info_indus_s2/stm32cubeide_1.5.1/stm32cubeide/plugins/com.st.stm32cube.ide.mcu.externaltools.gnu-tools-for-stm32.7-2018-q2-update.win32_1.5.0.202011040924/tools/bin/../lib/gcc/arm-none-eabi/7.3.1/../../../../arm-none-eabi/lib/thumb/v7e-m/fpv4-sp/hard\libc_nano.a(lib_a-nano-reallocr.o)
                              d:/cours/eea-a2s1/language_c/info_indus_s2/stm32cubeide_1.5.1/stm32cubeide/plugins/com.st.stm32cube.ide.mcu.externaltools.gnu-tools-for-stm32.7-2018-q2-update.win32_1.5.0.202011040924/tools/bin/../lib/gcc/arm-none-eabi/7.3.1/../../../../arm-none-eabi/lib/thumb/v7e-m/fpv4-sp/hard\libc_nano.a(lib_a-nano-svfprintf.o) (_realloc_r)
d:/cours/eea-a2s1/language_c/info_indus_s2/stm32cubeide_1.5.1/stm32cubeide/plugins/com.st.stm32cube.ide.mcu.externaltools.gnu-tools-for-stm32.7-2018-q2-update.win32_1.5.0.202011040924/tools/bin/../lib/gcc/arm-none-eabi/7.3.1/../../../../arm-none-eabi/lib/thumb/v7e-m/fpv4-sp/hard\libc_nano.a(lib_a-sbrkr.o)
                              d:/cours/eea-a2s1/language_c/info_indus_s2/stm32cubeide_1.5.1/stm32cubeide/plugins/com.st.stm32cube.ide.mcu.externaltools.gnu-tools-for-stm32.7-2018-q2-update.win32_1.5.0.202011040924/tools/bin/../lib/gcc/arm-none-eabi/7.3.1/../../../../arm-none-eabi/lib/thumb/v7e-m/fpv4-sp/hard\libc_nano.a(lib_a-nano-mallocr.o) (_sbrk_r)
d:/cours/eea-a2s1/language_c/info_indus_s2/stm32cubeide_1.5.1/stm32cubeide/plugins/com.st.stm32cube.ide.mcu.externaltools.gnu-tools-for-stm32.7-2018-q2-update.win32_1.5.0.202011040924/tools/bin/../lib/gcc/arm-none-eabi/7.3.1/../../../../arm-none-eabi/lib/thumb/v7e-m/fpv4-sp/hard\libc_nano.a(lib_a-mlock.o)
                              d:/cours/eea-a2s1/language_c/info_indus_s2/stm32cubeide_1.5.1/stm32cubeide/plugins/com.st.stm32cube.ide.mcu.externaltools.gnu-tools-for-stm32.7-2018-q2-update.win32_1.5.0.202011040924/tools/bin/../lib/gcc/arm-none-eabi/7.3.1/../../../../arm-none-eabi/lib/thumb/v7e-m/fpv4-sp/hard\libc_nano.a(lib_a-nano-freer.o) (__malloc_lock)
d:/cours/eea-a2s1/language_c/info_indus_s2/stm32cubeide_1.5.1/stm32cubeide/plugins/com.st.stm32cube.ide.mcu.externaltools.gnu-tools-for-stm32.7-2018-q2-update.win32_1.5.0.202011040924/tools/bin/../lib/gcc/arm-none-eabi/7.3.1/../../../../arm-none-eabi/lib/thumb/v7e-m/fpv4-sp/hard\libc_nano.a(lib_a-nano-msizer.o)
                              d:/cours/eea-a2s1/language_c/info_indus_s2/stm32cubeide_1.5.1/stm32cubeide/plugins/com.st.stm32cube.ide.mcu.externaltools.gnu-tools-for-stm32.7-2018-q2-update.win32_1.5.0.202011040924/tools/bin/../lib/gcc/arm-none-eabi/7.3.1/../../../../arm-none-eabi/lib/thumb/v7e-m/fpv4-sp/hard\libc_nano.a(lib_a-nano-reallocr.o) (_malloc_usable_size_r)
d:/cours/eea-a2s1/language_c/info_indus_s2/stm32cubeide_1.5.1/stm32cubeide/plugins/com.st.stm32cube.ide.mcu.externaltools.gnu-tools-for-stm32.7-2018-q2-update.win32_1.5.0.202011040924/tools/bin/../lib/gcc/arm-none-eabi/7.3.1/../../../../arm-none-eabi/lib/thumb/v7e-m/fpv4-sp/hard\libc_nano.a(lib_a-reent.o)
                              d:/cours/eea-a2s1/language_c/info_indus_s2/stm32cubeide_1.5.1/stm32cubeide/plugins/com.st.stm32cube.ide.mcu.externaltools.gnu-tools-for-stm32.7-2018-q2-update.win32_1.5.0.202011040924/tools/bin/../lib/gcc/arm-none-eabi/7.3.1/../../../../arm-none-eabi/lib/thumb/v7e-m/fpv4-sp/hard\libc_nano.a(lib_a-sbrkr.o) (errno)
d:/cours/eea-a2s1/language_c/info_indus_s2/stm32cubeide_1.5.1/stm32cubeide/plugins/com.st.stm32cube.ide.mcu.externaltools.gnu-tools-for-stm32.7-2018-q2-update.win32_1.5.0.202011040924/tools/bin/../lib/gcc/arm-none-eabi/7.3.1/thumb/v7e-m/fpv4-sp/hard\libgcc.a(_arm_addsubdf3.o)
                              Core/Src/main.o (__aeabi_ui2d)
d:/cours/eea-a2s1/language_c/info_indus_s2/stm32cubeide_1.5.1/stm32cubeide/plugins/com.st.stm32cube.ide.mcu.externaltools.gnu-tools-for-stm32.7-2018-q2-update.win32_1.5.0.202011040924/tools/bin/../lib/gcc/arm-none-eabi/7.3.1/thumb/v7e-m/fpv4-sp/hard\libgcc.a(_arm_cmpdf2.o)
                              Core/Src/main.o (__aeabi_dcmpeq)
d:/cours/eea-a2s1/language_c/info_indus_s2/stm32cubeide_1.5.1/stm32cubeide/plugins/com.st.stm32cube.ide.mcu.externaltools.gnu-tools-for-stm32.7-2018-q2-update.win32_1.5.0.202011040924/tools/bin/../lib/gcc/arm-none-eabi/7.3.1/thumb/v7e-m/fpv4-sp/hard\libgcc.a(_aeabi_uldivmod.o)
                              Drivers/STM32F7xx_HAL_Driver/Src/stm32f7xx_hal_rcc.o (__aeabi_uldivmod)
d:/cours/eea-a2s1/language_c/info_indus_s2/stm32cubeide_1.5.1/stm32cubeide/plugins/com.st.stm32cube.ide.mcu.externaltools.gnu-tools-for-stm32.7-2018-q2-update.win32_1.5.0.202011040924/tools/bin/../lib/gcc/arm-none-eabi/7.3.1/thumb/v7e-m/fpv4-sp/hard\libgcc.a(_udivmoddi4.o)
                              d:/cours/eea-a2s1/language_c/info_indus_s2/stm32cubeide_1.5.1/stm32cubeide/plugins/com.st.stm32cube.ide.mcu.externaltools.gnu-tools-for-stm32.7-2018-q2-update.win32_1.5.0.202011040924/tools/bin/../lib/gcc/arm-none-eabi/7.3.1/thumb/v7e-m/fpv4-sp/hard\libgcc.a(_aeabi_uldivmod.o) (__udivmoddi4)
d:/cours/eea-a2s1/language_c/info_indus_s2/stm32cubeide_1.5.1/stm32cubeide/plugins/com.st.stm32cube.ide.mcu.externaltools.gnu-tools-for-stm32.7-2018-q2-update.win32_1.5.0.202011040924/tools/bin/../lib/gcc/arm-none-eabi/7.3.1/thumb/v7e-m/fpv4-sp/hard\libgcc.a(_dvmd_tls.o)
                              d:/cours/eea-a2s1/language_c/info_indus_s2/stm32cubeide_1.5.1/stm32cubeide/plugins/com.st.stm32cube.ide.mcu.externaltools.gnu-tools-for-stm32.7-2018-q2-update.win32_1.5.0.202011040924/tools/bin/../lib/gcc/arm-none-eabi/7.3.1/thumb/v7e-m/fpv4-sp/hard\libgcc.a(_aeabi_uldivmod.o) (__aeabi_ldiv0)

Allocating common symbols
Common symbol       size              file

sdramHandle         0x34              Core/Src/stm32746g_discovery_sdram.o
defaultTaskHandle   0x4               Core/Src/main.o
hi2c3               0x4c              Core/Src/main.o
huart7              0x80              Core/Src/main.o
htim8               0x40              Core/Src/main.o
errno               0x4               d:/cours/eea-a2s1/language_c/info_indus_s2/stm32cubeide_1.5.1/stm32cubeide/plugins/com.st.stm32cube.ide.mcu.externaltools.gnu-tools-for-stm32.7-2018-q2-update.win32_1.5.0.202011040924/tools/bin/../lib/gcc/arm-none-eabi/7.3.1/../../../../arm-none-eabi/lib/thumb/v7e-m/fpv4-sp/hard\libc_nano.a(lib_a-reent.o)
hi2c1               0x4c              Core/Src/main.o
pos                 0x6               Core/Src/main.o
hLtdcHandler        0xa8              Core/Src/stm32746g_discovery_lcd.o
uwTick              0x4               Drivers/STM32F7xx_HAL_Driver/Src/stm32f7xx_hal.o
xQueueRegistry      0x40              Middlewares/Third_Party/FreeRTOS/Source/queue.o
pFlash              0x1c              Drivers/STM32F7xx_HAL_Driver/Src/stm32f7xx_hal_flash.o
htim5               0x40              Core/Src/main.o
myTask05Handle      0x4               Core/Src/main.o
myTask04Handle      0x4               Core/Src/main.o
htim3               0x40              Core/Src/main.o
hltdc               0xa8              Core/Src/main.o
hadc1               0x48              Core/Src/main.o
hadc3               0x48              Core/Src/main.o
huart1              0x80              Core/Src/main.o
hdac                0x14              Core/Src/main.o
MutexEcranHandle    0x4               Core/Src/main.o
hrtc                0x20              Core/Src/main.o
htim6               0x40              Core/Src/stm32f7xx_hal_timebase_tim.o
htim1               0x40              Core/Src/main.o
huart6              0x80              Core/Src/main.o
hdma2d              0x40              Core/Src/main.o
zqsdHandle          0x4               Core/Src/main.o
htim2               0x40              Core/Src/main.o
hsdram1             0x34              Core/Src/main.o
rxbuffer            0xa               Core/Src/main.o
myTask06Handle      0x4               Core/Src/main.o

Discarded input sections

 .text          0x0000000000000000        0x0 d:/cours/eea-a2s1/language_c/info_indus_s2/stm32cubeide_1.5.1/stm32cubeide/plugins/com.st.stm32cube.ide.mcu.externaltools.gnu-tools-for-stm32.7-2018-q2-update.win32_1.5.0.202011040924/tools/bin/../lib/gcc/arm-none-eabi/7.3.1/thumb/v7e-m/fpv4-sp/hard/crti.o
 .data          0x0000000000000000        0x0 d:/cours/eea-a2s1/language_c/info_indus_s2/stm32cubeide_1.5.1/stm32cubeide/plugins/com.st.stm32cube.ide.mcu.externaltools.gnu-tools-for-stm32.7-2018-q2-update.win32_1.5.0.202011040924/tools/bin/../lib/gcc/arm-none-eabi/7.3.1/thumb/v7e-m/fpv4-sp/hard/crti.o
 .bss           0x0000000000000000        0x0 d:/cours/eea-a2s1/language_c/info_indus_s2/stm32cubeide_1.5.1/stm32cubeide/plugins/com.st.stm32cube.ide.mcu.externaltools.gnu-tools-for-stm32.7-2018-q2-update.win32_1.5.0.202011040924/tools/bin/../lib/gcc/arm-none-eabi/7.3.1/thumb/v7e-m/fpv4-sp/hard/crti.o
 .data          0x0000000000000000        0x4 d:/cours/eea-a2s1/language_c/info_indus_s2/stm32cubeide_1.5.1/stm32cubeide/plugins/com.st.stm32cube.ide.mcu.externaltools.gnu-tools-for-stm32.7-2018-q2-update.win32_1.5.0.202011040924/tools/bin/../lib/gcc/arm-none-eabi/7.3.1/thumb/v7e-m/fpv4-sp/hard/crtbegin.o
 .text          0x0000000000000000       0x74 d:/cours/eea-a2s1/language_c/info_indus_s2/stm32cubeide_1.5.1/stm32cubeide/plugins/com.st.stm32cube.ide.mcu.externaltools.gnu-tools-for-stm32.7-2018-q2-update.win32_1.5.0.202011040924/tools/bin/../lib/gcc/arm-none-eabi/7.3.1/../../../../arm-none-eabi/lib/thumb/v7e-m/fpv4-sp/hard/crt0.o
 .data          0x0000000000000000        0x0 d:/cours/eea-a2s1/language_c/info_indus_s2/stm32cubeide_1.5.1/stm32cubeide/plugins/com.st.stm32cube.ide.mcu.externaltools.gnu-tools-for-stm32.7-2018-q2-update.win32_1.5.0.202011040924/tools/bin/../lib/gcc/arm-none-eabi/7.3.1/../../../../arm-none-eabi/lib/thumb/v7e-m/fpv4-sp/hard/crt0.o
 .bss           0x0000000000000000        0x0 d:/cours/eea-a2s1/language_c/info_indus_s2/stm32cubeide_1.5.1/stm32cubeide/plugins/com.st.stm32cube.ide.mcu.externaltools.gnu-tools-for-stm32.7-2018-q2-update.win32_1.5.0.202011040924/tools/bin/../lib/gcc/arm-none-eabi/7.3.1/../../../../arm-none-eabi/lib/thumb/v7e-m/fpv4-sp/hard/crt0.o
 .ARM.extab     0x0000000000000000        0x0 d:/cours/eea-a2s1/language_c/info_indus_s2/stm32cubeide_1.5.1/stm32cubeide/plugins/com.st.stm32cube.ide.mcu.externaltools.gnu-tools-for-stm32.7-2018-q2-update.win32_1.5.0.202011040924/tools/bin/../lib/gcc/arm-none-eabi/7.3.1/../../../../arm-none-eabi/lib/thumb/v7e-m/fpv4-sp/hard/crt0.o
 .ARM.exidx     0x0000000000000000        0x8 d:/cours/eea-a2s1/language_c/info_indus_s2/stm32cubeide_1.5.1/stm32cubeide/plugins/com.st.stm32cube.ide.mcu.externaltools.gnu-tools-for-stm32.7-2018-q2-update.win32_1.5.0.202011040924/tools/bin/../lib/gcc/arm-none-eabi/7.3.1/../../../../arm-none-eabi/lib/thumb/v7e-m/fpv4-sp/hard/crt0.o
 .ARM.attributes
                0x0000000000000000       0x20 d:/cours/eea-a2s1/language_c/info_indus_s2/stm32cubeide_1.5.1/stm32cubeide/plugins/com.st.stm32cube.ide.mcu.externaltools.gnu-tools-for-stm32.7-2018-q2-update.win32_1.5.0.202011040924/tools/bin/../lib/gcc/arm-none-eabi/7.3.1/../../../../arm-none-eabi/lib/thumb/v7e-m/fpv4-sp/hard/crt0.o
 .group         0x0000000000000000        0xc Core/Src/freertos.o
 .group         0x0000000000000000        0xc Core/Src/freertos.o
 .group         0x0000000000000000        0xc Core/Src/freertos.o
 .group         0x0000000000000000        0xc Core/Src/freertos.o
 .group         0x0000000000000000        0xc Core/Src/freertos.o
 .group         0x0000000000000000        0xc Core/Src/freertos.o
 .group         0x0000000000000000        0xc Core/Src/freertos.o
Memory Configuration

Name             Origin             Length             Attributes
RAM              0x0000000020000000 0x0000000000050000 xrw
FLASH            0x0000000008000000 0x0000000000100000 xr
*default*        0x0000000000000000 0xffffffffffffffff

Linker script and memory map

LOAD d:/cours/eea-a2s1/language_c/info_indus_s2/stm32cubeide_1.5.1/stm32cubeide/plugins/com.st.stm32cube.ide.mcu.externaltools.gnu-tools-for-stm32.7-2018-q2-update.win32_1.5.0.202011040924/tools/bin/../lib/gcc/arm-none-eabi/7.3.1/thumb/v7e-m/fpv4-sp/hard/crti.o
LOAD d:/cours/eea-a2s1/language_c/info_indus_s2/stm32cubeide_1.5.1/stm32cubeide/plugins/com.st.stm32cube.ide.mcu.externaltools.gnu-tools-for-stm32.7-2018-q2-update.win32_1.5.0.202011040924/tools/bin/../lib/gcc/arm-none-eabi/7.3.1/thumb/v7e-m/fpv4-sp/hard/crtbegin.o
LOAD d:/cours/eea-a2s1/language_c/info_indus_s2/stm32cubeide_1.5.1/stm32cubeide/plugins/com.st.stm32cube.ide.mcu.externaltools.gnu-tools-for-stm32.7-2018-q2-update.win32_1.5.0.202011040924/tools/bin/../lib/gcc/arm-none-eabi/7.3.1/../../../../arm-none-eabi/lib/thumb/v7e-m/fpv4-sp/hard/crt0.o
LOAD Core/Src/freertos.o
LOAD Core/Src/ft5336.o
LOAD Core/Src/main.o
LOAD Core/Src/stm32746g_discovery.o
LOAD Core/Src/stm32746g_discovery_lcd.o
LOAD Core/Src/stm32746g_discovery_sdram.o
LOAD Core/Src/stm32746g_discovery_ts.o
LOAD Core/Src/stm32f7xx_hal_msp.o
LOAD Core/Src/stm32f7xx_hal_timebase_tim.o
LOAD Core/Src/stm32f7xx_it.o
LOAD Core/Src/syscalls.o
LOAD Core/Src/sysmem.o
LOAD Core/Src/system_stm32f7xx.o
LOAD Core/Startup/startup_stm32f746nghx.o
LOAD Drivers/STM32F7xx_HAL_Driver/Src/stm32f7xx_hal.o
LOAD Drivers/STM32F7xx_HAL_Driver/Src/stm32f7xx_hal_adc.o
LOAD Drivers/STM32F7xx_HAL_Driver/Src/stm32f7xx_hal_adc_ex.o
LOAD Drivers/STM32F7xx_HAL_Driver/Src/stm32f7xx_hal_cortex.o
LOAD Drivers/STM32F7xx_HAL_Driver/Src/stm32f7xx_hal_dac.o
LOAD Drivers/STM32F7xx_HAL_Driver/Src/stm32f7xx_hal_dac_ex.o
LOAD Drivers/STM32F7xx_HAL_Driver/Src/stm32f7xx_hal_dma.o
LOAD Drivers/STM32F7xx_HAL_Driver/Src/stm32f7xx_hal_dma2d.o
LOAD Drivers/STM32F7xx_HAL_Driver/Src/stm32f7xx_hal_dma_ex.o
LOAD Drivers/STM32F7xx_HAL_Driver/Src/stm32f7xx_hal_dsi.o
LOAD Drivers/STM32F7xx_HAL_Driver/Src/stm32f7xx_hal_exti.o
LOAD Drivers/STM32F7xx_HAL_Driver/Src/stm32f7xx_hal_flash.o
LOAD Drivers/STM32F7xx_HAL_Driver/Src/stm32f7xx_hal_flash_ex.o
LOAD Drivers/STM32F7xx_HAL_Driver/Src/stm32f7xx_hal_gpio.o
LOAD Drivers/STM32F7xx_HAL_Driver/Src/stm32f7xx_hal_i2c.o
LOAD Drivers/STM32F7xx_HAL_Driver/Src/stm32f7xx_hal_i2c_ex.o
LOAD Drivers/STM32F7xx_HAL_Driver/Src/stm32f7xx_hal_ltdc.o
LOAD Drivers/STM32F7xx_HAL_Driver/Src/stm32f7xx_hal_ltdc_ex.o
LOAD Drivers/STM32F7xx_HAL_Driver/Src/stm32f7xx_hal_pwr.o
LOAD Drivers/STM32F7xx_HAL_Driver/Src/stm32f7xx_hal_pwr_ex.o
LOAD Drivers/STM32F7xx_HAL_Driver/Src/stm32f7xx_hal_rcc.o
LOAD Drivers/STM32F7xx_HAL_Driver/Src/stm32f7xx_hal_rcc_ex.o
LOAD Drivers/STM32F7xx_HAL_Driver/Src/stm32f7xx_hal_rtc.o
LOAD Drivers/STM32F7xx_HAL_Driver/Src/stm32f7xx_hal_rtc_ex.o
LOAD Drivers/STM32F7xx_HAL_Driver/Src/stm32f7xx_hal_sdram.o
LOAD Drivers/STM32F7xx_HAL_Driver/Src/stm32f7xx_hal_tim.o
LOAD Drivers/STM32F7xx_HAL_Driver/Src/stm32f7xx_hal_tim_ex.o
LOAD Drivers/STM32F7xx_HAL_Driver/Src/stm32f7xx_hal_uart.o
LOAD Drivers/STM32F7xx_HAL_Driver/Src/stm32f7xx_hal_uart_ex.o
LOAD Drivers/STM32F7xx_HAL_Driver/Src/stm32f7xx_ll_fmc.o
LOAD Middlewares/Third_Party/FreeRTOS/Source/CMSIS_RTOS/cmsis_os.o
LOAD Middlewares/Third_Party/FreeRTOS/Source/croutine.o
LOAD Middlewares/Third_Party/FreeRTOS/Source/event_groups.o
LOAD Middlewares/Third_Party/FreeRTOS/Source/list.o
LOAD Middlewares/Third_Party/FreeRTOS/Source/queue.o
LOAD Middlewares/Third_Party/FreeRTOS/Source/stream_buffer.o
LOAD Middlewares/Third_Party/FreeRTOS/Source/tasks.o
LOAD Middlewares/Third_Party/FreeRTOS/Source/timers.o
LOAD Middlewares/Third_Party/FreeRTOS/Source/portable/GCC/ARM_CM7/r0p1/port.o
LOAD Middlewares/Third_Party/FreeRTOS/Source/portable/MemMang/heap_4.o
START GROUP
LOAD d:/cours/eea-a2s1/language_c/info_indus_s2/stm32cubeide_1.5.1/stm32cubeide/plugins/com.st.stm32cube.ide.mcu.externaltools.gnu-tools-for-stm32.7-2018-q2-update.win32_1.5.0.202011040924/tools/bin/../lib/gcc/arm-none-eabi/7.3.1/../../../../arm-none-eabi/lib/thumb/v7e-m/fpv4-sp/hard\libc_nano.a
LOAD d:/cours/eea-a2s1/language_c/info_indus_s2/stm32cubeide_1.5.1/stm32cubeide/plugins/com.st.stm32cube.ide.mcu.externaltools.gnu-tools-for-stm32.7-2018-q2-update.win32_1.5.0.202011040924/tools/bin/../lib/gcc/arm-none-eabi/7.3.1/../../../../arm-none-eabi/lib/thumb/v7e-m/fpv4-sp/hard\libm.a
END GROUP
START GROUP
LOAD d:/cours/eea-a2s1/language_c/info_indus_s2/stm32cubeide_1.5.1/stm32cubeide/plugins/com.st.stm32cube.ide.mcu.externaltools.gnu-tools-for-stm32.7-2018-q2-update.win32_1.5.0.202011040924/tools/bin/../lib/gcc/arm-none-eabi/7.3.1/thumb/v7e-m/fpv4-sp/hard\libgcc.a
LOAD d:/cours/eea-a2s1/language_c/info_indus_s2/stm32cubeide_1.5.1/stm32cubeide/plugins/com.st.stm32cube.ide.mcu.externaltools.gnu-tools-for-stm32.7-2018-q2-update.win32_1.5.0.202011040924/tools/bin/../lib/gcc/arm-none-eabi/7.3.1/../../../../arm-none-eabi/lib/thumb/v7e-m/fpv4-sp/hard\libc_nano.a
END GROUP
START GROUP
LOAD d:/cours/eea-a2s1/language_c/info_indus_s2/stm32cubeide_1.5.1/stm32cubeide/plugins/com.st.stm32cube.ide.mcu.externaltools.gnu-tools-for-stm32.7-2018-q2-update.win32_1.5.0.202011040924/tools/bin/../lib/gcc/arm-none-eabi/7.3.1/thumb/v7e-m/fpv4-sp/hard\libgcc.a
LOAD d:/cours/eea-a2s1/language_c/info_indus_s2/stm32cubeide_1.5.1/stm32cubeide/plugins/com.st.stm32cube.ide.mcu.externaltools.gnu-tools-for-stm32.7-2018-q2-update.win32_1.5.0.202011040924/tools/bin/../lib/gcc/arm-none-eabi/7.3.1/../../../../arm-none-eabi/lib/thumb/v7e-m/fpv4-sp/hard\libc_nano.a
LOAD d:/cours/eea-a2s1/language_c/info_indus_s2/stm32cubeide_1.5.1/stm32cubeide/plugins/com.st.stm32cube.ide.mcu.externaltools.gnu-tools-for-stm32.7-2018-q2-update.win32_1.5.0.202011040924/tools/bin/../lib/gcc/arm-none-eabi/7.3.1/../../../../arm-none-eabi/lib/thumb/v7e-m/fpv4-sp/hard\libnosys.a
END GROUP
START GROUP
LOAD d:/cours/eea-a2s1/language_c/info_indus_s2/stm32cubeide_1.5.1/stm32cubeide/plugins/com.st.stm32cube.ide.mcu.externaltools.gnu-tools-for-stm32.7-2018-q2-update.win32_1.5.0.202011040924/tools/bin/../lib/gcc/arm-none-eabi/7.3.1/thumb/v7e-m/fpv4-sp/hard\libgcc.a
LOAD d:/cours/eea-a2s1/language_c/info_indus_s2/stm32cubeide_1.5.1/stm32cubeide/plugins/com.st.stm32cube.ide.mcu.externaltools.gnu-tools-for-stm32.7-2018-q2-update.win32_1.5.0.202011040924/tools/bin/../lib/gcc/arm-none-eabi/7.3.1/../../../../arm-none-eabi/lib/thumb/v7e-m/fpv4-sp/hard\libc_nano.a
LOAD d:/cours/eea-a2s1/language_c/info_indus_s2/stm32cubeide_1.5.1/stm32cubeide/plugins/com.st.stm32cube.ide.mcu.externaltools.gnu-tools-for-stm32.7-2018-q2-update.win32_1.5.0.202011040924/tools/bin/../lib/gcc/arm-none-eabi/7.3.1/../../../../arm-none-eabi/lib/thumb/v7e-m/fpv4-sp/hard\libnosys.a
END GROUP
LOAD d:/cours/eea-a2s1/language_c/info_indus_s2/stm32cubeide_1.5.1/stm32cubeide/plugins/com.st.stm32cube.ide.mcu.externaltools.gnu-tools-for-stm32.7-2018-q2-update.win32_1.5.0.202011040924/tools/bin/../lib/gcc/arm-none-eabi/7.3.1/thumb/v7e-m/fpv4-sp/hard/crtend.o
LOAD d:/cours/eea-a2s1/language_c/info_indus_s2/stm32cubeide_1.5.1/stm32cubeide/plugins/com.st.stm32cube.ide.mcu.externaltools.gnu-tools-for-stm32.7-2018-q2-update.win32_1.5.0.202011040924/tools/bin/../lib/gcc/arm-none-eabi/7.3.1/thumb/v7e-m/fpv4-sp/hard/crtn.o
                0x0000000020050000                _estack = (ORIGIN (RAM) + LENGTH (RAM))
                0x0000000000000200                _Min_Heap_Size = 0x200
                0x0000000000000400                _Min_Stack_Size = 0x400

.isr_vector     0x0000000008000000      0x1c8
                0x0000000008000000                . = ALIGN (0x4)
 *(.isr_vector)
 .isr_vector    0x0000000008000000      0x1c8 Core/Startup/startup_stm32f746nghx.o
                0x0000000008000000                g_pfnVectors
                0x00000000080001c8                . = ALIGN (0x4)

.text           0x00000000080001d0     0xe760
                0x00000000080001d0                . = ALIGN (0x4)
 *(.text)
 .text          0x00000000080001d0       0x40 d:/cours/eea-a2s1/language_c/info_indus_s2/stm32cubeide_1.5.1/stm32cubeide/plugins/com.st.stm32cube.ide.mcu.externaltools.gnu-tools-for-stm32.7-2018-q2-update.win32_1.5.0.202011040924/tools/bin/../lib/gcc/arm-none-eabi/7.3.1/thumb/v7e-m/fpv4-sp/hard/crtbegin.o
 .text          0x0000000008000210       0xa0 d:/cours/eea-a2s1/language_c/info_indus_s2/stm32cubeide_1.5.1/stm32cubeide/plugins/com.st.stm32cube.ide.mcu.externaltools.gnu-tools-for-stm32.7-2018-q2-update.win32_1.5.0.202011040924/tools/bin/../lib/gcc/arm-none-eabi/7.3.1/../../../../arm-none-eabi/lib/thumb/v7e-m/fpv4-sp/hard\libc_nano.a(lib_a-memchr.o)
                0x0000000008000210                memchr
 .text          0x00000000080002b0      0x378 d:/cours/eea-a2s1/language_c/info_indus_s2/stm32cubeide_1.5.1/stm32cubeide/plugins/com.st.stm32cube.ide.mcu.externaltools.gnu-tools-for-stm32.7-2018-q2-update.win32_1.5.0.202011040924/tools/bin/../lib/gcc/arm-none-eabi/7.3.1/thumb/v7e-m/fpv4-sp/hard\libgcc.a(_arm_addsubdf3.o)
                0x00000000080002b0                __aeabi_drsub
                0x00000000080002b8                __aeabi_dsub
                0x00000000080002b8                __subdf3
                0x00000000080002bc                __aeabi_dadd
                0x00000000080002bc                __adddf3
                0x0000000008000534                __floatunsidf
                0x0000000008000534                __aeabi_ui2d
                0x0000000008000554                __floatsidf
                0x0000000008000554                __aeabi_i2d
                0x0000000008000578                __aeabi_f2d
                0x0000000008000578                __extendsfdf2
                0x00000000080005bc                __floatundidf
                0x00000000080005bc                __aeabi_ul2d
                0x00000000080005cc                __floatdidf
                0x00000000080005cc                __aeabi_l2d
 .text          0x0000000008000628      0x110 d:/cours/eea-a2s1/language_c/info_indus_s2/stm32cubeide_1.5.1/stm32cubeide/plugins/com.st.stm32cube.ide.mcu.externaltools.gnu-tools-for-stm32.7-2018-q2-update.win32_1.5.0.202011040924/tools/bin/../lib/gcc/arm-none-eabi/7.3.1/thumb/v7e-m/fpv4-sp/hard\libgcc.a(_arm_cmpdf2.o)
                0x0000000008000628                __gtdf2
                0x0000000008000628                __gedf2
                0x0000000008000630                __ltdf2
                0x0000000008000630                __ledf2
                0x0000000008000638                __nedf2
                0x0000000008000638                __eqdf2
                0x0000000008000638                __cmpdf2
                0x00000000080006b4                __aeabi_cdrcmple
                0x00000000080006c4                __aeabi_cdcmpeq
                0x00000000080006c4                __aeabi_cdcmple
                0x00000000080006d4                __aeabi_dcmpeq
                0x00000000080006e8                __aeabi_dcmplt
                0x00000000080006fc                __aeabi_dcmple
                0x0000000008000710                __aeabi_dcmpge
                0x0000000008000724                __aeabi_dcmpgt
 .text          0x0000000008000738       0x30 d:/cours/eea-a2s1/language_c/info_indus_s2/stm32cubeide_1.5.1/stm32cubeide/plugins/com.st.stm32cube.ide.mcu.externaltools.gnu-tools-for-stm32.7-2018-q2-update.win32_1.5.0.202011040924/tools/bin/../lib/gcc/arm-none-eabi/7.3.1/thumb/v7e-m/fpv4-sp/hard\libgcc.a(_aeabi_uldivmod.o)
                0x0000000008000738                __aeabi_uldivmod
 .text          0x0000000008000768      0x2cc d:/cours/eea-a2s1/language_c/info_indus_s2/stm32cubeide_1.5.1/stm32cubeide/plugins/com.st.stm32cube.ide.mcu.externaltools.gnu-tools-for-stm32.7-2018-q2-update.win32_1.5.0.202011040924/tools/bin/../lib/gcc/arm-none-eabi/7.3.1/thumb/v7e-m/fpv4-sp/hard\libgcc.a(_udivmoddi4.o)
                0x0000000008000768                __udivmoddi4
 .text          0x0000000008000a34        0x4 d:/cours/eea-a2s1/language_c/info_indus_s2/stm32cubeide_1.5.1/stm32cubeide/plugins/com.st.stm32cube.ide.mcu.externaltools.gnu-tools-for-stm32.7-2018-q2-update.win32_1.5.0.202011040924/tools/bin/../lib/gcc/arm-none-eabi/7.3.1/thumb/v7e-m/fpv4-sp/hard\libgcc.a(_dvmd_tls.o)
                0x0000000008000a34                __aeabi_idiv0
                0x0000000008000a34                __aeabi_ldiv0
 *(.text*)
 .text.vApplicationIdleHook
                0x0000000008000a38        0xe Core/Src/freertos.o
                0x0000000008000a38                vApplicationIdleHook
 .text.vApplicationStackOverflowHook
                0x0000000008000a46       0x16 Core/Src/freertos.o
                0x0000000008000a46                vApplicationStackOverflowHook
 .text.vApplicationMallocFailedHook
                0x0000000008000a5c        0xe Core/Src/freertos.o
                0x0000000008000a5c                vApplicationMallocFailedHook
 *fill*         0x0000000008000a6a        0x2 
 .text.vApplicationGetIdleTaskMemory
                0x0000000008000a6c       0x34 Core/Src/freertos.o
                0x0000000008000a6c                vApplicationGetIdleTaskMemory
 .text.ft5336_Init
                0x0000000008000aa0       0x1c Core/Src/ft5336.o
                0x0000000008000aa0                ft5336_Init
 .text.ft5336_Reset
                0x0000000008000abc       0x16 Core/Src/ft5336.o
                0x0000000008000abc                ft5336_Reset
 .text.ft5336_ReadID
                0x0000000008000ad2       0x5c Core/Src/ft5336.o
                0x0000000008000ad2                ft5336_ReadID
 .text.ft5336_TS_Start
                0x0000000008000b2e       0x22 Core/Src/ft5336.o
                0x0000000008000b2e                ft5336_TS_Start
 .text.ft5336_TS_DetectTouch
                0x0000000008000b50       0x54 Core/Src/ft5336.o
                0x0000000008000b50                ft5336_TS_DetectTouch
 .text.ft5336_TS_GetXY
                0x0000000008000ba4      0x1e0 Core/Src/ft5336.o
                0x0000000008000ba4                ft5336_TS_GetXY
 .text.ft5336_TS_EnableIT
                0x0000000008000d84       0x28 Core/Src/ft5336.o
                0x0000000008000d84                ft5336_TS_EnableIT
 .text.ft5336_TS_DisableIT
                0x0000000008000dac       0x28 Core/Src/ft5336.o
                0x0000000008000dac                ft5336_TS_DisableIT
 .text.ft5336_TS_ITStatus
                0x0000000008000dd4       0x18 Core/Src/ft5336.o
                0x0000000008000dd4                ft5336_TS_ITStatus
 .text.ft5336_TS_ClearIT
                0x0000000008000dec       0x16 Core/Src/ft5336.o
                0x0000000008000dec                ft5336_TS_ClearIT
 .text.ft5336_TS_GetGestureID
                0x0000000008000e02       0x32 Core/Src/ft5336.o
                0x0000000008000e02                ft5336_TS_GetGestureID
 .text.ft5336_TS_GetTouchInfo
                0x0000000008000e34      0x15c Core/Src/ft5336.o
                0x0000000008000e34                ft5336_TS_GetTouchInfo
 .text.ft5336_Get_I2C_InitializedStatus
                0x0000000008000f90       0x18 Core/Src/ft5336.o
 .text.ft5336_I2C_InitializeIfRequired
                0x0000000008000fa8       0x20 Core/Src/ft5336.o
 .text.ft5336_TS_Configure
                0x0000000008000fc8       0x1c Core/Src/ft5336.o
 .text.main     0x0000000008000fe4      0x79c Core/Src/main.o
                0x0000000008000fe4                main
 .text.SystemClock_Config
                0x0000000008001780      0x160 Core/Src/main.o
                0x0000000008001780                SystemClock_Config
 .text.MX_ADC1_Init
                0x00000000080018e0       0xa4 Core/Src/main.o
 .text.MX_ADC3_Init
                0x0000000008001984       0xa4 Core/Src/main.o
 .text.MX_DAC_Init
                0x0000000008001a28       0x54 Core/Src/main.o
 .text.MX_DMA2D_Init
                0x0000000008001a7c       0x64 Core/Src/main.o
 .text.MX_I2C1_Init
                0x0000000008001ae0       0x80 Core/Src/main.o
 .text.MX_I2C3_Init
                0x0000000008001b60       0x80 Core/Src/main.o
 .text.MX_LTDC_Init
                0x0000000008001be0      0x104 Core/Src/main.o
 .text.MX_RTC_Init
                0x0000000008001ce4      0x14c Core/Src/main.o
 .text.MX_TIM1_Init
                0x0000000008001e30       0xa8 Core/Src/main.o
 .text.MX_TIM2_Init
                0x0000000008001ed8       0x9c Core/Src/main.o
 .text.MX_TIM3_Init
                0x0000000008001f74       0xcc Core/Src/main.o
 .text.MX_TIM5_Init
                0x0000000008002040       0x9c Core/Src/main.o
 .text.MX_TIM8_Init
                0x00000000080020dc       0xa8 Core/Src/main.o
 .text.MX_UART7_Init
                0x0000000008002184       0x60 Core/Src/main.o
 .text.MX_USART1_UART_Init
                0x00000000080021e4       0x60 Core/Src/main.o
 .text.MX_USART6_UART_Init
                0x0000000008002244       0x60 Core/Src/main.o
 .text.MX_FMC_Init
                0x00000000080022a4       0x9c Core/Src/main.o
 .text.MX_GPIO_Init
                0x0000000008002340      0x420 Core/Src/main.o
 .text.HAL_UART_RxCpltCallback
                0x0000000008002760       0x9c Core/Src/main.o
                0x0000000008002760                HAL_UART_RxCpltCallback
 .text.StartDefaultTask
                0x00000000080027fc       0x10 Core/Src/main.o
                0x00000000080027fc                StartDefaultTask
 .text.Affichage_temps
                0x000000000800280c       0xa4 Core/Src/main.o
                0x000000000800280c                Affichage_temps
 .text.Curseur  0x00000000080028b0      0x25c Core/Src/main.o
                0x00000000080028b0                Curseur
 .text.H_chat   0x0000000008002b0c      0x214 Core/Src/main.o
                0x0000000008002b0c                H_chat
 .text.HAL_TIM_PeriodElapsedCallback
                0x0000000008002d20       0x24 Core/Src/main.o
                0x0000000008002d20                HAL_TIM_PeriodElapsedCallback
 .text.Error_Handler
                0x0000000008002d44        0x8 Core/Src/main.o
                0x0000000008002d44                Error_Handler
 .text.I2Cx_MspInit
                0x0000000008002d4c      0x160 Core/Src/stm32746g_discovery.o
 .text.I2Cx_Init
                0x0000000008002eac       0x78 Core/Src/stm32746g_discovery.o
 .text.I2Cx_ReadMultiple
                0x0000000008002f24       0x5a Core/Src/stm32746g_discovery.o
 .text.I2Cx_WriteMultiple
                0x0000000008002f7e       0x5a Core/Src/stm32746g_discovery.o
 .text.I2Cx_Error
                0x0000000008002fd8       0x20 Core/Src/stm32746g_discovery.o
 .text.TS_IO_Init
                0x0000000008002ff8       0x14 Core/Src/stm32746g_discovery.o
                0x0000000008002ff8                TS_IO_Init
 .text.TS_IO_Write
                0x000000000800300c       0x34 Core/Src/stm32746g_discovery.o
                0x000000000800300c                TS_IO_Write
 .text.TS_IO_Read
                0x0000000008003040       0x3c Core/Src/stm32746g_discovery.o
                0x0000000008003040                TS_IO_Read
 .text.TS_IO_Delay
                0x000000000800307c       0x16 Core/Src/stm32746g_discovery.o
                0x000000000800307c                TS_IO_Delay
 *fill*         0x0000000008003092        0x2 
 .text.BSP_LCD_Init
                0x0000000008003094       0xe0 Core/Src/stm32746g_discovery_lcd.o
                0x0000000008003094                BSP_LCD_Init
 .text.BSP_LCD_GetXSize
                0x0000000008003174       0x28 Core/Src/stm32746g_discovery_lcd.o
                0x0000000008003174                BSP_LCD_GetXSize
 .text.BSP_LCD_GetYSize
                0x000000000800319c       0x28 Core/Src/stm32746g_discovery_lcd.o
                0x000000000800319c                BSP_LCD_GetYSize
 .text.BSP_LCD_LayerDefaultInit
                0x00000000080031c4       0xc0 Core/Src/stm32746g_discovery_lcd.o
                0x00000000080031c4                BSP_LCD_LayerDefaultInit
 .text.BSP_LCD_SelectLayer
                0x0000000008003284       0x20 Core/Src/stm32746g_discovery_lcd.o
                0x0000000008003284                BSP_LCD_SelectLayer
 .text.BSP_LCD_SetTextColor
                0x00000000080032a4       0x30 Core/Src/stm32746g_discovery_lcd.o
                0x00000000080032a4                BSP_LCD_SetTextColor
 .text.BSP_LCD_SetBackColor
                0x00000000080032d4       0x34 Core/Src/stm32746g_discovery_lcd.o
                0x00000000080032d4                BSP_LCD_SetBackColor
 .text.BSP_LCD_SetFont
                0x0000000008003308       0x34 Core/Src/stm32746g_discovery_lcd.o
                0x0000000008003308                BSP_LCD_SetFont
 .text.BSP_LCD_GetFont
                0x000000000800333c       0x2c Core/Src/stm32746g_discovery_lcd.o
                0x000000000800333c                BSP_LCD_GetFont
 .text.BSP_LCD_Clear
                0x0000000008003368       0x50 Core/Src/stm32746g_discovery_lcd.o
                0x0000000008003368                BSP_LCD_Clear
 .text.BSP_LCD_DisplayChar
                0x00000000080033b8       0x88 Core/Src/stm32746g_discovery_lcd.o
                0x00000000080033b8                BSP_LCD_DisplayChar
 .text.BSP_LCD_DisplayStringAt
                0x0000000008003440      0x188 Core/Src/stm32746g_discovery_lcd.o
                0x0000000008003440                BSP_LCD_DisplayStringAt
 .text.BSP_LCD_DisplayStringAtLine
                0x00000000080035c8       0x2e Core/Src/stm32746g_discovery_lcd.o
                0x00000000080035c8                BSP_LCD_DisplayStringAtLine
 *fill*         0x00000000080035f6        0x2 
 .text.BSP_LCD_DrawHLine
                0x00000000080035f8       0xbc Core/Src/stm32746g_discovery_lcd.o
                0x00000000080035f8                BSP_LCD_DrawHLine
 .text.BSP_LCD_DrawCircle
                0x00000000080036b4      0x1e0 Core/Src/stm32746g_discovery_lcd.o
                0x00000000080036b4                BSP_LCD_DrawCircle
 .text.BSP_LCD_DrawPixel
                0x0000000008003894       0x90 Core/Src/stm32746g_discovery_lcd.o
                0x0000000008003894                BSP_LCD_DrawPixel
 .text.BSP_LCD_FillCircle
                0x0000000008003924      0x140 Core/Src/stm32746g_discovery_lcd.o
                0x0000000008003924                BSP_LCD_FillCircle
 .text.BSP_LCD_DisplayOn
                0x0000000008003a64       0x3c Core/Src/stm32746g_discovery_lcd.o
                0x0000000008003a64                BSP_LCD_DisplayOn
 .text.BSP_LCD_MspInit
                0x0000000008003aa0      0x1b4 Core/Src/stm32746g_discovery_lcd.o
                0x0000000008003aa0                BSP_LCD_MspInit
 .text.BSP_LCD_ClockConfig
                0x0000000008003c54       0x38 Core/Src/stm32746g_discovery_lcd.o
                0x0000000008003c54                BSP_LCD_ClockConfig
 .text.DrawChar
                0x0000000008003c8c      0x170 Core/Src/stm32746g_discovery_lcd.o
 .text.LL_FillBuffer
                0x0000000008003dfc       0x98 Core/Src/stm32746g_discovery_lcd.o
 .text.BSP_SDRAM_Init
                0x0000000008003e94       0xbc Core/Src/stm32746g_discovery_sdram.o
                0x0000000008003e94                BSP_SDRAM_Init
 .text.BSP_SDRAM_Initialization_sequence
                0x0000000008003f50       0xc0 Core/Src/stm32746g_discovery_sdram.o
                0x0000000008003f50                BSP_SDRAM_Initialization_sequence
 .text.BSP_SDRAM_MspInit
                0x0000000008004010      0x1f0 Core/Src/stm32746g_discovery_sdram.o
                0x0000000008004010                BSP_SDRAM_MspInit
 .text.BSP_TS_Init
                0x0000000008004200       0x80 Core/Src/stm32746g_discovery_ts.o
                0x0000000008004200                BSP_TS_Init
 .text.BSP_TS_GetState
                0x0000000008004280      0x3ac Core/Src/stm32746g_discovery_ts.o
                0x0000000008004280                BSP_TS_GetState
 .text.BSP_TS_Get_GestureId
                0x000000000800462c       0x94 Core/Src/stm32746g_discovery_ts.o
                0x000000000800462c                BSP_TS_Get_GestureId
 .text.HAL_MspInit
                0x00000000080046c0       0x50 Core/Src/stm32f7xx_hal_msp.o
                0x00000000080046c0                HAL_MspInit
 .text.HAL_ADC_MspInit
                0x0000000008004710      0x10c Core/Src/stm32f7xx_hal_msp.o
                0x0000000008004710                HAL_ADC_MspInit
 .text.HAL_DAC_MspInit
                0x000000000800481c       0x90 Core/Src/stm32f7xx_hal_msp.o
                0x000000000800481c                HAL_DAC_MspInit
 .text.HAL_DMA2D_MspInit
                0x00000000080048ac       0x40 Core/Src/stm32f7xx_hal_msp.o
                0x00000000080048ac                HAL_DMA2D_MspInit
 .text.HAL_I2C_MspInit
                0x00000000080048ec       0xf0 Core/Src/stm32f7xx_hal_msp.o
                0x00000000080048ec                HAL_I2C_MspInit
 .text.HAL_I2C_MspDeInit
                0x00000000080049dc       0x78 Core/Src/stm32f7xx_hal_msp.o
                0x00000000080049dc                HAL_I2C_MspDeInit
 .text.HAL_LTDC_MspInit
                0x0000000008004a54      0x190 Core/Src/stm32f7xx_hal_msp.o
                0x0000000008004a54                HAL_LTDC_MspInit
 .text.HAL_RTC_MspInit
                0x0000000008004be4       0x34 Core/Src/stm32f7xx_hal_msp.o
                0x0000000008004be4                HAL_RTC_MspInit
 .text.HAL_TIM_Base_MspInit
                0x0000000008004c18       0xdc Core/Src/stm32f7xx_hal_msp.o
                0x0000000008004c18                HAL_TIM_Base_MspInit
 .text.HAL_UART_MspInit
                0x0000000008004cf4      0x19c Core/Src/stm32f7xx_hal_msp.o
                0x0000000008004cf4                HAL_UART_MspInit
 .text.HAL_FMC_MspInit
                0x0000000008004e90      0x120 Core/Src/stm32f7xx_hal_msp.o
 .text.HAL_SDRAM_MspInit
                0x0000000008004fb0       0x14 Core/Src/stm32f7xx_hal_msp.o
                0x0000000008004fb0                HAL_SDRAM_MspInit
 .text.HAL_InitTick
                0x0000000008004fc4       0xb0 Core/Src/stm32f7xx_hal_timebase_tim.o
                0x0000000008004fc4                HAL_InitTick
 .text.NMI_Handler
                0x0000000008005074        0x6 Core/Src/stm32f7xx_it.o
                0x0000000008005074                NMI_Handler
 .text.HardFault_Handler
                0x000000000800507a        0x6 Core/Src/stm32f7xx_it.o
                0x000000000800507a                HardFault_Handler
 .text.MemManage_Handler
                0x0000000008005080        0x6 Core/Src/stm32f7xx_it.o
                0x0000000008005080                MemManage_Handler
 .text.BusFault_Handler
                0x0000000008005086        0x6 Core/Src/stm32f7xx_it.o
                0x0000000008005086                BusFault_Handler
 .text.UsageFault_Handler
                0x000000000800508c        0x6 Core/Src/stm32f7xx_it.o
                0x000000000800508c                UsageFault_Handler
 .text.DebugMon_Handler
                0x0000000008005092        0xe Core/Src/stm32f7xx_it.o
                0x0000000008005092                DebugMon_Handler
 .text.USART1_IRQHandler
                0x00000000080050a0       0x14 Core/Src/stm32f7xx_it.o
                0x00000000080050a0                USART1_IRQHandler
 .text.TIM6_DAC_IRQHandler
                0x00000000080050b4       0x1c Core/Src/stm32f7xx_it.o
                0x00000000080050b4                TIM6_DAC_IRQHandler
 .text.LTDC_IRQHandler
                0x00000000080050d0       0x14 Core/Src/stm32f7xx_it.o
                0x00000000080050d0                LTDC_IRQHandler
 .text._sbrk    0x00000000080050e4       0x6c Core/Src/sysmem.o
                0x00000000080050e4                _sbrk
 .text.SystemInit
                0x0000000008005150       0x2c Core/Src/system_stm32f7xx.o
                0x0000000008005150                SystemInit
 .text.Reset_Handler
                0x000000000800517c       0x50 Core/Startup/startup_stm32f746nghx.o
                0x000000000800517c                Reset_Handler
 .text.Default_Handler
                0x00000000080051cc        0x2 Core/Startup/startup_stm32f746nghx.o
                0x00000000080051cc                RTC_Alarm_IRQHandler
                0x00000000080051cc                EXTI2_IRQHandler
                0x00000000080051cc                TIM8_CC_IRQHandler
                0x00000000080051cc                UART8_IRQHandler
                0x00000000080051cc                SPI4_IRQHandler
                0x00000000080051cc                TIM1_CC_IRQHandler
                0x00000000080051cc                DMA2_Stream5_IRQHandler
                0x00000000080051cc                DMA1_Stream5_IRQHandler
                0x00000000080051cc                PVD_IRQHandler
                0x00000000080051cc                TAMP_STAMP_IRQHandler
                0x00000000080051cc                CAN2_RX1_IRQHandler
                0x00000000080051cc                EXTI3_IRQHandler
                0x00000000080051cc                TIM8_TRG_COM_TIM14_IRQHandler
                0x00000000080051cc                TIM1_UP_TIM10_IRQHandler
                0x00000000080051cc                TIM8_UP_TIM13_IRQHandler
                0x00000000080051cc                I2C3_ER_IRQHandler
                0x00000000080051cc                EXTI0_IRQHandler
                0x00000000080051cc                I2C2_EV_IRQHandler
                0x00000000080051cc                DMA1_Stream2_IRQHandler
                0x00000000080051cc                CAN1_RX0_IRQHandler
                0x00000000080051cc                FPU_IRQHandler
                0x00000000080051cc                OTG_HS_WKUP_IRQHandler
                0x00000000080051cc                LTDC_ER_IRQHandler
                0x00000000080051cc                CAN2_SCE_IRQHandler
                0x00000000080051cc                DMA2_Stream2_IRQHandler
                0x00000000080051cc                SPI1_IRQHandler
                0x00000000080051cc                TIM1_BRK_TIM9_IRQHandler
                0x00000000080051cc                DCMI_IRQHandler
                0x00000000080051cc                CAN2_RX0_IRQHandler
                0x00000000080051cc                DMA2_Stream3_IRQHandler
                0x00000000080051cc                SAI2_IRQHandler
                0x00000000080051cc                USART6_IRQHandler
                0x00000000080051cc                USART3_IRQHandler
                0x00000000080051cc                CAN1_RX1_IRQHandler
                0x00000000080051cc                UART5_IRQHandler
                0x00000000080051cc                DMA2_Stream0_IRQHandler
                0x00000000080051cc                TIM4_IRQHandler
                0x00000000080051cc                QUADSPI_IRQHandler
                0x00000000080051cc                I2C1_EV_IRQHandler
                0x00000000080051cc                DMA1_Stream6_IRQHandler
                0x00000000080051cc                DMA1_Stream1_IRQHandler
                0x00000000080051cc                UART4_IRQHandler
                0x00000000080051cc                TIM3_IRQHandler
                0x00000000080051cc                RCC_IRQHandler
                0x00000000080051cc                TIM8_BRK_TIM12_IRQHandler
                0x00000000080051cc                Default_Handler
                0x00000000080051cc                CEC_IRQHandler
                0x00000000080051cc                EXTI15_10_IRQHandler
                0x00000000080051cc                ADC_IRQHandler
                0x00000000080051cc                DMA1_Stream7_IRQHandler
                0x00000000080051cc                SPI5_IRQHandler
                0x00000000080051cc                TIM7_IRQHandler
                0x00000000080051cc                SDMMC1_IRQHandler
                0x00000000080051cc                CAN2_TX_IRQHandler
                0x00000000080051cc                TIM5_IRQHandler
                0x00000000080051cc                DMA2_Stream7_IRQHandler
                0x00000000080051cc                I2C3_EV_IRQHandler
                0x00000000080051cc                EXTI9_5_IRQHandler
                0x00000000080051cc                RTC_WKUP_IRQHandler
                0x00000000080051cc                ETH_WKUP_IRQHandler
                0x00000000080051cc                SPDIF_RX_IRQHandler
                0x00000000080051cc                SPI2_IRQHandler
                0x00000000080051cc                OTG_HS_EP1_IN_IRQHandler
                0x00000000080051cc                DMA1_Stream0_IRQHandler
                0x00000000080051cc                CAN1_TX_IRQHandler
                0x00000000080051cc                EXTI4_IRQHandler
                0x00000000080051cc                RNG_IRQHandler
                0x00000000080051cc                ETH_IRQHandler
                0x00000000080051cc                OTG_HS_EP1_OUT_IRQHandler
                0x00000000080051cc                WWDG_IRQHandler
                0x00000000080051cc                SPI6_IRQHandler
                0x00000000080051cc                I2C4_EV_IRQHandler
                0x00000000080051cc                TIM2_IRQHandler
                0x00000000080051cc                OTG_FS_WKUP_IRQHandler
                0x00000000080051cc                TIM1_TRG_COM_TIM11_IRQHandler
                0x00000000080051cc                OTG_HS_IRQHandler
                0x00000000080051cc                DMA2D_IRQHandler
                0x00000000080051cc                EXTI1_IRQHandler
                0x00000000080051cc                UART7_IRQHandler
                0x00000000080051cc                USART2_IRQHandler
                0x00000000080051cc                I2C2_ER_IRQHandler
                0x00000000080051cc                DMA2_Stream1_IRQHandler
                0x00000000080051cc                CAN1_SCE_IRQHandler
                0x00000000080051cc                FLASH_IRQHandler
                0x00000000080051cc                DMA2_Stream4_IRQHandler
                0x00000000080051cc                OTG_FS_IRQHandler
                0x00000000080051cc                SPI3_IRQHandler
                0x00000000080051cc                DMA1_Stream4_IRQHandler
                0x00000000080051cc                I2C1_ER_IRQHandler
                0x00000000080051cc                FMC_IRQHandler
                0x00000000080051cc                LPTIM1_IRQHandler
                0x00000000080051cc                I2C4_ER_IRQHandler
                0x00000000080051cc                DMA2_Stream6_IRQHandler
                0x00000000080051cc                SAI1_IRQHandler
                0x00000000080051cc                DMA1_Stream3_IRQHandler
 .text.HAL_Init
                0x00000000080051ce       0x1a Drivers/STM32F7xx_HAL_Driver/Src/stm32f7xx_hal.o
                0x00000000080051ce                HAL_Init
 .text.HAL_IncTick
                0x00000000080051e8       0x28 Drivers/STM32F7xx_HAL_Driver/Src/stm32f7xx_hal.o
                0x00000000080051e8                HAL_IncTick
 .text.HAL_GetTick
                0x0000000008005210       0x18 Drivers/STM32F7xx_HAL_Driver/Src/stm32f7xx_hal.o
                0x0000000008005210                HAL_GetTick
 .text.HAL_Delay
                0x0000000008005228       0x44 Drivers/STM32F7xx_HAL_Driver/Src/stm32f7xx_hal.o
                0x0000000008005228                HAL_Delay
 .text.HAL_ADC_Init
                0x000000000800526c       0x88 Drivers/STM32F7xx_HAL_Driver/Src/stm32f7xx_hal_adc.o
                0x000000000800526c                HAL_ADC_Init
 .text.HAL_ADC_Start
                0x00000000080052f4      0x180 Drivers/STM32F7xx_HAL_Driver/Src/stm32f7xx_hal_adc.o
                0x00000000080052f4                HAL_ADC_Start
 .text.HAL_ADC_PollForConversion
                0x0000000008005474      0x108 Drivers/STM32F7xx_HAL_Driver/Src/stm32f7xx_hal_adc.o
                0x0000000008005474                HAL_ADC_PollForConversion
 .text.HAL_ADC_GetValue
                0x000000000800557c       0x1a Drivers/STM32F7xx_HAL_Driver/Src/stm32f7xx_hal_adc.o
                0x000000000800557c                HAL_ADC_GetValue
 *fill*         0x0000000008005596        0x2 
 .text.HAL_ADC_ConfigChannel
                0x0000000008005598      0x294 Drivers/STM32F7xx_HAL_Driver/Src/stm32f7xx_hal_adc.o
                0x0000000008005598                HAL_ADC_ConfigChannel
 .text.ADC_Init
                0x000000000800582c      0x1f4 Drivers/STM32F7xx_HAL_Driver/Src/stm32f7xx_hal_adc.o
 .text.__NVIC_SetPriorityGrouping
                0x0000000008005a20       0x48 Drivers/STM32F7xx_HAL_Driver/Src/stm32f7xx_hal_cortex.o
 .text.__NVIC_GetPriorityGrouping
                0x0000000008005a68       0x1c Drivers/STM32F7xx_HAL_Driver/Src/stm32f7xx_hal_cortex.o
 .text.__NVIC_EnableIRQ
                0x0000000008005a84       0x3c Drivers/STM32F7xx_HAL_Driver/Src/stm32f7xx_hal_cortex.o
 .text.__NVIC_SetPriority
                0x0000000008005ac0       0x54 Drivers/STM32F7xx_HAL_Driver/Src/stm32f7xx_hal_cortex.o
 .text.NVIC_EncodePriority
                0x0000000008005b14       0x66 Drivers/STM32F7xx_HAL_Driver/Src/stm32f7xx_hal_cortex.o
 .text.HAL_NVIC_SetPriorityGrouping
                0x0000000008005b7a       0x16 Drivers/STM32F7xx_HAL_Driver/Src/stm32f7xx_hal_cortex.o
                0x0000000008005b7a                HAL_NVIC_SetPriorityGrouping
 .text.HAL_NVIC_SetPriority
                0x0000000008005b90       0x38 Drivers/STM32F7xx_HAL_Driver/Src/stm32f7xx_hal_cortex.o
                0x0000000008005b90                HAL_NVIC_SetPriority
 .text.HAL_NVIC_EnableIRQ
                0x0000000008005bc8       0x1c Drivers/STM32F7xx_HAL_Driver/Src/stm32f7xx_hal_cortex.o
                0x0000000008005bc8                HAL_NVIC_EnableIRQ
 .text.HAL_DAC_Init
                0x0000000008005be4       0x44 Drivers/STM32F7xx_HAL_Driver/Src/stm32f7xx_hal_dac.o
                0x0000000008005be4                HAL_DAC_Init
 .text.HAL_DAC_IRQHandler
                0x0000000008005c28       0x94 Drivers/STM32F7xx_HAL_Driver/Src/stm32f7xx_hal_dac.o
                0x0000000008005c28                HAL_DAC_IRQHandler
 .text.HAL_DAC_DMAUnderrunCallbackCh1
                0x0000000008005cbc       0x14 Drivers/STM32F7xx_HAL_Driver/Src/stm32f7xx_hal_dac.o
                0x0000000008005cbc                HAL_DAC_DMAUnderrunCallbackCh1
 .text.HAL_DAC_ConfigChannel
                0x0000000008005cd0       0x9a Drivers/STM32F7xx_HAL_Driver/Src/stm32f7xx_hal_dac.o
                0x0000000008005cd0                HAL_DAC_ConfigChannel
 .text.HAL_DACEx_DMAUnderrunCallbackCh2
                0x0000000008005d6a       0x14 Drivers/STM32F7xx_HAL_Driver/Src/stm32f7xx_hal_dac_ex.o
                0x0000000008005d6a                HAL_DACEx_DMAUnderrunCallbackCh2
 *fill*         0x0000000008005d7e        0x2 
 .text.HAL_DMA_Init
                0x0000000008005d80      0x15c Drivers/STM32F7xx_HAL_Driver/Src/stm32f7xx_hal_dma.o
                0x0000000008005d80                HAL_DMA_Init
 .text.HAL_DMA_DeInit
                0x0000000008005edc       0xbc Drivers/STM32F7xx_HAL_Driver/Src/stm32f7xx_hal_dma.o
                0x0000000008005edc                HAL_DMA_DeInit
 .text.HAL_DMA_Abort_IT
                0x0000000008005f98       0x44 Drivers/STM32F7xx_HAL_Driver/Src/stm32f7xx_hal_dma.o
                0x0000000008005f98                HAL_DMA_Abort_IT
 .text.DMA_CalcBaseAndBitshift
                0x0000000008005fdc       0x6c Drivers/STM32F7xx_HAL_Driver/Src/stm32f7xx_hal_dma.o
 .text.DMA_CheckFifoParam
                0x0000000008006048       0xf4 Drivers/STM32F7xx_HAL_Driver/Src/stm32f7xx_hal_dma.o
 .text.HAL_DMA2D_Init
                0x000000000800613c       0x94 Drivers/STM32F7xx_HAL_Driver/Src/stm32f7xx_hal_dma2d.o
                0x000000000800613c                HAL_DMA2D_Init
 .text.HAL_DMA2D_Start
                0x00000000080061d0       0x56 Drivers/STM32F7xx_HAL_Driver/Src/stm32f7xx_hal_dma2d.o
                0x00000000080061d0                HAL_DMA2D_Start
 .text.HAL_DMA2D_PollForTransfer
                0x0000000008006226      0x1d2 Drivers/STM32F7xx_HAL_Driver/Src/stm32f7xx_hal_dma2d.o
                0x0000000008006226                HAL_DMA2D_PollForTransfer
 .text.HAL_DMA2D_ConfigLayer
                0x00000000080063f8      0x124 Drivers/STM32F7xx_HAL_Driver/Src/stm32f7xx_hal_dma2d.o
                0x00000000080063f8                HAL_DMA2D_ConfigLayer
 .text.DMA2D_SetConfig
                0x000000000800651c      0x138 Drivers/STM32F7xx_HAL_Driver/Src/stm32f7xx_hal_dma2d.o
 .text.HAL_GPIO_Init
                0x0000000008006654      0x354 Drivers/STM32F7xx_HAL_Driver/Src/stm32f7xx_hal_gpio.o
                0x0000000008006654                HAL_GPIO_Init
 .text.HAL_GPIO_DeInit
                0x00000000080069a8      0x214 Drivers/STM32F7xx_HAL_Driver/Src/stm32f7xx_hal_gpio.o
                0x00000000080069a8                HAL_GPIO_DeInit
 .text.HAL_GPIO_ReadPin
                0x0000000008006bbc       0x30 Drivers/STM32F7xx_HAL_Driver/Src/stm32f7xx_hal_gpio.o
                0x0000000008006bbc                HAL_GPIO_ReadPin
 .text.HAL_GPIO_WritePin
                0x0000000008006bec       0x32 Drivers/STM32F7xx_HAL_Driver/Src/stm32f7xx_hal_gpio.o
                0x0000000008006bec                HAL_GPIO_WritePin
 *fill*         0x0000000008006c1e        0x2 
 .text.HAL_I2C_Init
                0x0000000008006c20      0x120 Drivers/STM32F7xx_HAL_Driver/Src/stm32f7xx_hal_i2c.o
                0x0000000008006c20                HAL_I2C_Init
 .text.HAL_I2C_DeInit
                0x0000000008006d40       0x5e Drivers/STM32F7xx_HAL_Driver/Src/stm32f7xx_hal_i2c.o
                0x0000000008006d40                HAL_I2C_DeInit
 *fill*         0x0000000008006d9e        0x2 
 .text.HAL_I2C_Mem_Write
                0x0000000008006da0      0x228 Drivers/STM32F7xx_HAL_Driver/Src/stm32f7xx_hal_i2c.o
                0x0000000008006da0                HAL_I2C_Mem_Write
 .text.HAL_I2C_Mem_Read
                0x0000000008006fc8      0x234 Drivers/STM32F7xx_HAL_Driver/Src/stm32f7xx_hal_i2c.o
                0x0000000008006fc8                HAL_I2C_Mem_Read
 .text.HAL_I2C_GetState
                0x00000000080071fc       0x1c Drivers/STM32F7xx_HAL_Driver/Src/stm32f7xx_hal_i2c.o
                0x00000000080071fc                HAL_I2C_GetState
 .text.I2C_RequestMemoryWrite
                0x0000000008007218       0xa8 Drivers/STM32F7xx_HAL_Driver/Src/stm32f7xx_hal_i2c.o
 .text.I2C_RequestMemoryRead
                0x00000000080072c0       0xa8 Drivers/STM32F7xx_HAL_Driver/Src/stm32f7xx_hal_i2c.o
 .text.I2C_Flush_TXDR
                0x0000000008007368       0x48 Drivers/STM32F7xx_HAL_Driver/Src/stm32f7xx_hal_i2c.o
 .text.I2C_WaitOnFlagUntilTimeout
                0x00000000080073b0       0x80 Drivers/STM32F7xx_HAL_Driver/Src/stm32f7xx_hal_i2c.o
 .text.I2C_WaitOnTXISFlagUntilTimeout
                0x0000000008007430       0x80 Drivers/STM32F7xx_HAL_Driver/Src/stm32f7xx_hal_i2c.o
 .text.I2C_WaitOnSTOPFlagUntilTimeout
                0x00000000080074b0       0x78 Drivers/STM32F7xx_HAL_Driver/Src/stm32f7xx_hal_i2c.o
 .text.I2C_IsAcknowledgeFailed
                0x0000000008007528       0xcc Drivers/STM32F7xx_HAL_Driver/Src/stm32f7xx_hal_i2c.o
 .text.I2C_TransferConfig
                0x00000000080075f4       0x5c Drivers/STM32F7xx_HAL_Driver/Src/stm32f7xx_hal_i2c.o
 .text.HAL_I2CEx_ConfigAnalogFilter
                0x0000000008007650       0x96 Drivers/STM32F7xx_HAL_Driver/Src/stm32f7xx_hal_i2c_ex.o
                0x0000000008007650                HAL_I2CEx_ConfigAnalogFilter
 .text.HAL_I2CEx_ConfigDigitalFilter
                0x00000000080076e6       0x98 Drivers/STM32F7xx_HAL_Driver/Src/stm32f7xx_hal_i2c_ex.o
                0x00000000080076e6                HAL_I2CEx_ConfigDigitalFilter
 *fill*         0x000000000800777e        0x2 
 .text.HAL_LTDC_Init
                0x0000000008007780      0x1a0 Drivers/STM32F7xx_HAL_Driver/Src/stm32f7xx_hal_ltdc.o
                0x0000000008007780                HAL_LTDC_Init
 .text.HAL_LTDC_IRQHandler
                0x0000000008007920      0x148 Drivers/STM32F7xx_HAL_Driver/Src/stm32f7xx_hal_ltdc.o
                0x0000000008007920                HAL_LTDC_IRQHandler
 .text.HAL_LTDC_ErrorCallback
                0x0000000008007a68       0x14 Drivers/STM32F7xx_HAL_Driver/Src/stm32f7xx_hal_ltdc.o
                0x0000000008007a68                HAL_LTDC_ErrorCallback
 .text.HAL_LTDC_LineEventCallback
                0x0000000008007a7c       0x14 Drivers/STM32F7xx_HAL_Driver/Src/stm32f7xx_hal_ltdc.o
                0x0000000008007a7c                HAL_LTDC_LineEventCallback
 .text.HAL_LTDC_ReloadEventCallback
                0x0000000008007a90       0x14 Drivers/STM32F7xx_HAL_Driver/Src/stm32f7xx_hal_ltdc.o
                0x0000000008007a90                HAL_LTDC_ReloadEventCallback
 .text.HAL_LTDC_ConfigLayer
                0x0000000008007aa4       0x7c Drivers/STM32F7xx_HAL_Driver/Src/stm32f7xx_hal_ltdc.o
                0x0000000008007aa4                HAL_LTDC_ConfigLayer
 .text.HAL_LTDC_GetState
                0x0000000008007b20       0x1c Drivers/STM32F7xx_HAL_Driver/Src/stm32f7xx_hal_ltdc.o
                0x0000000008007b20                HAL_LTDC_GetState
 .text.LTDC_SetConfig
                0x0000000008007b3c      0x334 Drivers/STM32F7xx_HAL_Driver/Src/stm32f7xx_hal_ltdc.o
 .text.HAL_PWR_EnableBkUpAccess
                0x0000000008007e70       0x20 Drivers/STM32F7xx_HAL_Driver/Src/stm32f7xx_hal_pwr.o
                0x0000000008007e70                HAL_PWR_EnableBkUpAccess
 .text.HAL_PWREx_EnableOverDrive
                0x0000000008007e90       0xa0 Drivers/STM32F7xx_HAL_Driver/Src/stm32f7xx_hal_pwr_ex.o
                0x0000000008007e90                HAL_PWREx_EnableOverDrive
 .text.HAL_RCC_OscConfig
                0x0000000008007f30      0x548 Drivers/STM32F7xx_HAL_Driver/Src/stm32f7xx_hal_rcc.o
                0x0000000008007f30                HAL_RCC_OscConfig
 .text.HAL_RCC_ClockConfig
                0x0000000008008478      0x1d8 Drivers/STM32F7xx_HAL_Driver/Src/stm32f7xx_hal_rcc.o
                0x0000000008008478                HAL_RCC_ClockConfig
 .text.HAL_RCC_GetSysClockFreq
                0x0000000008008650      0x164 Drivers/STM32F7xx_HAL_Driver/Src/stm32f7xx_hal_rcc.o
                0x0000000008008650                HAL_RCC_GetSysClockFreq
 .text.HAL_RCC_GetHCLKFreq
                0x00000000080087b4       0x18 Drivers/STM32F7xx_HAL_Driver/Src/stm32f7xx_hal_rcc.o
                0x00000000080087b4                HAL_RCC_GetHCLKFreq
 .text.HAL_RCC_GetPCLK1Freq
                0x00000000080087cc       0x28 Drivers/STM32F7xx_HAL_Driver/Src/stm32f7xx_hal_rcc.o
                0x00000000080087cc                HAL_RCC_GetPCLK1Freq
 .text.HAL_RCC_GetPCLK2Freq
                0x00000000080087f4       0x28 Drivers/STM32F7xx_HAL_Driver/Src/stm32f7xx_hal_rcc.o
                0x00000000080087f4                HAL_RCC_GetPCLK2Freq
 .text.HAL_RCC_GetClockConfig
                0x000000000800881c       0x64 Drivers/STM32F7xx_HAL_Driver/Src/stm32f7xx_hal_rcc.o
                0x000000000800881c                HAL_RCC_GetClockConfig
 .text.HAL_RCCEx_PeriphCLKConfig
                0x0000000008008880      0x7dc Drivers/STM32F7xx_HAL_Driver/Src/stm32f7xx_hal_rcc_ex.o
                0x0000000008008880                HAL_RCCEx_PeriphCLKConfig
 .text.HAL_RTC_Init
                0x000000000800905c       0xf8 Drivers/STM32F7xx_HAL_Driver/Src/stm32f7xx_hal_rtc.o
                0x000000000800905c                HAL_RTC_Init
 .text.HAL_RTC_SetTime
                0x0000000008009154      0x17c Drivers/STM32F7xx_HAL_Driver/Src/stm32f7xx_hal_rtc.o
                0x0000000008009154                HAL_RTC_SetTime
 .text.HAL_RTC_GetTime
                0x00000000080092d0       0xbc Drivers/STM32F7xx_HAL_Driver/Src/stm32f7xx_hal_rtc.o
                0x00000000080092d0                HAL_RTC_GetTime
 .text.HAL_RTC_SetDate
                0x000000000800938c      0x150 Drivers/STM32F7xx_HAL_Driver/Src/stm32f7xx_hal_rtc.o
                0x000000000800938c                HAL_RTC_SetDate
 .text.HAL_RTC_GetDate
                0x00000000080094dc       0xa0 Drivers/STM32F7xx_HAL_Driver/Src/stm32f7xx_hal_rtc.o
                0x00000000080094dc                HAL_RTC_GetDate
 .text.HAL_RTC_SetAlarm
                0x000000000800957c      0x230 Drivers/STM32F7xx_HAL_Driver/Src/stm32f7xx_hal_rtc.o
                0x000000000800957c                HAL_RTC_SetAlarm
 .text.HAL_RTC_WaitForSynchro
                0x00000000080097ac       0x50 Drivers/STM32F7xx_HAL_Driver/Src/stm32f7xx_hal_rtc.o
                0x00000000080097ac                HAL_RTC_WaitForSynchro
 .text.RTC_EnterInitMode
                0x00000000080097fc       0x58 Drivers/STM32F7xx_HAL_Driver/Src/stm32f7xx_hal_rtc.o
                0x00000000080097fc                RTC_EnterInitMode
 .text.RTC_ByteToBcd2
                0x0000000008009854       0x3c Drivers/STM32F7xx_HAL_Driver/Src/stm32f7xx_hal_rtc.o
                0x0000000008009854                RTC_ByteToBcd2
 .text.RTC_Bcd2ToByte
                0x0000000008009890       0x3c Drivers/STM32F7xx_HAL_Driver/Src/stm32f7xx_hal_rtc.o
                0x0000000008009890                RTC_Bcd2ToByte
 .text.HAL_RTCEx_SetTimeStamp
                0x00000000080098cc       0xac Drivers/STM32F7xx_HAL_Driver/Src/stm32f7xx_hal_rtc_ex.o
                0x00000000080098cc                HAL_RTCEx_SetTimeStamp
 .text.HAL_SDRAM_Init
                0x0000000008009978       0x68 Drivers/STM32F7xx_HAL_Driver/Src/stm32f7xx_hal_sdram.o
                0x0000000008009978                HAL_SDRAM_Init
 .text.HAL_SDRAM_SendCommand
                0x00000000080099e0       0x56 Drivers/STM32F7xx_HAL_Driver/Src/stm32f7xx_hal_sdram.o
                0x00000000080099e0                HAL_SDRAM_SendCommand
 .text.HAL_SDRAM_ProgramRefreshRate
                0x0000000008009a36       0x40 Drivers/STM32F7xx_HAL_Driver/Src/stm32f7xx_hal_sdram.o
                0x0000000008009a36                HAL_SDRAM_ProgramRefreshRate
 .text.HAL_TIM_Base_Init
                0x0000000008009a76       0x56 Drivers/STM32F7xx_HAL_Driver/Src/stm32f7xx_hal_tim.o
                0x0000000008009a76                HAL_TIM_Base_Init
 .text.HAL_TIM_Base_Start_IT
                0x0000000008009acc       0x54 Drivers/STM32F7xx_HAL_Driver/Src/stm32f7xx_hal_tim.o
                0x0000000008009acc                HAL_TIM_Base_Start_IT
 .text.HAL_TIM_IRQHandler
                0x0000000008009b20      0x23e Drivers/STM32F7xx_HAL_Driver/Src/stm32f7xx_hal_tim.o
                0x0000000008009b20                HAL_TIM_IRQHandler
 *fill*         0x0000000008009d5e        0x2 
 .text.HAL_TIM_ConfigClockSource
                0x0000000008009d60      0x174 Drivers/STM32F7xx_HAL_Driver/Src/stm32f7xx_hal_tim.o
                0x0000000008009d60                HAL_TIM_ConfigClockSource
 .text.HAL_TIM_SlaveConfigSynchro
                0x0000000008009ed4       0x84 Drivers/STM32F7xx_HAL_Driver/Src/stm32f7xx_hal_tim.o
                0x0000000008009ed4                HAL_TIM_SlaveConfigSynchro
 .text.HAL_TIM_OC_DelayElapsedCallback
                0x0000000008009f58       0x14 Drivers/STM32F7xx_HAL_Driver/Src/stm32f7xx_hal_tim.o
                0x0000000008009f58                HAL_TIM_OC_DelayElapsedCallback
 .text.HAL_TIM_IC_CaptureCallback
                0x0000000008009f6c       0x14 Drivers/STM32F7xx_HAL_Driver/Src/stm32f7xx_hal_tim.o
                0x0000000008009f6c                HAL_TIM_IC_CaptureCallback
 .text.HAL_TIM_PWM_PulseFinishedCallback
                0x0000000008009f80       0x14 Drivers/STM32F7xx_HAL_Driver/Src/stm32f7xx_hal_tim.o
                0x0000000008009f80                HAL_TIM_PWM_PulseFinishedCallback
 .text.HAL_TIM_TriggerCallback
                0x0000000008009f94       0x14 Drivers/STM32F7xx_HAL_Driver/Src/stm32f7xx_hal_tim.o
                0x0000000008009f94                HAL_TIM_TriggerCallback
 .text.TIM_Base_SetConfig
                0x0000000008009fa8      0x140 Drivers/STM32F7xx_HAL_Driver/Src/stm32f7xx_hal_tim.o
                0x0000000008009fa8                TIM_Base_SetConfig
 .text.TIM_SlaveTimer_SetConfig
                0x000000000800a0e8      0x110 Drivers/STM32F7xx_HAL_Driver/Src/stm32f7xx_hal_tim.o
 .text.TIM_TI1_ConfigInputStage
                0x000000000800a1f8       0x5e Drivers/STM32F7xx_HAL_Driver/Src/stm32f7xx_hal_tim.o
 .text.TIM_TI2_ConfigInputStage
                0x000000000800a256       0x60 Drivers/STM32F7xx_HAL_Driver/Src/stm32f7xx_hal_tim.o
 .text.TIM_ITRx_SetConfig
                0x000000000800a2b6       0x36 Drivers/STM32F7xx_HAL_Driver/Src/stm32f7xx_hal_tim.o
 .text.TIM_ETR_SetConfig
                0x000000000800a2ec       0x40 Drivers/STM32F7xx_HAL_Driver/Src/stm32f7xx_hal_tim.o
                0x000000000800a2ec                TIM_ETR_SetConfig
 .text.HAL_TIMEx_MasterConfigSynchronization
                0x000000000800a32c      0x11c Drivers/STM32F7xx_HAL_Driver/Src/stm32f7xx_hal_tim_ex.o
                0x000000000800a32c                HAL_TIMEx_MasterConfigSynchronization
 .text.HAL_TIMEx_CommutCallback
                0x000000000800a448       0x14 Drivers/STM32F7xx_HAL_Driver/Src/stm32f7xx_hal_tim_ex.o
                0x000000000800a448                HAL_TIMEx_CommutCallback
 .text.HAL_TIMEx_BreakCallback
                0x000000000800a45c       0x14 Drivers/STM32F7xx_HAL_Driver/Src/stm32f7xx_hal_tim_ex.o
                0x000000000800a45c                HAL_TIMEx_BreakCallback
 .text.HAL_TIMEx_Break2Callback
                0x000000000800a470       0x14 Drivers/STM32F7xx_HAL_Driver/Src/stm32f7xx_hal_tim_ex.o
                0x000000000800a470                HAL_TIMEx_Break2Callback
 .text.HAL_UART_Init
                0x000000000800a484       0x9c Drivers/STM32F7xx_HAL_Driver/Src/stm32f7xx_hal_uart.o
                0x000000000800a484                HAL_UART_Init
 .text.HAL_UART_Transmit
                0x000000000800a520      0x122 Drivers/STM32F7xx_HAL_Driver/Src/stm32f7xx_hal_uart.o
                0x000000000800a520                HAL_UART_Transmit
 *fill*         0x000000000800a642        0x2 
 .text.HAL_UART_Receive_IT
                0x000000000800a644      0x144 Drivers/STM32F7xx_HAL_Driver/Src/stm32f7xx_hal_uart.o
                0x000000000800a644                HAL_UART_Receive_IT
 .text.HAL_UART_IRQHandler
                0x000000000800a788      0x264 Drivers/STM32F7xx_HAL_Driver/Src/stm32f7xx_hal_uart.o
                0x000000000800a788                HAL_UART_IRQHandler
 .text.HAL_UART_TxCpltCallback
                0x000000000800a9ec       0x14 Drivers/STM32F7xx_HAL_Driver/Src/stm32f7xx_hal_uart.o
                0x000000000800a9ec                HAL_UART_TxCpltCallback
 .text.HAL_UART_ErrorCallback
                0x000000000800aa00       0x14 Drivers/STM32F7xx_HAL_Driver/Src/stm32f7xx_hal_uart.o
                0x000000000800aa00                HAL_UART_ErrorCallback
 .text.UART_SetConfig
                0x000000000800aa14      0x554 Drivers/STM32F7xx_HAL_Driver/Src/stm32f7xx_hal_uart.o
                0x000000000800aa14                UART_SetConfig
 .text.UART_AdvFeatureConfig
                0x000000000800af68      0x144 Drivers/STM32F7xx_HAL_Driver/Src/stm32f7xx_hal_uart.o
                0x000000000800af68                UART_AdvFeatureConfig
 .text.UART_CheckIdleState
                0x000000000800b0ac       0x5e Drivers/STM32F7xx_HAL_Driver/Src/stm32f7xx_hal_uart.o
                0x000000000800b0ac                UART_CheckIdleState
 .text.UART_WaitOnFlagUntilTimeout
                0x000000000800b10a       0xf6 Drivers/STM32F7xx_HAL_Driver/Src/stm32f7xx_hal_uart.o
                0x000000000800b10a                UART_WaitOnFlagUntilTimeout
 .text.UART_EndRxTransfer
                0x000000000800b200       0x40 Drivers/STM32F7xx_HAL_Driver/Src/stm32f7xx_hal_uart.o
 .text.UART_DMAAbortOnError
                0x000000000800b240       0x2c Drivers/STM32F7xx_HAL_Driver/Src/stm32f7xx_hal_uart.o
 .text.UART_EndTransmit_IT
                0x000000000800b26c       0x32 Drivers/STM32F7xx_HAL_Driver/Src/stm32f7xx_hal_uart.o
 .text.UART_RxISR_8BIT
                0x000000000800b29e       0xa6 Drivers/STM32F7xx_HAL_Driver/Src/stm32f7xx_hal_uart.o
 .text.UART_RxISR_16BIT
                0x000000000800b344       0xa6 Drivers/STM32F7xx_HAL_Driver/Src/stm32f7xx_hal_uart.o
 *fill*         0x000000000800b3ea        0x2 
 .text.FMC_SDRAM_Init
                0x000000000800b3ec       0xe4 Drivers/STM32F7xx_HAL_Driver/Src/stm32f7xx_ll_fmc.o
                0x000000000800b3ec                FMC_SDRAM_Init
 .text.FMC_SDRAM_Timing_Init
                0x000000000800b4d0      0x100 Drivers/STM32F7xx_HAL_Driver/Src/stm32f7xx_ll_fmc.o
                0x000000000800b4d0                FMC_SDRAM_Timing_Init
 .text.FMC_SDRAM_SendCommand
                0x000000000800b5d0       0x42 Drivers/STM32F7xx_HAL_Driver/Src/stm32f7xx_ll_fmc.o
                0x000000000800b5d0                FMC_SDRAM_SendCommand
 .text.FMC_SDRAM_ProgramRefreshRate
                0x000000000800b612       0x26 Drivers/STM32F7xx_HAL_Driver/Src/stm32f7xx_ll_fmc.o
                0x000000000800b612                FMC_SDRAM_ProgramRefreshRate
 .text.makeFreeRtosPriority
                0x000000000800b638       0x30 Middlewares/Third_Party/FreeRTOS/Source/CMSIS_RTOS/cmsis_os.o
 .text.osKernelStart
                0x000000000800b668        0xe Middlewares/Third_Party/FreeRTOS/Source/CMSIS_RTOS/cmsis_os.o
                0x000000000800b668                osKernelStart
 .text.osThreadCreate
                0x000000000800b676       0x98 Middlewares/Third_Party/FreeRTOS/Source/CMSIS_RTOS/cmsis_os.o
                0x000000000800b676                osThreadCreate
 .text.osDelay  0x000000000800b70e       0x28 Middlewares/Third_Party/FreeRTOS/Source/CMSIS_RTOS/cmsis_os.o
                0x000000000800b70e                osDelay
 .text.osMutexCreate
                0x000000000800b736       0x30 Middlewares/Third_Party/FreeRTOS/Source/CMSIS_RTOS/cmsis_os.o
                0x000000000800b736                osMutexCreate
 .text.osMessageCreate
                0x000000000800b766       0x52 Middlewares/Third_Party/FreeRTOS/Source/CMSIS_RTOS/cmsis_os.o
                0x000000000800b766                osMessageCreate
 .text.vListInitialise
                0x000000000800b7b8       0x40 Middlewares/Third_Party/FreeRTOS/Source/list.o
                0x000000000800b7b8                vListInitialise
 .text.vListInitialiseItem
                0x000000000800b7f8       0x1a Middlewares/Third_Party/FreeRTOS/Source/list.o
                0x000000000800b7f8                vListInitialiseItem
 .text.vListInsertEnd
                0x000000000800b812       0x48 Middlewares/Third_Party/FreeRTOS/Source/list.o
                0x000000000800b812                vListInsertEnd
 .text.vListInsert
                0x000000000800b85a       0x72 Middlewares/Third_Party/FreeRTOS/Source/list.o
                0x000000000800b85a                vListInsert
 .text.uxListRemove
                0x000000000800b8cc       0x54 Middlewares/Third_Party/FreeRTOS/Source/list.o
                0x000000000800b8cc                uxListRemove
 .text.xQueueGenericReset
                0x000000000800b920       0xd4 Middlewares/Third_Party/FreeRTOS/Source/queue.o
                0x000000000800b920                xQueueGenericReset
 .text.xQueueGenericCreateStatic
                0x000000000800b9f4       0xfa Middlewares/Third_Party/FreeRTOS/Source/queue.o
                0x000000000800b9f4                xQueueGenericCreateStatic
 .text.xQueueGenericCreate
                0x000000000800baee       0x82 Middlewares/Third_Party/FreeRTOS/Source/queue.o
                0x000000000800baee                xQueueGenericCreate
 .text.prvInitialiseNewQueue
                0x000000000800bb70       0x3e Middlewares/Third_Party/FreeRTOS/Source/queue.o
 .text.prvInitialiseMutex
                0x000000000800bbae       0x34 Middlewares/Third_Party/FreeRTOS/Source/queue.o
 .text.xQueueCreateMutex
                0x000000000800bbe2       0x30 Middlewares/Third_Party/FreeRTOS/Source/queue.o
                0x000000000800bbe2                xQueueCreateMutex
 .text.xQueueCreateMutexStatic
                0x000000000800bc12       0x36 Middlewares/Third_Party/FreeRTOS/Source/queue.o
                0x000000000800bc12                xQueueCreateMutexStatic
 .text.xQueueGenericSend
                0x000000000800bc48      0x204 Middlewares/Third_Party/FreeRTOS/Source/queue.o
                0x000000000800bc48                xQueueGenericSend
 .text.xQueueGenericSendFromISR
                0x000000000800be4c      0x138 Middlewares/Third_Party/FreeRTOS/Source/queue.o
                0x000000000800be4c                xQueueGenericSendFromISR
 .text.xQueueReceive
                0x000000000800bf84      0x1c4 Middlewares/Third_Party/FreeRTOS/Source/queue.o
                0x000000000800bf84                xQueueReceive
 .text.xQueueSemaphoreTake
                0x000000000800c148      0x220 Middlewares/Third_Party/FreeRTOS/Source/queue.o
                0x000000000800c148                xQueueSemaphoreTake
 .text.prvGetDisinheritPriorityAfterTimeout
                0x000000000800c368       0x30 Middlewares/Third_Party/FreeRTOS/Source/queue.o
 .text.prvCopyDataToQueue
                0x000000000800c398       0xd4 Middlewares/Third_Party/FreeRTOS/Source/queue.o
 .text.prvCopyDataFromQueue
                0x000000000800c46c       0x4c Middlewares/Third_Party/FreeRTOS/Source/queue.o
 .text.prvUnlockQueue
                0x000000000800c4b8       0xa4 Middlewares/Third_Party/FreeRTOS/Source/queue.o
 .text.prvIsQueueEmpty
                0x000000000800c55c       0x2c Middlewares/Third_Party/FreeRTOS/Source/queue.o
 .text.prvIsQueueFull
                0x000000000800c588       0x30 Middlewares/Third_Party/FreeRTOS/Source/queue.o
 .text.xTaskCreateStatic
                0x000000000800c5b8       0xc0 Middlewares/Third_Party/FreeRTOS/Source/tasks.o
                0x000000000800c5b8                xTaskCreateStatic
 .text.xTaskCreate
                0x000000000800c678       0x8a Middlewares/Third_Party/FreeRTOS/Source/tasks.o
                0x000000000800c678                xTaskCreate
 .text.prvInitialiseNewTask
                0x000000000800c702      0x126 Middlewares/Third_Party/FreeRTOS/Source/tasks.o
 .text.prvAddNewTaskToReadyList
                0x000000000800c828       0xd4 Middlewares/Third_Party/FreeRTOS/Source/tasks.o
 .text.vTaskDelete
                0x000000000800c8fc      0x120 Middlewares/Third_Party/FreeRTOS/Source/tasks.o
                0x000000000800c8fc                vTaskDelete
 .text.vTaskDelayUntil
                0x000000000800ca1c      0x100 Middlewares/Third_Party/FreeRTOS/Source/tasks.o
                0x000000000800ca1c                vTaskDelayUntil
 .text.vTaskDelay
                0x000000000800cb1c       0x6c Middlewares/Third_Party/FreeRTOS/Source/tasks.o
                0x000000000800cb1c                vTaskDelay
 .text.vTaskStartScheduler
                0x000000000800cb88       0xc4 Middlewares/Third_Party/FreeRTOS/Source/tasks.o
                0x000000000800cb88                vTaskStartScheduler
 .text.vTaskSuspendAll
                0x000000000800cc4c       0x1c Middlewares/Third_Party/FreeRTOS/Source/tasks.o
                0x000000000800cc4c                vTaskSuspendAll
 .text.xTaskResumeAll
                0x000000000800cc68      0x13c Middlewares/Third_Party/FreeRTOS/Source/tasks.o
                0x000000000800cc68                xTaskResumeAll
 .text.xTaskGetTickCount
                0x000000000800cda4       0x20 Middlewares/Third_Party/FreeRTOS/Source/tasks.o
                0x000000000800cda4                xTaskGetTickCount
 .text.xTaskIncrementTick
                0x000000000800cdc4      0x174 Middlewares/Third_Party/FreeRTOS/Source/tasks.o
                0x000000000800cdc4                xTaskIncrementTick
 .text.vTaskSwitchContext
                0x000000000800cf38      0x104 Middlewares/Third_Party/FreeRTOS/Source/tasks.o
                0x000000000800cf38                vTaskSwitchContext
 .text.vTaskPlaceOnEventList
                0x000000000800d03c       0x4c Middlewares/Third_Party/FreeRTOS/Source/tasks.o
                0x000000000800d03c                vTaskPlaceOnEventList
 .text.xTaskRemoveFromEventList
                0x000000000800d088       0xc8 Middlewares/Third_Party/FreeRTOS/Source/tasks.o
                0x000000000800d088                xTaskRemoveFromEventList
 .text.vTaskInternalSetTimeOutState
                0x000000000800d150       0x2c Middlewares/Third_Party/FreeRTOS/Source/tasks.o
                0x000000000800d150                vTaskInternalSetTimeOutState
 .text.xTaskCheckForTimeOut
                0x000000000800d17c       0xc8 Middlewares/Third_Party/FreeRTOS/Source/tasks.o
                0x000000000800d17c                xTaskCheckForTimeOut
 .text.vTaskMissedYield
                0x000000000800d244       0x18 Middlewares/Third_Party/FreeRTOS/Source/tasks.o
                0x000000000800d244                vTaskMissedYield
 .text.prvIdleTask
                0x000000000800d25c       0x34 Middlewares/Third_Party/FreeRTOS/Source/tasks.o
 .text.prvInitialiseTaskLists
                0x000000000800d290       0x80 Middlewares/Third_Party/FreeRTOS/Source/tasks.o
 .text.prvCheckTasksWaitingTermination
                0x000000000800d310       0x58 Middlewares/Third_Party/FreeRTOS/Source/tasks.o
 .text.prvDeleteTCB
                0x000000000800d368       0x60 Middlewares/Third_Party/FreeRTOS/Source/tasks.o
 .text.prvResetNextTaskUnblockTime
                0x000000000800d3c8       0x40 Middlewares/Third_Party/FreeRTOS/Source/tasks.o
 .text.xTaskGetSchedulerState
                0x000000000800d408       0x3c Middlewares/Third_Party/FreeRTOS/Source/tasks.o
                0x000000000800d408                xTaskGetSchedulerState
 .text.xTaskPriorityInherit
                0x000000000800d444      0x100 Middlewares/Third_Party/FreeRTOS/Source/tasks.o
                0x000000000800d444                xTaskPriorityInherit
 .text.xTaskPriorityDisinherit
                0x000000000800d544      0x110 Middlewares/Third_Party/FreeRTOS/Source/tasks.o
                0x000000000800d544                xTaskPriorityDisinherit
 .text.vTaskPriorityDisinheritAfterTimeout
                0x000000000800d654      0x138 Middlewares/Third_Party/FreeRTOS/Source/tasks.o
                0x000000000800d654                vTaskPriorityDisinheritAfterTimeout
 .text.pvTaskIncrementMutexHeldCount
                0x000000000800d78c       0x28 Middlewares/Third_Party/FreeRTOS/Source/tasks.o
                0x000000000800d78c                pvTaskIncrementMutexHeldCount
 .text.prvAddCurrentTaskToDelayedList
                0x000000000800d7b4       0xcc Middlewares/Third_Party/FreeRTOS/Source/tasks.o
 .text.pxPortInitialiseStack
                0x000000000800d880       0x68 Middlewares/Third_Party/FreeRTOS/Source/portable/GCC/ARM_CM7/r0p1/port.o
                0x000000000800d880                pxPortInitialiseStack
 .text.prvTaskExitError
                0x000000000800d8e8       0x5c Middlewares/Third_Party/FreeRTOS/Source/portable/GCC/ARM_CM7/r0p1/port.o
 *fill*         0x000000000800d944        0xc 
 .text.SVC_Handler
                0x000000000800d950       0x28 Middlewares/Third_Party/FreeRTOS/Source/portable/GCC/ARM_CM7/r0p1/port.o
                0x000000000800d950                SVC_Handler
 .text.prvPortStartFirstTask
                0x000000000800d978       0x28 Middlewares/Third_Party/FreeRTOS/Source/portable/GCC/ARM_CM7/r0p1/port.o
 .text.xPortStartScheduler
                0x000000000800d9a0       0xf8 Middlewares/Third_Party/FreeRTOS/Source/portable/GCC/ARM_CM7/r0p1/port.o
                0x000000000800d9a0                xPortStartScheduler
 .text.vPortEnterCritical
                0x000000000800da98       0x64 Middlewares/Third_Party/FreeRTOS/Source/portable/GCC/ARM_CM7/r0p1/port.o
                0x000000000800da98                vPortEnterCritical
 .text.vPortExitCritical
                0x000000000800dafc       0x54 Middlewares/Third_Party/FreeRTOS/Source/portable/GCC/ARM_CM7/r0p1/port.o
                0x000000000800dafc                vPortExitCritical
 .text.PendSV_Handler
                0x000000000800db50       0x68 Middlewares/Third_Party/FreeRTOS/Source/portable/GCC/ARM_CM7/r0p1/port.o
                0x000000000800db50                PendSV_Handler
 .text.SysTick_Handler
                0x000000000800dbb8       0x44 Middlewares/Third_Party/FreeRTOS/Source/portable/GCC/ARM_CM7/r0p1/port.o
                0x000000000800dbb8                SysTick_Handler
 .text.vPortSetupTimerInterrupt
                0x000000000800dbfc       0x48 Middlewares/Third_Party/FreeRTOS/Source/portable/GCC/ARM_CM7/r0p1/port.o
                0x000000000800dbfc                vPortSetupTimerInterrupt
 .text.vPortEnableVFP
                0x000000000800dc44       0x14 Middlewares/Third_Party/FreeRTOS/Source/portable/GCC/ARM_CM7/r0p1/port.o
 .text.vPortValidateInterruptPriority
                0x000000000800dc58       0x84 Middlewares/Third_Party/FreeRTOS/Source/portable/GCC/ARM_CM7/r0p1/port.o
                0x000000000800dc58                vPortValidateInterruptPriority
 .text.pvPortMalloc
                0x000000000800dcdc      0x198 Middlewares/Third_Party/FreeRTOS/Source/portable/MemMang/heap_4.o
                0x000000000800dcdc                pvPortMalloc
 .text.vPortFree
                0x000000000800de74       0xb8 Middlewares/Third_Party/FreeRTOS/Source/portable/MemMang/heap_4.o
                0x000000000800de74                vPortFree
 .text.prvHeapInit
                0x000000000800df2c       0xc4 Middlewares/Third_Party/FreeRTOS/Source/portable/MemMang/heap_4.o
 .text.prvInsertBlockIntoFreeList
                0x000000000800dff0       0xb4 Middlewares/Third_Party/FreeRTOS/Source/portable/MemMang/heap_4.o
 .text.__errno  0x000000000800e0a4        0xc d:/cours/eea-a2s1/language_c/info_indus_s2/stm32cubeide_1.5.1/stm32cubeide/plugins/com.st.stm32cube.ide.mcu.externaltools.gnu-tools-for-stm32.7-2018-q2-update.win32_1.5.0.202011040924/tools/bin/../lib/gcc/arm-none-eabi/7.3.1/../../../../arm-none-eabi/lib/thumb/v7e-m/fpv4-sp/hard\libc_nano.a(lib_a-errno.o)
                0x000000000800e0a4                __errno
 .text.__libc_init_array
                0x000000000800e0b0       0x48 d:/cours/eea-a2s1/language_c/info_indus_s2/stm32cubeide_1.5.1/stm32cubeide/plugins/com.st.stm32cube.ide.mcu.externaltools.gnu-tools-for-stm32.7-2018-q2-update.win32_1.5.0.202011040924/tools/bin/../lib/gcc/arm-none-eabi/7.3.1/../../../../arm-none-eabi/lib/thumb/v7e-m/fpv4-sp/hard\libc_nano.a(lib_a-init.o)
                0x000000000800e0b0                __libc_init_array
 .text.memcpy   0x000000000800e0f8       0x16 d:/cours/eea-a2s1/language_c/info_indus_s2/stm32cubeide_1.5.1/stm32cubeide/plugins/com.st.stm32cube.ide.mcu.externaltools.gnu-tools-for-stm32.7-2018-q2-update.win32_1.5.0.202011040924/tools/bin/../lib/gcc/arm-none-eabi/7.3.1/../../../../arm-none-eabi/lib/thumb/v7e-m/fpv4-sp/hard\libc_nano.a(lib_a-memcpy-stub.o)
                0x000000000800e0f8                memcpy
 .text.memset   0x000000000800e10e       0x10 d:/cours/eea-a2s1/language_c/info_indus_s2/stm32cubeide_1.5.1/stm32cubeide/plugins/com.st.stm32cube.ide.mcu.externaltools.gnu-tools-for-stm32.7-2018-q2-update.win32_1.5.0.202011040924/tools/bin/../lib/gcc/arm-none-eabi/7.3.1/../../../../arm-none-eabi/lib/thumb/v7e-m/fpv4-sp/hard\libc_nano.a(lib_a-memset.o)
                0x000000000800e10e                memset
 *fill*         0x000000000800e11e        0x2 
 .text.sprintf  0x000000000800e120       0x40 d:/cours/eea-a2s1/language_c/info_indus_s2/stm32cubeide_1.5.1/stm32cubeide/plugins/com.st.stm32cube.ide.mcu.externaltools.gnu-tools-for-stm32.7-2018-q2-update.win32_1.5.0.202011040924/tools/bin/../lib/gcc/arm-none-eabi/7.3.1/../../../../arm-none-eabi/lib/thumb/v7e-m/fpv4-sp/hard\libc_nano.a(lib_a-sprintf.o)
                0x000000000800e120                siprintf
                0x000000000800e120                sprintf
 .text.__ssputs_r
                0x000000000800e160       0xb4 d:/cours/eea-a2s1/language_c/info_indus_s2/stm32cubeide_1.5.1/stm32cubeide/plugins/com.st.stm32cube.ide.mcu.externaltools.gnu-tools-for-stm32.7-2018-q2-update.win32_1.5.0.202011040924/tools/bin/../lib/gcc/arm-none-eabi/7.3.1/../../../../arm-none-eabi/lib/thumb/v7e-m/fpv4-sp/hard\libc_nano.a(lib_a-nano-svfprintf.o)
                0x000000000800e160                __ssputs_r
 .text._svfprintf_r
                0x000000000800e214      0x1f0 d:/cours/eea-a2s1/language_c/info_indus_s2/stm32cubeide_1.5.1/stm32cubeide/plugins/com.st.stm32cube.ide.mcu.externaltools.gnu-tools-for-stm32.7-2018-q2-update.win32_1.5.0.202011040924/tools/bin/../lib/gcc/arm-none-eabi/7.3.1/../../../../arm-none-eabi/lib/thumb/v7e-m/fpv4-sp/hard\libc_nano.a(lib_a-nano-svfprintf.o)
                0x000000000800e214                _svfiprintf_r
                0x000000000800e214                _svfprintf_r
 .text._printf_common
                0x000000000800e404       0xea d:/cours/eea-a2s1/language_c/info_indus_s2/stm32cubeide_1.5.1/stm32cubeide/plugins/com.st.stm32cube.ide.mcu.externaltools.gnu-tools-for-stm32.7-2018-q2-update.win32_1.5.0.202011040924/tools/bin/../lib/gcc/arm-none-eabi/7.3.1/../../../../arm-none-eabi/lib/thumb/v7e-m/fpv4-sp/hard\libc_nano.a(lib_a-nano-vfprintf_i.o)
                0x000000000800e404                _printf_common
 *fill*         0x000000000800e4ee        0x2 
 .text._printf_i
                0x000000000800e4f0      0x224 d:/cours/eea-a2s1/language_c/info_indus_s2/stm32cubeide_1.5.1/stm32cubeide/plugins/com.st.stm32cube.ide.mcu.externaltools.gnu-tools-for-stm32.7-2018-q2-update.win32_1.5.0.202011040924/tools/bin/../lib/gcc/arm-none-eabi/7.3.1/../../../../arm-none-eabi/lib/thumb/v7e-m/fpv4-sp/hard\libc_nano.a(lib_a-nano-vfprintf_i.o)
                0x000000000800e4f0                _printf_i
 .text.memmove  0x000000000800e714       0x32 d:/cours/eea-a2s1/language_c/info_indus_s2/stm32cubeide_1.5.1/stm32cubeide/plugins/com.st.stm32cube.ide.mcu.externaltools.gnu-tools-for-stm32.7-2018-q2-update.win32_1.5.0.202011040924/tools/bin/../lib/gcc/arm-none-eabi/7.3.1/../../../../arm-none-eabi/lib/thumb/v7e-m/fpv4-sp/hard\libc_nano.a(lib_a-memmove.o)
                0x000000000800e714                memmove
 *fill*         0x000000000800e746        0x2 
 .text._free_r  0x000000000800e748       0x9c d:/cours/eea-a2s1/language_c/info_indus_s2/stm32cubeide_1.5.1/stm32cubeide/plugins/com.st.stm32cube.ide.mcu.externaltools.gnu-tools-for-stm32.7-2018-q2-update.win32_1.5.0.202011040924/tools/bin/../lib/gcc/arm-none-eabi/7.3.1/../../../../arm-none-eabi/lib/thumb/v7e-m/fpv4-sp/hard\libc_nano.a(lib_a-nano-freer.o)
                0x000000000800e748                _free_r
 .text._malloc_r
                0x000000000800e7e4       0xb4 d:/cours/eea-a2s1/language_c/info_indus_s2/stm32cubeide_1.5.1/stm32cubeide/plugins/com.st.stm32cube.ide.mcu.externaltools.gnu-tools-for-stm32.7-2018-q2-update.win32_1.5.0.202011040924/tools/bin/../lib/gcc/arm-none-eabi/7.3.1/../../../../arm-none-eabi/lib/thumb/v7e-m/fpv4-sp/hard\libc_nano.a(lib_a-nano-mallocr.o)
                0x000000000800e7e4                _malloc_r
 .text._realloc_r
                0x000000000800e898       0x4c d:/cours/eea-a2s1/language_c/info_indus_s2/stm32cubeide_1.5.1/stm32cubeide/plugins/com.st.stm32cube.ide.mcu.externaltools.gnu-tools-for-stm32.7-2018-q2-update.win32_1.5.0.202011040924/tools/bin/../lib/gcc/arm-none-eabi/7.3.1/../../../../arm-none-eabi/lib/thumb/v7e-m/fpv4-sp/hard\libc_nano.a(lib_a-nano-reallocr.o)
                0x000000000800e898                _realloc_r
 .text._sbrk_r  0x000000000800e8e4       0x20 d:/cours/eea-a2s1/language_c/info_indus_s2/stm32cubeide_1.5.1/stm32cubeide/plugins/com.st.stm32cube.ide.mcu.externaltools.gnu-tools-for-stm32.7-2018-q2-update.win32_1.5.0.202011040924/tools/bin/../lib/gcc/arm-none-eabi/7.3.1/../../../../arm-none-eabi/lib/thumb/v7e-m/fpv4-sp/hard\libc_nano.a(lib_a-sbrkr.o)
                0x000000000800e8e4                _sbrk_r
 .text.__malloc_lock
                0x000000000800e904        0x2 d:/cours/eea-a2s1/language_c/info_indus_s2/stm32cubeide_1.5.1/stm32cubeide/plugins/com.st.stm32cube.ide.mcu.externaltools.gnu-tools-for-stm32.7-2018-q2-update.win32_1.5.0.202011040924/tools/bin/../lib/gcc/arm-none-eabi/7.3.1/../../../../arm-none-eabi/lib/thumb/v7e-m/fpv4-sp/hard\libc_nano.a(lib_a-mlock.o)
                0x000000000800e904                __malloc_lock
 .text.__malloc_unlock
                0x000000000800e906        0x2 d:/cours/eea-a2s1/language_c/info_indus_s2/stm32cubeide_1.5.1/stm32cubeide/plugins/com.st.stm32cube.ide.mcu.externaltools.gnu-tools-for-stm32.7-2018-q2-update.win32_1.5.0.202011040924/tools/bin/../lib/gcc/arm-none-eabi/7.3.1/../../../../arm-none-eabi/lib/thumb/v7e-m/fpv4-sp/hard\libc_nano.a(lib_a-mlock.o)
                0x000000000800e906                __malloc_unlock
 .text._malloc_usable_size_r
                0x000000000800e908       0x10 d:/cours/eea-a2s1/language_c/info_indus_s2/stm32cubeide_1.5.1/stm32cubeide/plugins/com.st.stm32cube.ide.mcu.externaltools.gnu-tools-for-stm32.7-2018-q2-update.win32_1.5.0.202011040924/tools/bin/../lib/gcc/arm-none-eabi/7.3.1/../../../../arm-none-eabi/lib/thumb/v7e-m/fpv4-sp/hard\libc_nano.a(lib_a-nano-msizer.o)
                0x000000000800e908                _malloc_usable_size_r
 *(.glue_7)
 .glue_7        0x000000000800e918        0x0 linker stubs
 *(.glue_7t)
 .glue_7t       0x000000000800e918        0x0 linker stubs
 *(.eh_frame)
 .eh_frame      0x000000000800e918        0x0 d:/cours/eea-a2s1/language_c/info_indus_s2/stm32cubeide_1.5.1/stm32cubeide/plugins/com.st.stm32cube.ide.mcu.externaltools.gnu-tools-for-stm32.7-2018-q2-update.win32_1.5.0.202011040924/tools/bin/../lib/gcc/arm-none-eabi/7.3.1/thumb/v7e-m/fpv4-sp/hard/crtbegin.o
 *(.init)
 .init          0x000000000800e918        0x4 d:/cours/eea-a2s1/language_c/info_indus_s2/stm32cubeide_1.5.1/stm32cubeide/plugins/com.st.stm32cube.ide.mcu.externaltools.gnu-tools-for-stm32.7-2018-q2-update.win32_1.5.0.202011040924/tools/bin/../lib/gcc/arm-none-eabi/7.3.1/thumb/v7e-m/fpv4-sp/hard/crti.o
                0x000000000800e918                _init
 .init          0x000000000800e91c        0x8 d:/cours/eea-a2s1/language_c/info_indus_s2/stm32cubeide_1.5.1/stm32cubeide/plugins/com.st.stm32cube.ide.mcu.externaltools.gnu-tools-for-stm32.7-2018-q2-update.win32_1.5.0.202011040924/tools/bin/../lib/gcc/arm-none-eabi/7.3.1/thumb/v7e-m/fpv4-sp/hard/crtn.o
 *(.fini)
 .fini          0x000000000800e924        0x4 d:/cours/eea-a2s1/language_c/info_indus_s2/stm32cubeide_1.5.1/stm32cubeide/plugins/com.st.stm32cube.ide.mcu.externaltools.gnu-tools-for-stm32.7-2018-q2-update.win32_1.5.0.202011040924/tools/bin/../lib/gcc/arm-none-eabi/7.3.1/thumb/v7e-m/fpv4-sp/hard/crti.o
                0x000000000800e924                _fini
 .fini          0x000000000800e928        0x8 d:/cours/eea-a2s1/language_c/info_indus_s2/stm32cubeide_1.5.1/stm32cubeide/plugins/com.st.stm32cube.ide.mcu.externaltools.gnu-tools-for-stm32.7-2018-q2-update.win32_1.5.0.202011040924/tools/bin/../lib/gcc/arm-none-eabi/7.3.1/thumb/v7e-m/fpv4-sp/hard/crtn.o
                0x000000000800e930                . = ALIGN (0x4)
                0x000000000800e930                _etext = .

.vfp11_veneer   0x000000000800e930        0x0
 .vfp11_veneer  0x000000000800e930        0x0 linker stubs

.v4_bx          0x000000000800e930        0x0
 .v4_bx         0x000000000800e930        0x0 linker stubs

.iplt           0x000000000800e930        0x0
 .iplt          0x000000000800e930        0x0 d:/cours/eea-a2s1/language_c/info_indus_s2/stm32cubeide_1.5.1/stm32cubeide/plugins/com.st.stm32cube.ide.mcu.externaltools.gnu-tools-for-stm32.7-2018-q2-update.win32_1.5.0.202011040924/tools/bin/../lib/gcc/arm-none-eabi/7.3.1/thumb/v7e-m/fpv4-sp/hard/crtbegin.o

.rodata         0x000000000800e930     0x2074
                0x000000000800e930                . = ALIGN (0x4)
 *(.rodata)
 .rodata        0x000000000800e930       0xeb Core/Src/main.o
 *fill*         0x000000000800ea1b        0x1 
 .rodata        0x000000000800ea1c        0x5 Middlewares/Third_Party/FreeRTOS/Source/tasks.o
 *(.rodata*)
 *fill*         0x000000000800ea21        0x3 
 .rodata.Font24_Table
                0x000000000800ea24     0x1ab8 Core/Src/stm32746g_discovery_lcd.o
                0x000000000800ea24                Font24_Table
 .rodata.Font12_Table
                0x00000000080104dc      0x474 Core/Src/stm32746g_discovery_lcd.o
                0x00000000080104dc                Font12_Table
 .rodata.AHBPrescTable
                0x0000000008010950       0x10 Core/Src/system_stm32f7xx.o
                0x0000000008010950                AHBPrescTable
 .rodata.APBPrescTable
                0x0000000008010960        0x8 Core/Src/system_stm32f7xx.o
                0x0000000008010960                APBPrescTable
 .rodata.flagBitshiftOffset.9747
                0x0000000008010968        0x8 Drivers/STM32F7xx_HAL_Driver/Src/stm32f7xx_hal_dma.o
 .rodata._svfprintf_r.str1.1
                0x0000000008010970       0x11 d:/cours/eea-a2s1/language_c/info_indus_s2/stm32cubeide_1.5.1/stm32cubeide/plugins/com.st.stm32cube.ide.mcu.externaltools.gnu-tools-for-stm32.7-2018-q2-update.win32_1.5.0.202011040924/tools/bin/../lib/gcc/arm-none-eabi/7.3.1/../../../../arm-none-eabi/lib/thumb/v7e-m/fpv4-sp/hard\libc_nano.a(lib_a-nano-svfprintf.o)
 .rodata._printf_i.str1.1
                0x0000000008010981       0x22 d:/cours/eea-a2s1/language_c/info_indus_s2/stm32cubeide_1.5.1/stm32cubeide/plugins/com.st.stm32cube.ide.mcu.externaltools.gnu-tools-for-stm32.7-2018-q2-update.win32_1.5.0.202011040924/tools/bin/../lib/gcc/arm-none-eabi/7.3.1/../../../../arm-none-eabi/lib/thumb/v7e-m/fpv4-sp/hard\libc_nano.a(lib_a-nano-vfprintf_i.o)
                0x00000000080109a4                . = ALIGN (0x4)
 *fill*         0x00000000080109a3        0x1 

.ARM.extab      0x00000000080109a4        0x0
                0x00000000080109a4                . = ALIGN (0x4)
 *(.ARM.extab* .gnu.linkonce.armextab.*)
                0x00000000080109a4                . = ALIGN (0x4)

.ARM            0x00000000080109a4        0x8
                0x00000000080109a4                . = ALIGN (0x4)
                0x00000000080109a4                __exidx_start = .
 *(.ARM.exidx*)
 .ARM.exidx     0x00000000080109a4        0x8 d:/cours/eea-a2s1/language_c/info_indus_s2/stm32cubeide_1.5.1/stm32cubeide/plugins/com.st.stm32cube.ide.mcu.externaltools.gnu-tools-for-stm32.7-2018-q2-update.win32_1.5.0.202011040924/tools/bin/../lib/gcc/arm-none-eabi/7.3.1/thumb/v7e-m/fpv4-sp/hard\libgcc.a(_udivmoddi4.o)
                0x00000000080109ac                __exidx_end = .
                0x00000000080109ac                . = ALIGN (0x4)

.rel.dyn        0x00000000080109ac        0x0
 .rel.iplt      0x00000000080109ac        0x0 d:/cours/eea-a2s1/language_c/info_indus_s2/stm32cubeide_1.5.1/stm32cubeide/plugins/com.st.stm32cube.ide.mcu.externaltools.gnu-tools-for-stm32.7-2018-q2-update.win32_1.5.0.202011040924/tools/bin/../lib/gcc/arm-none-eabi/7.3.1/thumb/v7e-m/fpv4-sp/hard/crtbegin.o

.preinit_array  0x00000000080109ac        0x0
                0x00000000080109ac                . = ALIGN (0x4)
                0x00000000080109ac                PROVIDE (__preinit_array_start = .)
 *(.preinit_array*)
                0x00000000080109ac                PROVIDE (__preinit_array_end = .)
                0x00000000080109ac                . = ALIGN (0x4)

.init_array     0x00000000080109ac        0x4
                0x00000000080109ac                . = ALIGN (0x4)
                0x00000000080109ac                PROVIDE (__init_array_start = .)
 *(SORT_BY_NAME(.init_array.*))
 *(.init_array*)
 .init_array    0x00000000080109ac        0x4 d:/cours/eea-a2s1/language_c/info_indus_s2/stm32cubeide_1.5.1/stm32cubeide/plugins/com.st.stm32cube.ide.mcu.externaltools.gnu-tools-for-stm32.7-2018-q2-update.win32_1.5.0.202011040924/tools/bin/../lib/gcc/arm-none-eabi/7.3.1/thumb/v7e-m/fpv4-sp/hard/crtbegin.o
                0x00000000080109b0                PROVIDE (__init_array_end = .)
                0x00000000080109b0                . = ALIGN (0x4)

.fini_array     0x00000000080109b0        0x4
                0x00000000080109b0                . = ALIGN (0x4)
                [!provide]                        PROVIDE (__fini_array_start = .)
 *(SORT_BY_NAME(.fini_array.*))
 *(.fini_array*)
 .fini_array    0x00000000080109b0        0x4 d:/cours/eea-a2s1/language_c/info_indus_s2/stm32cubeide_1.5.1/stm32cubeide/plugins/com.st.stm32cube.ide.mcu.externaltools.gnu-tools-for-stm32.7-2018-q2-update.win32_1.5.0.202011040924/tools/bin/../lib/gcc/arm-none-eabi/7.3.1/thumb/v7e-m/fpv4-sp/hard/crtbegin.o
                [!provide]                        PROVIDE (__fini_array_end = .)
                0x00000000080109b4                . = ALIGN (0x4)
                0x00000000080109b4                _sidata = LOADADDR (.data)

.data           0x0000000020000000       0xb0 load address 0x00000000080109b4
                0x0000000020000000                . = ALIGN (0x4)
                0x0000000020000000                _sdata = .
 *(.data)
 *(.data*)
 .data.ft5336_ts_drv
                0x0000000020000000       0x28 Core/Src/ft5336.o
                0x0000000020000000                ft5336_ts_drv
 .data.Font24   0x0000000020000028        0x8 Core/Src/stm32746g_discovery_lcd.o
                0x0000000020000028                Font24
 .data.Font12   0x0000000020000030        0x8 Core/Src/stm32746g_discovery_lcd.o
                0x0000000020000030                Font12
 .data.sdramstatus.9663
                0x0000000020000038        0x1 Core/Src/stm32746g_discovery_sdram.o
 *fill*         0x0000000020000039        0x3 
 .data.SystemCoreClock
                0x000000002000003c        0x4 Core/Src/system_stm32f7xx.o
                0x000000002000003c                SystemCoreClock
 .data.uwTickPrio
                0x0000000020000040        0x4 Drivers/STM32F7xx_HAL_Driver/Src/stm32f7xx_hal.o
                0x0000000020000040                uwTickPrio
 .data.uwTickFreq
                0x0000000020000044        0x1 Drivers/STM32F7xx_HAL_Driver/Src/stm32f7xx_hal.o
                0x0000000020000044                uwTickFreq
 *fill*         0x0000000020000045        0x3 
 .data.uxCriticalNesting
                0x0000000020000048        0x4 Middlewares/Third_Party/FreeRTOS/Source/portable/GCC/ARM_CM7/r0p1/port.o
 .data._impure_ptr
                0x000000002000004c        0x4 d:/cours/eea-a2s1/language_c/info_indus_s2/stm32cubeide_1.5.1/stm32cubeide/plugins/com.st.stm32cube.ide.mcu.externaltools.gnu-tools-for-stm32.7-2018-q2-update.win32_1.5.0.202011040924/tools/bin/../lib/gcc/arm-none-eabi/7.3.1/../../../../arm-none-eabi/lib/thumb/v7e-m/fpv4-sp/hard\libc_nano.a(lib_a-impure.o)
                0x000000002000004c                _impure_ptr
 .data.impure_data
                0x0000000020000050       0x60 d:/cours/eea-a2s1/language_c/info_indus_s2/stm32cubeide_1.5.1/stm32cubeide/plugins/com.st.stm32cube.ide.mcu.externaltools.gnu-tools-for-stm32.7-2018-q2-update.win32_1.5.0.202011040924/tools/bin/../lib/gcc/arm-none-eabi/7.3.1/../../../../arm-none-eabi/lib/thumb/v7e-m/fpv4-sp/hard\libc_nano.a(lib_a-impure.o)
 *(.RamFunc)
 *(.RamFunc*)
                0x00000000200000b0                . = ALIGN (0x4)
                0x00000000200000b0                _edata = .

.igot.plt       0x00000000200000b0        0x0 load address 0x0000000008010a64
 .igot.plt      0x00000000200000b0        0x0 d:/cours/eea-a2s1/language_c/info_indus_s2/stm32cubeide_1.5.1/stm32cubeide/plugins/com.st.stm32cube.ide.mcu.externaltools.gnu-tools-for-stm32.7-2018-q2-update.win32_1.5.0.202011040924/tools/bin/../lib/gcc/arm-none-eabi/7.3.1/thumb/v7e-m/fpv4-sp/hard/crtbegin.o
                0x00000000200000b0                . = ALIGN (0x4)

.bss            0x00000000200000b0     0x8c78 load address 0x0000000008010a64
                0x00000000200000b0                _sbss = .
                0x00000000200000b0                __bss_start__ = _sbss
 *(.bss)
 .bss           0x00000000200000b0       0x1c d:/cours/eea-a2s1/language_c/info_indus_s2/stm32cubeide_1.5.1/stm32cubeide/plugins/com.st.stm32cube.ide.mcu.externaltools.gnu-tools-for-stm32.7-2018-q2-update.win32_1.5.0.202011040924/tools/bin/../lib/gcc/arm-none-eabi/7.3.1/thumb/v7e-m/fpv4-sp/hard/crtbegin.o
 *(.bss*)
 .bss.xIdleTaskTCBBuffer
                0x00000000200000cc       0x58 Core/Src/freertos.o
 .bss.xIdleStack
                0x0000000020000124      0x200 Core/Src/freertos.o
 .bss.ft5336_handle
                0x0000000020000324        0x3 Core/Src/ft5336.o
 *fill*         0x0000000020000327        0x1 
 .bss.coord.5529
                0x0000000020000328        0x2 Core/Src/ft5336.o
 *fill*         0x000000002000032a        0x2 
 .bss.TS_State.12411
                0x000000002000032c       0x2c Core/Src/main.o
 .bss.hI2cAudioHandler
                0x0000000020000358       0x4c Core/Src/stm32746g_discovery.o
 .bss.hDma2dHandler
                0x00000000200003a4       0x40 Core/Src/stm32746g_discovery_lcd.o
 .bss.ActiveLayer
                0x00000000200003e4        0x4 Core/Src/stm32746g_discovery_lcd.o
 .bss.DrawProp  0x00000000200003e8       0x18 Core/Src/stm32746g_discovery_lcd.o
 .bss.periph_clk_init_struct.10250
                0x0000000020000400       0x84 Core/Src/stm32746g_discovery_lcd.o
 .bss.Timing    0x0000000020000484       0x1c Core/Src/stm32746g_discovery_sdram.o
 .bss.Command   0x00000000200004a0       0x10 Core/Src/stm32746g_discovery_sdram.o
 .bss.dma_handle.9699
                0x00000000200004b0       0x60 Core/Src/stm32746g_discovery_sdram.o
 .bss.tsDriver  0x0000000020000510        0x4 Core/Src/stm32746g_discovery_ts.o
 .bss.tsXBoundary
                0x0000000020000514        0x2 Core/Src/stm32746g_discovery_ts.o
 .bss.tsYBoundary
                0x0000000020000516        0x2 Core/Src/stm32746g_discovery_ts.o
 .bss.tsOrientation
                0x0000000020000518        0x1 Core/Src/stm32746g_discovery_ts.o
 .bss.I2cAddress
                0x0000000020000519        0x1 Core/Src/stm32746g_discovery_ts.o
 *fill*         0x000000002000051a        0x2 
 .bss._x.9815   0x000000002000051c       0x14 Core/Src/stm32746g_discovery_ts.o
 .bss._y.9816   0x0000000020000530       0x14 Core/Src/stm32746g_discovery_ts.o
 .bss.FMC_Initialized
                0x0000000020000544        0x4 Core/Src/stm32f7xx_hal_msp.o
 .bss.__sbrk_heap_end
                0x0000000020000548        0x4 Core/Src/sysmem.o
 .bss.pxCurrentTCB
                0x000000002000054c        0x4 Middlewares/Third_Party/FreeRTOS/Source/tasks.o
                0x000000002000054c                pxCurrentTCB
 .bss.pxReadyTasksLists
                0x0000000020000550       0x8c Middlewares/Third_Party/FreeRTOS/Source/tasks.o
 .bss.xDelayedTaskList1
                0x00000000200005dc       0x14 Middlewares/Third_Party/FreeRTOS/Source/tasks.o
 .bss.xDelayedTaskList2
                0x00000000200005f0       0x14 Middlewares/Third_Party/FreeRTOS/Source/tasks.o
 .bss.pxDelayedTaskList
                0x0000000020000604        0x4 Middlewares/Third_Party/FreeRTOS/Source/tasks.o
 .bss.pxOverflowDelayedTaskList
                0x0000000020000608        0x4 Middlewares/Third_Party/FreeRTOS/Source/tasks.o
 .bss.xPendingReadyList
                0x000000002000060c       0x14 Middlewares/Third_Party/FreeRTOS/Source/tasks.o
 .bss.xTasksWaitingTermination
                0x0000000020000620       0x14 Middlewares/Third_Party/FreeRTOS/Source/tasks.o
 .bss.uxDeletedTasksWaitingCleanUp
                0x0000000020000634        0x4 Middlewares/Third_Party/FreeRTOS/Source/tasks.o
 .bss.xSuspendedTaskList
                0x0000000020000638       0x14 Middlewares/Third_Party/FreeRTOS/Source/tasks.o
 .bss.uxCurrentNumberOfTasks
                0x000000002000064c        0x4 Middlewares/Third_Party/FreeRTOS/Source/tasks.o
 .bss.xTickCount
                0x0000000020000650        0x4 Middlewares/Third_Party/FreeRTOS/Source/tasks.o
 .bss.uxTopReadyPriority
                0x0000000020000654        0x4 Middlewares/Third_Party/FreeRTOS/Source/tasks.o
 .bss.xSchedulerRunning
                0x0000000020000658        0x4 Middlewares/Third_Party/FreeRTOS/Source/tasks.o
 .bss.uxPendedTicks
                0x000000002000065c        0x4 Middlewares/Third_Party/FreeRTOS/Source/tasks.o
 .bss.xYieldPending
                0x0000000020000660        0x4 Middlewares/Third_Party/FreeRTOS/Source/tasks.o
 .bss.xNumOfOverflows
                0x0000000020000664        0x4 Middlewares/Third_Party/FreeRTOS/Source/tasks.o
 .bss.uxTaskNumber
                0x0000000020000668        0x4 Middlewares/Third_Party/FreeRTOS/Source/tasks.o
 .bss.xNextTaskUnblockTime
                0x000000002000066c        0x4 Middlewares/Third_Party/FreeRTOS/Source/tasks.o
 .bss.xIdleTaskHandle
                0x0000000020000670        0x4 Middlewares/Third_Party/FreeRTOS/Source/tasks.o
 .bss.uxSchedulerSuspended
                0x0000000020000674        0x4 Middlewares/Third_Party/FreeRTOS/Source/tasks.o
 .bss.ucMaxSysCallPriority
                0x0000000020000678        0x1 Middlewares/Third_Party/FreeRTOS/Source/portable/GCC/ARM_CM7/r0p1/port.o
 *fill*         0x0000000020000679        0x3 
 .bss.ulMaxPRIGROUPValue
                0x000000002000067c        0x4 Middlewares/Third_Party/FreeRTOS/Source/portable/GCC/ARM_CM7/r0p1/port.o
 .bss.ucHeap    0x0000000020000680     0x8000 Middlewares/Third_Party/FreeRTOS/Source/portable/MemMang/heap_4.o
 .bss.xStart    0x0000000020008680        0x8 Middlewares/Third_Party/FreeRTOS/Source/portable/MemMang/heap_4.o
 .bss.pxEnd     0x0000000020008688        0x4 Middlewares/Third_Party/FreeRTOS/Source/portable/MemMang/heap_4.o
 .bss.xFreeBytesRemaining
                0x000000002000868c        0x4 Middlewares/Third_Party/FreeRTOS/Source/portable/MemMang/heap_4.o
 .bss.xMinimumEverFreeBytesRemaining
                0x0000000020008690        0x4 Middlewares/Third_Party/FreeRTOS/Source/portable/MemMang/heap_4.o
 .bss.xBlockAllocatedBit
                0x0000000020008694        0x4 Middlewares/Third_Party/FreeRTOS/Source/portable/MemMang/heap_4.o
 .bss.__malloc_free_list
                0x0000000020008698        0x4 d:/cours/eea-a2s1/language_c/info_indus_s2/stm32cubeide_1.5.1/stm32cubeide/plugins/com.st.stm32cube.ide.mcu.externaltools.gnu-tools-for-stm32.7-2018-q2-update.win32_1.5.0.202011040924/tools/bin/../lib/gcc/arm-none-eabi/7.3.1/../../../../arm-none-eabi/lib/thumb/v7e-m/fpv4-sp/hard\libc_nano.a(lib_a-nano-mallocr.o)
                0x0000000020008698                __malloc_free_list
 .bss.__malloc_sbrk_start
                0x000000002000869c        0x4 d:/cours/eea-a2s1/language_c/info_indus_s2/stm32cubeide_1.5.1/stm32cubeide/plugins/com.st.stm32cube.ide.mcu.externaltools.gnu-tools-for-stm32.7-2018-q2-update.win32_1.5.0.202011040924/tools/bin/../lib/gcc/arm-none-eabi/7.3.1/../../../../arm-none-eabi/lib/thumb/v7e-m/fpv4-sp/hard\libc_nano.a(lib_a-nano-mallocr.o)
                0x000000002000869c                __malloc_sbrk_start
 *(COMMON)
 COMMON         0x00000000200086a0      0x564 Core/Src/main.o
                0x00000000200086a0                defaultTaskHandle
                0x00000000200086a4                hi2c3
                0x00000000200086f0                huart7
                0x0000000020008770                htim8
                0x00000000200087b0                hi2c1
                0x00000000200087fc                pos
                0x0000000020008804                htim5
                0x0000000020008844                myTask05Handle
                0x0000000020008848                myTask04Handle
                0x000000002000884c                htim3
                0x000000002000888c                hltdc
                0x0000000020008934                hadc1
                0x000000002000897c                hadc3
                0x00000000200089c4                huart1
                0x0000000020008a44                hdac
                0x0000000020008a58                MutexEcranHandle
                0x0000000020008a5c                hrtc
                0x0000000020008a7c                htim1
                0x0000000020008abc                huart6
                0x0000000020008b3c                hdma2d
                0x0000000020008b7c                zqsdHandle
                0x0000000020008b80                htim2
                0x0000000020008bc0                hsdram1
                0x0000000020008bf4                rxbuffer
                0x0000000020008c00                myTask06Handle
 COMMON         0x0000000020008c04       0xa8 Core/Src/stm32746g_discovery_lcd.o
                0x0000000020008c04                hLtdcHandler
 COMMON         0x0000000020008cac       0x34 Core/Src/stm32746g_discovery_sdram.o
                0x0000000020008cac                sdramHandle
 COMMON         0x0000000020008ce0       0x40 Core/Src/stm32f7xx_hal_timebase_tim.o
                0x0000000020008ce0                htim6
 COMMON         0x0000000020008d20        0x4 Drivers/STM32F7xx_HAL_Driver/Src/stm32f7xx_hal.o
                0x0000000020008d20                uwTick
 COMMON         0x0000000020008d24        0x4 d:/cours/eea-a2s1/language_c/info_indus_s2/stm32cubeide_1.5.1/stm32cubeide/plugins/com.st.stm32cube.ide.mcu.externaltools.gnu-tools-for-stm32.7-2018-q2-update.win32_1.5.0.202011040924/tools/bin/../lib/gcc/arm-none-eabi/7.3.1/../../../../arm-none-eabi/lib/thumb/v7e-m/fpv4-sp/hard\libc_nano.a(lib_a-reent.o)
                0x0000000020008d24                errno
                0x0000000020008d28                . = ALIGN (0x4)
                0x0000000020008d28                _ebss = .
                0x0000000020008d28                __bss_end__ = _ebss

._user_heap_stack
                0x0000000020008d28      0x600 load address 0x0000000008010a64
                0x0000000020008d28                . = ALIGN (0x8)
                [!provide]                        PROVIDE (end = .)
                0x0000000020008d28                PROVIDE (_end = .)
                0x0000000020008f28                . = (. + _Min_Heap_Size)
 *fill*         0x0000000020008d28      0x200 
                0x0000000020009328                . = (. + _Min_Stack_Size)
 *fill*         0x0000000020008f28      0x400 
                0x0000000020009328                . = ALIGN (0x8)

/DISCARD/
 libc.a(*)
 libm.a(*)
 libgcc.a(*)

.ARM.attributes
                0x0000000000000000       0x30
 *(.ARM.attributes)
 .ARM.attributes
                0x0000000000000000       0x22 d:/cours/eea-a2s1/language_c/info_indus_s2/stm32cubeide_1.5.1/stm32cubeide/plugins/com.st.stm32cube.ide.mcu.externaltools.gnu-tools-for-stm32.7-2018-q2-update.win32_1.5.0.202011040924/tools/bin/../lib/gcc/arm-none-eabi/7.3.1/thumb/v7e-m/fpv4-sp/hard/crti.o
 .ARM.attributes
                0x0000000000000022       0x34 d:/cours/eea-a2s1/language_c/info_indus_s2/stm32cubeide_1.5.1/stm32cubeide/plugins/com.st.stm32cube.ide.mcu.externaltools.gnu-tools-for-stm32.7-2018-q2-update.win32_1.5.0.202011040924/tools/bin/../lib/gcc/arm-none-eabi/7.3.1/thumb/v7e-m/fpv4-sp/hard/crtbegin.o
 .ARM.attributes
                0x0000000000000056       0x39 Core/Src/freertos.o
 .ARM.attributes
                0x000000000000008f       0x39 Core/Src/ft5336.o
 .ARM.attributes
                0x00000000000000c8       0x39 Core/Src/main.o
 .ARM.attributes
                0x0000000000000101       0x39 Core/Src/stm32746g_discovery.o
 .ARM.attributes
                0x000000000000013a       0x39 Core/Src/stm32746g_discovery_lcd.o
 .ARM.attributes
                0x0000000000000173       0x39 Core/Src/stm32746g_discovery_sdram.o
 .ARM.attributes
                0x00000000000001ac       0x39 Core/Src/stm32746g_discovery_ts.o
 .ARM.attributes
                0x00000000000001e5       0x39 Core/Src/stm32f7xx_hal_msp.o
 .ARM.attributes
                0x000000000000021e       0x39 Core/Src/stm32f7xx_hal_timebase_tim.o
 .ARM.attributes
                0x0000000000000257       0x39 Core/Src/stm32f7xx_it.o
 .ARM.attributes
                0x0000000000000290       0x39 Core/Src/sysmem.o
 .ARM.attributes
                0x00000000000002c9       0x39 Core/Src/system_stm32f7xx.o
 .ARM.attributes
                0x0000000000000302       0x21 Core/Startup/startup_stm32f746nghx.o
 .ARM.attributes
                0x0000000000000323       0x39 Drivers/STM32F7xx_HAL_Driver/Src/stm32f7xx_hal.o
 .ARM.attributes
                0x000000000000035c       0x39 Drivers/STM32F7xx_HAL_Driver/Src/stm32f7xx_hal_adc.o
 .ARM.attributes
                0x0000000000000395       0x39 Drivers/STM32F7xx_HAL_Driver/Src/stm32f7xx_hal_cortex.o
 .ARM.attributes
                0x00000000000003ce       0x39 Drivers/STM32F7xx_HAL_Driver/Src/stm32f7xx_hal_dac.o
 .ARM.attributes
                0x0000000000000407       0x39 Drivers/STM32F7xx_HAL_Driver/Src/stm32f7xx_hal_dac_ex.o
 .ARM.attributes
                0x0000000000000440       0x39 Drivers/STM32F7xx_HAL_Driver/Src/stm32f7xx_hal_dma.o
 .ARM.attributes
                0x0000000000000479       0x39 Drivers/STM32F7xx_HAL_Driver/Src/stm32f7xx_hal_dma2d.o
 .ARM.attributes
                0x00000000000004b2       0x39 Drivers/STM32F7xx_HAL_Driver/Src/stm32f7xx_hal_gpio.o
 .ARM.attributes
                0x00000000000004eb       0x39 Drivers/STM32F7xx_HAL_Driver/Src/stm32f7xx_hal_i2c.o
 .ARM.attributes
                0x0000000000000524       0x39 Drivers/STM32F7xx_HAL_Driver/Src/stm32f7xx_hal_i2c_ex.o
 .ARM.attributes
                0x000000000000055d       0x39 Drivers/STM32F7xx_HAL_Driver/Src/stm32f7xx_hal_ltdc.o
 .ARM.attributes
                0x0000000000000596       0x39 Drivers/STM32F7xx_HAL_Driver/Src/stm32f7xx_hal_pwr.o
 .ARM.attributes
                0x00000000000005cf       0x39 Drivers/STM32F7xx_HAL_Driver/Src/stm32f7xx_hal_pwr_ex.o
 .ARM.attributes
                0x0000000000000608       0x39 Drivers/STM32F7xx_HAL_Driver/Src/stm32f7xx_hal_rcc.o
 .ARM.attributes
                0x0000000000000641       0x39 Drivers/STM32F7xx_HAL_Driver/Src/stm32f7xx_hal_rcc_ex.o
 .ARM.attributes
                0x000000000000067a       0x39 Drivers/STM32F7xx_HAL_Driver/Src/stm32f7xx_hal_rtc.o
 .ARM.attributes
                0x00000000000006b3       0x39 Drivers/STM32F7xx_HAL_Driver/Src/stm32f7xx_hal_rtc_ex.o
 .ARM.attributes
                0x00000000000006ec       0x39 Drivers/STM32F7xx_HAL_Driver/Src/stm32f7xx_hal_sdram.o
 .ARM.attributes
                0x0000000000000725       0x39 Drivers/STM32F7xx_HAL_Driver/Src/stm32f7xx_hal_tim.o
 .ARM.attributes
                0x000000000000075e       0x39 Drivers/STM32F7xx_HAL_Driver/Src/stm32f7xx_hal_tim_ex.o
 .ARM.attributes
                0x0000000000000797       0x39 Drivers/STM32F7xx_HAL_Driver/Src/stm32f7xx_hal_uart.o
 .ARM.attributes
                0x00000000000007d0       0x39 Drivers/STM32F7xx_HAL_Driver/Src/stm32f7xx_ll_fmc.o
 .ARM.attributes
                0x0000000000000809       0x39 Middlewares/Third_Party/FreeRTOS/Source/CMSIS_RTOS/cmsis_os.o
 .ARM.attributes
                0x0000000000000842       0x39 Middlewares/Third_Party/FreeRTOS/Source/list.o
 .ARM.attributes
                0x000000000000087b       0x39 Middlewares/Third_Party/FreeRTOS/Source/queue.o
 .ARM.attributes
                0x00000000000008b4       0x39 Middlewares/Third_Party/FreeRTOS/Source/tasks.o
 .ARM.attributes
                0x00000000000008ed       0x39 Middlewares/Third_Party/FreeRTOS/Source/portable/GCC/ARM_CM7/r0p1/port.o
 .ARM.attributes
                0x0000000000000926       0x39 Middlewares/Third_Party/FreeRTOS/Source/portable/MemMang/heap_4.o
 .ARM.attributes
                0x000000000000095f       0x34 d:/cours/eea-a2s1/language_c/info_indus_s2/stm32cubeide_1.5.1/stm32cubeide/plugins/com.st.stm32cube.ide.mcu.externaltools.gnu-tools-for-stm32.7-2018-q2-update.win32_1.5.0.202011040924/tools/bin/../lib/gcc/arm-none-eabi/7.3.1/../../../../arm-none-eabi/lib/thumb/v7e-m/fpv4-sp/hard\libc_nano.a(lib_a-errno.o)
 .ARM.attributes
                0x0000000000000993       0x34 d:/cours/eea-a2s1/language_c/info_indus_s2/stm32cubeide_1.5.1/stm32cubeide/plugins/com.st.stm32cube.ide.mcu.externaltools.gnu-tools-for-stm32.7-2018-q2-update.win32_1.5.0.202011040924/tools/bin/../lib/gcc/arm-none-eabi/7.3.1/../../../../arm-none-eabi/lib/thumb/v7e-m/fpv4-sp/hard\libc_nano.a(lib_a-impure.o)
 .ARM.attributes
                0x00000000000009c7       0x34 d:/cours/eea-a2s1/language_c/info_indus_s2/stm32cubeide_1.5.1/stm32cubeide/plugins/com.st.stm32cube.ide.mcu.externaltools.gnu-tools-for-stm32.7-2018-q2-update.win32_1.5.0.202011040924/tools/bin/../lib/gcc/arm-none-eabi/7.3.1/../../../../arm-none-eabi/lib/thumb/v7e-m/fpv4-sp/hard\libc_nano.a(lib_a-init.o)
 .ARM.attributes
                0x00000000000009fb       0x34 d:/cours/eea-a2s1/language_c/info_indus_s2/stm32cubeide_1.5.1/stm32cubeide/plugins/com.st.stm32cube.ide.mcu.externaltools.gnu-tools-for-stm32.7-2018-q2-update.win32_1.5.0.202011040924/tools/bin/../lib/gcc/arm-none-eabi/7.3.1/../../../../arm-none-eabi/lib/thumb/v7e-m/fpv4-sp/hard\libc_nano.a(lib_a-memcpy-stub.o)
 .ARM.attributes
                0x0000000000000a2f       0x34 d:/cours/eea-a2s1/language_c/info_indus_s2/stm32cubeide_1.5.1/stm32cubeide/plugins/com.st.stm32cube.ide.mcu.externaltools.gnu-tools-for-stm32.7-2018-q2-update.win32_1.5.0.202011040924/tools/bin/../lib/gcc/arm-none-eabi/7.3.1/../../../../arm-none-eabi/lib/thumb/v7e-m/fpv4-sp/hard\libc_nano.a(lib_a-memset.o)
 .ARM.attributes
                0x0000000000000a63       0x34 d:/cours/eea-a2s1/language_c/info_indus_s2/stm32cubeide_1.5.1/stm32cubeide/plugins/com.st.stm32cube.ide.mcu.externaltools.gnu-tools-for-stm32.7-2018-q2-update.win32_1.5.0.202011040924/tools/bin/../lib/gcc/arm-none-eabi/7.3.1/../../../../arm-none-eabi/lib/thumb/v7e-m/fpv4-sp/hard\libc_nano.a(lib_a-sprintf.o)
 .ARM.attributes
                0x0000000000000a97       0x34 d:/cours/eea-a2s1/language_c/info_indus_s2/stm32cubeide_1.5.1/stm32cubeide/plugins/com.st.stm32cube.ide.mcu.externaltools.gnu-tools-for-stm32.7-2018-q2-update.win32_1.5.0.202011040924/tools/bin/../lib/gcc/arm-none-eabi/7.3.1/../../../../arm-none-eabi/lib/thumb/v7e-m/fpv4-sp/hard\libc_nano.a(lib_a-nano-svfprintf.o)
 .ARM.attributes
                0x0000000000000acb       0x34 d:/cours/eea-a2s1/language_c/info_indus_s2/stm32cubeide_1.5.1/stm32cubeide/plugins/com.st.stm32cube.ide.mcu.externaltools.gnu-tools-for-stm32.7-2018-q2-update.win32_1.5.0.202011040924/tools/bin/../lib/gcc/arm-none-eabi/7.3.1/../../../../arm-none-eabi/lib/thumb/v7e-m/fpv4-sp/hard\libc_nano.a(lib_a-nano-vfprintf_i.o)
 .ARM.attributes
                0x0000000000000aff       0x20 d:/cours/eea-a2s1/language_c/info_indus_s2/stm32cubeide_1.5.1/stm32cubeide/plugins/com.st.stm32cube.ide.mcu.externaltools.gnu-tools-for-stm32.7-2018-q2-update.win32_1.5.0.202011040924/tools/bin/../lib/gcc/arm-none-eabi/7.3.1/../../../../arm-none-eabi/lib/thumb/v7e-m/fpv4-sp/hard\libc_nano.a(lib_a-memchr.o)
 .ARM.attributes
                0x0000000000000b1f       0x34 d:/cours/eea-a2s1/language_c/info_indus_s2/stm32cubeide_1.5.1/stm32cubeide/plugins/com.st.stm32cube.ide.mcu.externaltools.gnu-tools-for-stm32.7-2018-q2-update.win32_1.5.0.202011040924/tools/bin/../lib/gcc/arm-none-eabi/7.3.1/../../../../arm-none-eabi/lib/thumb/v7e-m/fpv4-sp/hard\libc_nano.a(lib_a-memmove.o)
 .ARM.attributes
                0x0000000000000b53       0x34 d:/cours/eea-a2s1/language_c/info_indus_s2/stm32cubeide_1.5.1/stm32cubeide/plugins/com.st.stm32cube.ide.mcu.externaltools.gnu-tools-for-stm32.7-2018-q2-update.win32_1.5.0.202011040924/tools/bin/../lib/gcc/arm-none-eabi/7.3.1/../../../../arm-none-eabi/lib/thumb/v7e-m/fpv4-sp/hard\libc_nano.a(lib_a-nano-freer.o)
 .ARM.attributes
                0x0000000000000b87       0x34 d:/cours/eea-a2s1/language_c/info_indus_s2/stm32cubeide_1.5.1/stm32cubeide/plugins/com.st.stm32cube.ide.mcu.externaltools.gnu-tools-for-stm32.7-2018-q2-update.win32_1.5.0.202011040924/tools/bin/../lib/gcc/arm-none-eabi/7.3.1/../../../../arm-none-eabi/lib/thumb/v7e-m/fpv4-sp/hard\libc_nano.a(lib_a-nano-mallocr.o)
 .ARM.attributes
                0x0000000000000bbb       0x34 d:/cours/eea-a2s1/language_c/info_indus_s2/stm32cubeide_1.5.1/stm32cubeide/plugins/com.st.stm32cube.ide.mcu.externaltools.gnu-tools-for-stm32.7-2018-q2-update.win32_1.5.0.202011040924/tools/bin/../lib/gcc/arm-none-eabi/7.3.1/../../../../arm-none-eabi/lib/thumb/v7e-m/fpv4-sp/hard\libc_nano.a(lib_a-nano-reallocr.o)
 .ARM.attributes
                0x0000000000000bef       0x34 d:/cours/eea-a2s1/language_c/info_indus_s2/stm32cubeide_1.5.1/stm32cubeide/plugins/com.st.stm32cube.ide.mcu.externaltools.gnu-tools-for-stm32.7-2018-q2-update.win32_1.5.0.202011040924/tools/bin/../lib/gcc/arm-none-eabi/7.3.1/../../../../arm-none-eabi/lib/thumb/v7e-m/fpv4-sp/hard\libc_nano.a(lib_a-sbrkr.o)
 .ARM.attributes
                0x0000000000000c23       0x34 d:/cours/eea-a2s1/language_c/info_indus_s2/stm32cubeide_1.5.1/stm32cubeide/plugins/com.st.stm32cube.ide.mcu.externaltools.gnu-tools-for-stm32.7-2018-q2-update.win32_1.5.0.202011040924/tools/bin/../lib/gcc/arm-none-eabi/7.3.1/../../../../arm-none-eabi/lib/thumb/v7e-m/fpv4-sp/hard\libc_nano.a(lib_a-mlock.o)
 .ARM.attributes
                0x0000000000000c57       0x34 d:/cours/eea-a2s1/language_c/info_indus_s2/stm32cubeide_1.5.1/stm32cubeide/plugins/com.st.stm32cube.ide.mcu.externaltools.gnu-tools-for-stm32.7-2018-q2-update.win32_1.5.0.202011040924/tools/bin/../lib/gcc/arm-none-eabi/7.3.1/../../../../arm-none-eabi/lib/thumb/v7e-m/fpv4-sp/hard\libc_nano.a(lib_a-nano-msizer.o)
 .ARM.attributes
                0x0000000000000c8b       0x34 d:/cours/eea-a2s1/language_c/info_indus_s2/stm32cubeide_1.5.1/stm32cubeide/plugins/com.st.stm32cube.ide.mcu.externaltools.gnu-tools-for-stm32.7-2018-q2-update.win32_1.5.0.202011040924/tools/bin/../lib/gcc/arm-none-eabi/7.3.1/../../../../arm-none-eabi/lib/thumb/v7e-m/fpv4-sp/hard\libc_nano.a(lib_a-reent.o)
 .ARM.attributes
                0x0000000000000cbf       0x22 d:/cours/eea-a2s1/language_c/info_indus_s2/stm32cubeide_1.5.1/stm32cubeide/plugins/com.st.stm32cube.ide.mcu.externaltools.gnu-tools-for-stm32.7-2018-q2-update.win32_1.5.0.202011040924/tools/bin/../lib/gcc/arm-none-eabi/7.3.1/thumb/v7e-m/fpv4-sp/hard\libgcc.a(_arm_addsubdf3.o)
 .ARM.attributes
                0x0000000000000ce1       0x22 d:/cours/eea-a2s1/language_c/info_indus_s2/stm32cubeide_1.5.1/stm32cubeide/plugins/com.st.stm32cube.ide.mcu.externaltools.gnu-tools-for-stm32.7-2018-q2-update.win32_1.5.0.202011040924/tools/bin/../lib/gcc/arm-none-eabi/7.3.1/thumb/v7e-m/fpv4-sp/hard\libgcc.a(_arm_cmpdf2.o)
 .ARM.attributes
                0x0000000000000d03       0x22 d:/cours/eea-a2s1/language_c/info_indus_s2/stm32cubeide_1.5.1/stm32cubeide/plugins/com.st.stm32cube.ide.mcu.externaltools.gnu-tools-for-stm32.7-2018-q2-update.win32_1.5.0.202011040924/tools/bin/../lib/gcc/arm-none-eabi/7.3.1/thumb/v7e-m/fpv4-sp/hard\libgcc.a(_aeabi_uldivmod.o)
 .ARM.attributes
                0x0000000000000d25       0x34 d:/cours/eea-a2s1/language_c/info_indus_s2/stm32cubeide_1.5.1/stm32cubeide/plugins/com.st.stm32cube.ide.mcu.externaltools.gnu-tools-for-stm32.7-2018-q2-update.win32_1.5.0.202011040924/tools/bin/../lib/gcc/arm-none-eabi/7.3.1/thumb/v7e-m/fpv4-sp/hard\libgcc.a(_udivmoddi4.o)
 .ARM.attributes
                0x0000000000000d59       0x22 d:/cours/eea-a2s1/language_c/info_indus_s2/stm32cubeide_1.5.1/stm32cubeide/plugins/com.st.stm32cube.ide.mcu.externaltools.gnu-tools-for-stm32.7-2018-q2-update.win32_1.5.0.202011040924/tools/bin/../lib/gcc/arm-none-eabi/7.3.1/thumb/v7e-m/fpv4-sp/hard\libgcc.a(_dvmd_tls.o)
 .ARM.attributes
                0x0000000000000d7b       0x22 d:/cours/eea-a2s1/language_c/info_indus_s2/stm32cubeide_1.5.1/stm32cubeide/plugins/com.st.stm32cube.ide.mcu.externaltools.gnu-tools-for-stm32.7-2018-q2-update.win32_1.5.0.202011040924/tools/bin/../lib/gcc/arm-none-eabi/7.3.1/thumb/v7e-m/fpv4-sp/hard/crtn.o
OUTPUT(TP_5.elf elf32-littlearm)

.debug_info     0x0000000000000000    0x2ac81
 .debug_info    0x0000000000000000      0x3c1 Core/Src/freertos.o
 .debug_info    0x00000000000003c1      0x591 Core/Src/ft5336.o
 .debug_info    0x0000000000000952     0x3e08 Core/Src/main.o
 .debug_info    0x000000000000475a     0x19bb Core/Src/stm32746g_discovery.o
 .debug_info    0x0000000000006115     0x2264 Core/Src/stm32746g_discovery_lcd.o
 .debug_info    0x0000000000008379      0xf1e Core/Src/stm32746g_discovery_sdram.o
 .debug_info    0x0000000000009297      0x9dd Core/Src/stm32746g_discovery_ts.o
 .debug_info    0x0000000000009c74     0x276a Core/Src/stm32f7xx_hal_msp.o
 .debug_info    0x000000000000c3de      0xbe7 Core/Src/stm32f7xx_hal_timebase_tim.o
 .debug_info    0x000000000000cfc5      0xede Core/Src/stm32f7xx_it.o
 .debug_info    0x000000000000dea3      0x985 Core/Src/sysmem.o
 .debug_info    0x000000000000e828      0x73d Core/Src/system_stm32f7xx.o
 .debug_info    0x000000000000ef65       0x22 Core/Startup/startup_stm32f746nghx.o
 .debug_info    0x000000000000ef87      0x9d3 Drivers/STM32F7xx_HAL_Driver/Src/stm32f7xx_hal.o
 .debug_info    0x000000000000f95a      0xc9d Drivers/STM32F7xx_HAL_Driver/Src/stm32f7xx_hal_adc.o
 .debug_info    0x00000000000105f7     0x104a Drivers/STM32F7xx_HAL_Driver/Src/stm32f7xx_hal_cortex.o
 .debug_info    0x0000000000011641      0xa3a Drivers/STM32F7xx_HAL_Driver/Src/stm32f7xx_hal_dac.o
 .debug_info    0x000000000001207b      0x7c0 Drivers/STM32F7xx_HAL_Driver/Src/stm32f7xx_hal_dac_ex.o
 .debug_info    0x000000000001283b      0x968 Drivers/STM32F7xx_HAL_Driver/Src/stm32f7xx_hal_dma.o
 .debug_info    0x00000000000131a3      0xee9 Drivers/STM32F7xx_HAL_Driver/Src/stm32f7xx_hal_dma2d.o
 .debug_info    0x000000000001408c      0x7dc Drivers/STM32F7xx_HAL_Driver/Src/stm32f7xx_hal_gpio.o
 .debug_info    0x0000000000014868     0x1fb9 Drivers/STM32F7xx_HAL_Driver/Src/stm32f7xx_hal_i2c.o
 .debug_info    0x0000000000016821      0x738 Drivers/STM32F7xx_HAL_Driver/Src/stm32f7xx_hal_i2c_ex.o
 .debug_info    0x0000000000016f59     0x1104 Drivers/STM32F7xx_HAL_Driver/Src/stm32f7xx_hal_ltdc.o
 .debug_info    0x000000000001805d      0x9b4 Drivers/STM32F7xx_HAL_Driver/Src/stm32f7xx_hal_pwr.o
 .debug_info    0x0000000000018a11      0x96b Drivers/STM32F7xx_HAL_Driver/Src/stm32f7xx_hal_pwr_ex.o
 .debug_info    0x000000000001937c      0x935 Drivers/STM32F7xx_HAL_Driver/Src/stm32f7xx_hal_rcc.o
 .debug_info    0x0000000000019cb1      0x7ad Drivers/STM32F7xx_HAL_Driver/Src/stm32f7xx_hal_rcc_ex.o
 .debug_info    0x000000000001a45e      0xc56 Drivers/STM32F7xx_HAL_Driver/Src/stm32f7xx_hal_rtc.o
 .debug_info    0x000000000001b0b4      0xff7 Drivers/STM32F7xx_HAL_Driver/Src/stm32f7xx_hal_rtc_ex.o
 .debug_info    0x000000000001c0ab      0xca1 Drivers/STM32F7xx_HAL_Driver/Src/stm32f7xx_hal_sdram.o
 .debug_info    0x000000000001cd4c     0x25a2 Drivers/STM32F7xx_HAL_Driver/Src/stm32f7xx_hal_tim.o
 .debug_info    0x000000000001f2ee     0x121c Drivers/STM32F7xx_HAL_Driver/Src/stm32f7xx_hal_tim_ex.o
 .debug_info    0x000000000002050a     0x16d1 Drivers/STM32F7xx_HAL_Driver/Src/stm32f7xx_hal_uart.o
 .debug_info    0x0000000000021bdb      0xccd Drivers/STM32F7xx_HAL_Driver/Src/stm32f7xx_ll_fmc.o
 .debug_info    0x00000000000228a8     0x1eb8 Middlewares/Third_Party/FreeRTOS/Source/CMSIS_RTOS/cmsis_os.o
 .debug_info    0x0000000000024760      0xacb Middlewares/Third_Party/FreeRTOS/Source/list.o
 .debug_info    0x000000000002522b     0x21ea Middlewares/Third_Party/FreeRTOS/Source/queue.o
 .debug_info    0x0000000000027415     0x2789 Middlewares/Third_Party/FreeRTOS/Source/tasks.o
 .debug_info    0x0000000000029b9e      0x4e4 Middlewares/Third_Party/FreeRTOS/Source/portable/GCC/ARM_CM7/r0p1/port.o
 .debug_info    0x000000000002a082      0xbff Middlewares/Third_Party/FreeRTOS/Source/portable/MemMang/heap_4.o

.debug_abbrev   0x0000000000000000     0x5354
 .debug_abbrev  0x0000000000000000      0x12a Core/Src/freertos.o
 .debug_abbrev  0x000000000000012a      0x1ea Core/Src/ft5336.o
 .debug_abbrev  0x0000000000000314      0x325 Core/Src/main.o
 .debug_abbrev  0x0000000000000639      0x287 Core/Src/stm32746g_discovery.o
 .debug_abbrev  0x00000000000008c0      0x298 Core/Src/stm32746g_discovery_lcd.o
 .debug_abbrev  0x0000000000000b58      0x218 Core/Src/stm32746g_discovery_sdram.o
 .debug_abbrev  0x0000000000000d70      0x22b Core/Src/stm32746g_discovery_ts.o
 .debug_abbrev  0x0000000000000f9b      0x24d Core/Src/stm32f7xx_hal_msp.o
 .debug_abbrev  0x00000000000011e8      0x19d Core/Src/stm32f7xx_hal_timebase_tim.o
 .debug_abbrev  0x0000000000001385      0x169 Core/Src/stm32f7xx_it.o
 .debug_abbrev  0x00000000000014ee      0x19b Core/Src/sysmem.o
 .debug_abbrev  0x0000000000001689      0x147 Core/Src/system_stm32f7xx.o
 .debug_abbrev  0x00000000000017d0       0x12 Core/Startup/startup_stm32f746nghx.o
 .debug_abbrev  0x00000000000017e2      0x1c7 Drivers/STM32F7xx_HAL_Driver/Src/stm32f7xx_hal.o
 .debug_abbrev  0x00000000000019a9      0x205 Drivers/STM32F7xx_HAL_Driver/Src/stm32f7xx_hal_adc.o
 .debug_abbrev  0x0000000000001bae      0x2fa Drivers/STM32F7xx_HAL_Driver/Src/stm32f7xx_hal_cortex.o
 .debug_abbrev  0x0000000000001ea8      0x1e4 Drivers/STM32F7xx_HAL_Driver/Src/stm32f7xx_hal_dac.o
 .debug_abbrev  0x000000000000208c      0x1e8 Drivers/STM32F7xx_HAL_Driver/Src/stm32f7xx_hal_dac_ex.o
 .debug_abbrev  0x0000000000002274      0x229 Drivers/STM32F7xx_HAL_Driver/Src/stm32f7xx_hal_dma.o
 .debug_abbrev  0x000000000000249d      0x211 Drivers/STM32F7xx_HAL_Driver/Src/stm32f7xx_hal_dma2d.o
 .debug_abbrev  0x00000000000026ae      0x1c9 Drivers/STM32F7xx_HAL_Driver/Src/stm32f7xx_hal_gpio.o
 .debug_abbrev  0x0000000000002877      0x22a Drivers/STM32F7xx_HAL_Driver/Src/stm32f7xx_hal_i2c.o
 .debug_abbrev  0x0000000000002aa1      0x178 Drivers/STM32F7xx_HAL_Driver/Src/stm32f7xx_hal_i2c_ex.o
 .debug_abbrev  0x0000000000002c19      0x209 Drivers/STM32F7xx_HAL_Driver/Src/stm32f7xx_hal_ltdc.o
 .debug_abbrev  0x0000000000002e22      0x1b6 Drivers/STM32F7xx_HAL_Driver/Src/stm32f7xx_hal_pwr.o
 .debug_abbrev  0x0000000000002fd8      0x1b8 Drivers/STM32F7xx_HAL_Driver/Src/stm32f7xx_hal_pwr_ex.o
 .debug_abbrev  0x0000000000003190      0x21a Drivers/STM32F7xx_HAL_Driver/Src/stm32f7xx_hal_rcc.o
 .debug_abbrev  0x00000000000033aa      0x1ad Drivers/STM32F7xx_HAL_Driver/Src/stm32f7xx_hal_rcc_ex.o
 .debug_abbrev  0x0000000000003557      0x1be Drivers/STM32F7xx_HAL_Driver/Src/stm32f7xx_hal_rtc.o
 .debug_abbrev  0x0000000000003715      0x1e9 Drivers/STM32F7xx_HAL_Driver/Src/stm32f7xx_hal_rtc_ex.o
 .debug_abbrev  0x00000000000038fe      0x1f7 Drivers/STM32F7xx_HAL_Driver/Src/stm32f7xx_hal_sdram.o
 .debug_abbrev  0x0000000000003af5      0x230 Drivers/STM32F7xx_HAL_Driver/Src/stm32f7xx_hal_tim.o
 .debug_abbrev  0x0000000000003d25      0x21e Drivers/STM32F7xx_HAL_Driver/Src/stm32f7xx_hal_tim_ex.o
 .debug_abbrev  0x0000000000003f43      0x205 Drivers/STM32F7xx_HAL_Driver/Src/stm32f7xx_hal_uart.o
 .debug_abbrev  0x0000000000004148      0x170 Drivers/STM32F7xx_HAL_Driver/Src/stm32f7xx_ll_fmc.o
 .debug_abbrev  0x00000000000042b8      0x379 Middlewares/Third_Party/FreeRTOS/Source/CMSIS_RTOS/cmsis_os.o
 .debug_abbrev  0x0000000000004631      0x1cf Middlewares/Third_Party/FreeRTOS/Source/list.o
 .debug_abbrev  0x0000000000004800      0x336 Middlewares/Third_Party/FreeRTOS/Source/queue.o
 .debug_abbrev  0x0000000000004b36      0x349 Middlewares/Third_Party/FreeRTOS/Source/tasks.o
 .debug_abbrev  0x0000000000004e7f      0x21b Middlewares/Third_Party/FreeRTOS/Source/portable/GCC/ARM_CM7/r0p1/port.o
 .debug_abbrev  0x000000000000509a      0x2ba Middlewares/Third_Party/FreeRTOS/Source/portable/MemMang/heap_4.o

.debug_aranges  0x0000000000000000     0x23f0
 .debug_aranges
                0x0000000000000000       0x38 Core/Src/freertos.o
 .debug_aranges
                0x0000000000000038       0x90 Core/Src/ft5336.o
 .debug_aranges
                0x00000000000000c8       0xf0 Core/Src/main.o
 .debug_aranges
                0x00000000000001b8      0x128 Core/Src/stm32746g_discovery.o
 .debug_aranges
                0x00000000000002e0      0x1d8 Core/Src/stm32746g_discovery_lcd.o
 .debug_aranges
                0x00000000000004b8       0x68 Core/Src/stm32746g_discovery_sdram.o
 .debug_aranges
                0x0000000000000520       0x58 Core/Src/stm32746g_discovery_ts.o
 .debug_aranges
                0x0000000000000578       0xc0 Core/Src/stm32f7xx_hal_msp.o
 .debug_aranges
                0x0000000000000638       0x30 Core/Src/stm32f7xx_hal_timebase_tim.o
 .debug_aranges
                0x0000000000000668       0x60 Core/Src/stm32f7xx_it.o
 .debug_aranges
                0x00000000000006c8       0x20 Core/Src/sysmem.o
 .debug_aranges
                0x00000000000006e8       0x28 Core/Src/system_stm32f7xx.o
 .debug_aranges
                0x0000000000000710       0x28 Core/Startup/startup_stm32f746nghx.o
 .debug_aranges
                0x0000000000000738      0x100 Drivers/STM32F7xx_HAL_Driver/Src/stm32f7xx_hal.o
 .debug_aranges
                0x0000000000000838       0xe8 Drivers/STM32F7xx_HAL_Driver/Src/stm32f7xx_hal_adc.o
 .debug_aranges
                0x0000000000000920      0x118 Drivers/STM32F7xx_HAL_Driver/Src/stm32f7xx_hal_cortex.o
 .debug_aranges
                0x0000000000000a38       0xc0 Drivers/STM32F7xx_HAL_Driver/Src/stm32f7xx_hal_dac.o
 .debug_aranges
                0x0000000000000af8       0x70 Drivers/STM32F7xx_HAL_Driver/Src/stm32f7xx_hal_dac_ex.o
 .debug_aranges
                0x0000000000000b68       0x90 Drivers/STM32F7xx_HAL_Driver/Src/stm32f7xx_hal_dma.o
 .debug_aranges
                0x0000000000000bf8      0x108 Drivers/STM32F7xx_HAL_Driver/Src/stm32f7xx_hal_dma2d.o
 .debug_aranges
                0x0000000000000d00       0x58 Drivers/STM32F7xx_HAL_Driver/Src/stm32f7xx_hal_gpio.o
 .debug_aranges
                0x0000000000000d58      0x288 Drivers/STM32F7xx_HAL_Driver/Src/stm32f7xx_hal_i2c.o
 .debug_aranges
                0x0000000000000fe0       0x28 Drivers/STM32F7xx_HAL_Driver/Src/stm32f7xx_hal_i2c_ex.o
 .debug_aranges
                0x0000000000001008      0x158 Drivers/STM32F7xx_HAL_Driver/Src/stm32f7xx_hal_ltdc.o
 .debug_aranges
                0x0000000000001160       0xa0 Drivers/STM32F7xx_HAL_Driver/Src/stm32f7xx_hal_pwr.o
 .debug_aranges
                0x0000000000001200       0x80 Drivers/STM32F7xx_HAL_Driver/Src/stm32f7xx_hal_pwr_ex.o
 .debug_aranges
                0x0000000000001280       0x88 Drivers/STM32F7xx_HAL_Driver/Src/stm32f7xx_hal_rcc.o
 .debug_aranges
                0x0000000000001308       0x50 Drivers/STM32F7xx_HAL_Driver/Src/stm32f7xx_hal_rcc_ex.o
 .debug_aranges
                0x0000000000001358       0xb8 Drivers/STM32F7xx_HAL_Driver/Src/stm32f7xx_hal_rtc.o
 .debug_aranges
                0x0000000000001410      0x140 Drivers/STM32F7xx_HAL_Driver/Src/stm32f7xx_hal_rtc_ex.o
 .debug_aranges
                0x0000000000001550       0xd0 Drivers/STM32F7xx_HAL_Driver/Src/stm32f7xx_hal_sdram.o
 .debug_aranges
                0x0000000000001620      0x3b8 Drivers/STM32F7xx_HAL_Driver/Src/stm32f7xx_hal_tim.o
 .debug_aranges
                0x00000000000019d8      0x160 Drivers/STM32F7xx_HAL_Driver/Src/stm32f7xx_hal_tim_ex.o
 .debug_aranges
                0x0000000000001b38      0x210 Drivers/STM32F7xx_HAL_Driver/Src/stm32f7xx_hal_uart.o
 .debug_aranges
                0x0000000000001d48       0xc8 Drivers/STM32F7xx_HAL_Driver/Src/stm32f7xx_ll_fmc.o
 .debug_aranges
                0x0000000000001e10      0x1d8 Middlewares/Third_Party/FreeRTOS/Source/CMSIS_RTOS/cmsis_os.o
 .debug_aranges
                0x0000000000001fe8       0x40 Middlewares/Third_Party/FreeRTOS/Source/list.o
 .debug_aranges
                0x0000000000002028      0x128 Middlewares/Third_Party/FreeRTOS/Source/queue.o
 .debug_aranges
                0x0000000000002150      0x1d0 Middlewares/Third_Party/FreeRTOS/Source/tasks.o
 .debug_aranges
                0x0000000000002320       0x80 Middlewares/Third_Party/FreeRTOS/Source/portable/GCC/ARM_CM7/r0p1/port.o
 .debug_aranges
                0x00000000000023a0       0x50 Middlewares/Third_Party/FreeRTOS/Source/portable/MemMang/heap_4.o

.debug_ranges   0x0000000000000000     0x2168
 .debug_ranges  0x0000000000000000       0x28 Core/Src/freertos.o
 .debug_ranges  0x0000000000000028       0x80 Core/Src/ft5336.o
 .debug_ranges  0x00000000000000a8       0xe0 Core/Src/main.o
 .debug_ranges  0x0000000000000188      0x118 Core/Src/stm32746g_discovery.o
 .debug_ranges  0x00000000000002a0      0x1c8 Core/Src/stm32746g_discovery_lcd.o
 .debug_ranges  0x0000000000000468       0x58 Core/Src/stm32746g_discovery_sdram.o
 .debug_ranges  0x00000000000004c0       0x48 Core/Src/stm32746g_discovery_ts.o
 .debug_ranges  0x0000000000000508       0xb0 Core/Src/stm32f7xx_hal_msp.o
 .debug_ranges  0x00000000000005b8       0x20 Core/Src/stm32f7xx_hal_timebase_tim.o
 .debug_ranges  0x00000000000005d8       0x50 Core/Src/stm32f7xx_it.o
 .debug_ranges  0x0000000000000628       0x10 Core/Src/sysmem.o
 .debug_ranges  0x0000000000000638       0x18 Core/Src/system_stm32f7xx.o
 .debug_ranges  0x0000000000000650       0x20 Core/Startup/startup_stm32f746nghx.o
 .debug_ranges  0x0000000000000670       0xf0 Drivers/STM32F7xx_HAL_Driver/Src/stm32f7xx_hal.o
 .debug_ranges  0x0000000000000760       0xd8 Drivers/STM32F7xx_HAL_Driver/Src/stm32f7xx_hal_adc.o
 .debug_ranges  0x0000000000000838      0x108 Drivers/STM32F7xx_HAL_Driver/Src/stm32f7xx_hal_cortex.o
 .debug_ranges  0x0000000000000940       0xb0 Drivers/STM32F7xx_HAL_Driver/Src/stm32f7xx_hal_dac.o
 .debug_ranges  0x00000000000009f0       0x60 Drivers/STM32F7xx_HAL_Driver/Src/stm32f7xx_hal_dac_ex.o
 .debug_ranges  0x0000000000000a50       0x80 Drivers/STM32F7xx_HAL_Driver/Src/stm32f7xx_hal_dma.o
 .debug_ranges  0x0000000000000ad0       0xf8 Drivers/STM32F7xx_HAL_Driver/Src/stm32f7xx_hal_dma2d.o
 .debug_ranges  0x0000000000000bc8       0x48 Drivers/STM32F7xx_HAL_Driver/Src/stm32f7xx_hal_gpio.o
 .debug_ranges  0x0000000000000c10      0x278 Drivers/STM32F7xx_HAL_Driver/Src/stm32f7xx_hal_i2c.o
 .debug_ranges  0x0000000000000e88       0x18 Drivers/STM32F7xx_HAL_Driver/Src/stm32f7xx_hal_i2c_ex.o
 .debug_ranges  0x0000000000000ea0      0x148 Drivers/STM32F7xx_HAL_Driver/Src/stm32f7xx_hal_ltdc.o
 .debug_ranges  0x0000000000000fe8       0x90 Drivers/STM32F7xx_HAL_Driver/Src/stm32f7xx_hal_pwr.o
 .debug_ranges  0x0000000000001078       0x70 Drivers/STM32F7xx_HAL_Driver/Src/stm32f7xx_hal_pwr_ex.o
 .debug_ranges  0x00000000000010e8       0x78 Drivers/STM32F7xx_HAL_Driver/Src/stm32f7xx_hal_rcc.o
 .debug_ranges  0x0000000000001160       0x40 Drivers/STM32F7xx_HAL_Driver/Src/stm32f7xx_hal_rcc_ex.o
 .debug_ranges  0x00000000000011a0       0xa8 Drivers/STM32F7xx_HAL_Driver/Src/stm32f7xx_hal_rtc.o
 .debug_ranges  0x0000000000001248      0x130 Drivers/STM32F7xx_HAL_Driver/Src/stm32f7xx_hal_rtc_ex.o
 .debug_ranges  0x0000000000001378       0xc0 Drivers/STM32F7xx_HAL_Driver/Src/stm32f7xx_hal_sdram.o
 .debug_ranges  0x0000000000001438      0x3a8 Drivers/STM32F7xx_HAL_Driver/Src/stm32f7xx_hal_tim.o
 .debug_ranges  0x00000000000017e0      0x150 Drivers/STM32F7xx_HAL_Driver/Src/stm32f7xx_hal_tim_ex.o
 .debug_ranges  0x0000000000001930      0x200 Drivers/STM32F7xx_HAL_Driver/Src/stm32f7xx_hal_uart.o
 .debug_ranges  0x0000000000001b30       0xb8 Drivers/STM32F7xx_HAL_Driver/Src/stm32f7xx_ll_fmc.o
 .debug_ranges  0x0000000000001be8      0x1c8 Middlewares/Third_Party/FreeRTOS/Source/CMSIS_RTOS/cmsis_os.o
 .debug_ranges  0x0000000000001db0       0x30 Middlewares/Third_Party/FreeRTOS/Source/list.o
 .debug_ranges  0x0000000000001de0      0x118 Middlewares/Third_Party/FreeRTOS/Source/queue.o
 .debug_ranges  0x0000000000001ef8      0x1c0 Middlewares/Third_Party/FreeRTOS/Source/tasks.o
 .debug_ranges  0x00000000000020b8       0x70 Middlewares/Third_Party/FreeRTOS/Source/portable/GCC/ARM_CM7/r0p1/port.o
 .debug_ranges  0x0000000000002128       0x40 Middlewares/Third_Party/FreeRTOS/Source/portable/MemMang/heap_4.o

.debug_macro    0x0000000000000000    0x2dc01
 .debug_macro   0x0000000000000000      0x2e4 Core/Src/freertos.o
 .debug_macro   0x00000000000002e4      0xa5a Core/Src/freertos.o
 .debug_macro   0x0000000000000d3e      0x174 Core/Src/freertos.o
 .debug_macro   0x0000000000000eb2       0x22 Core/Src/freertos.o
 .debug_macro   0x0000000000000ed4       0x8e Core/Src/freertos.o
 .debug_macro   0x0000000000000f62       0x51 Core/Src/freertos.o
 .debug_macro   0x0000000000000fb3       0xef Core/Src/freertos.o
 .debug_macro   0x00000000000010a2       0x6a Core/Src/freertos.o
 .debug_macro   0x000000000000110c      0x1df Core/Src/freertos.o
 .debug_macro   0x00000000000012eb      0x109 Core/Src/freertos.o
 .debug_macro   0x00000000000013f4      0x15a Core/Src/freertos.o
 .debug_macro   0x000000000000154e       0xde Core/Src/freertos.o
 .debug_macro   0x000000000000162c       0x1c Core/Src/freertos.o
 .debug_macro   0x0000000000001648       0x26 Core/Src/freertos.o
 .debug_macro   0x000000000000166e      0x4c5 Core/Src/freertos.o
 .debug_macro   0x0000000000001b33       0xb5 Core/Src/freertos.o
 .debug_macro   0x0000000000001be8       0xaa Core/Src/freertos.o
 .debug_macro   0x0000000000001c92      0x2b7 Core/Src/freertos.o
 .debug_macro   0x0000000000001f49       0x2e Core/Src/freertos.o
 .debug_macro   0x0000000000001f77       0x3b Core/Src/freertos.o
 .debug_macro   0x0000000000001fb2       0x1c Core/Src/freertos.o
 .debug_macro   0x0000000000001fce       0x22 Core/Src/freertos.o
 .debug_macro   0x0000000000001ff0       0xdf Core/Src/freertos.o
 .debug_macro   0x00000000000020cf     0x12cd Core/Src/freertos.o
 .debug_macro   0x000000000000339c      0x11f Core/Src/freertos.o
 .debug_macro   0x00000000000034bb       0x19 Core/Src/freertos.o
 .debug_macro   0x00000000000034d4    0x190f0 Core/Src/freertos.o
 .debug_macro   0x000000000001c5c4       0x43 Core/Src/freertos.o
 .debug_macro   0x000000000001c607     0x36b4 Core/Src/freertos.o
 .debug_macro   0x000000000001fcbb       0x61 Core/Src/freertos.o
 .debug_macro   0x000000000001fd1c     0x18ad Core/Src/freertos.o
 .debug_macro   0x00000000000215c9      0x6c4 Core/Src/freertos.o
 .debug_macro   0x0000000000021c8d      0x185 Core/Src/freertos.o
 .debug_macro   0x0000000000021e12      0x117 Core/Src/freertos.o
 .debug_macro   0x0000000000021f29      0x1fe Core/Src/freertos.o
 .debug_macro   0x0000000000022127       0x27 Core/Src/freertos.o
 .debug_macro   0x000000000002214e      0x24f Core/Src/freertos.o
 .debug_macro   0x000000000002239d       0x41 Core/Src/freertos.o
 .debug_macro   0x00000000000223de       0x58 Core/Src/freertos.o
 .debug_macro   0x0000000000022436      0x236 Core/Src/freertos.o
 .debug_macro   0x000000000002266c      0x416 Core/Src/freertos.o
 .debug_macro   0x0000000000022a82      0x153 Core/Src/freertos.o
 .debug_macro   0x0000000000022bd5      0x107 Core/Src/freertos.o
 .debug_macro   0x0000000000022cdc      0x20f Core/Src/freertos.o
 .debug_macro   0x0000000000022eeb       0xea Core/Src/freertos.o
 .debug_macro   0x0000000000022fd5       0xa0 Core/Src/freertos.o
 .debug_macro   0x0000000000023075       0x3c Core/Src/freertos.o
 .debug_macro   0x00000000000230b1      0x14f Core/Src/freertos.o
 .debug_macro   0x0000000000023200      0x25b Core/Src/freertos.o
 .debug_macro   0x000000000002345b       0x12 Core/Src/freertos.o
 .debug_macro   0x000000000002346d      0x514 Core/Src/freertos.o
 .debug_macro   0x0000000000023981      0x22c Core/Src/freertos.o
 .debug_macro   0x0000000000023bad       0x5a Core/Src/freertos.o
 .debug_macro   0x0000000000023c07       0xa5 Core/Src/freertos.o
 .debug_macro   0x0000000000023cac      0x198 Core/Src/freertos.o
 .debug_macro   0x0000000000023e44       0xd6 Core/Src/freertos.o
 .debug_macro   0x0000000000023f1a      0x12f Core/Src/freertos.o
 .debug_macro   0x0000000000024049      0x108 Core/Src/freertos.o
 .debug_macro   0x0000000000024151       0x35 Core/Src/freertos.o
 .debug_macro   0x0000000000024186      0x313 Core/Src/freertos.o
 .debug_macro   0x0000000000024499      0x4ca Core/Src/freertos.o
 .debug_macro   0x0000000000024963       0xd6 Core/Src/freertos.o
 .debug_macro   0x0000000000024a39      0xa2f Core/Src/freertos.o
 .debug_macro   0x0000000000025468       0x59 Core/Src/freertos.o
 .debug_macro   0x00000000000254c1      0x53c Core/Src/freertos.o
 .debug_macro   0x00000000000259fd       0x44 Core/Src/freertos.o
 .debug_macro   0x0000000000025a41      0x14e Core/Src/freertos.o
 .debug_macro   0x0000000000025b8f      0x44b Core/Src/freertos.o
 .debug_macro   0x0000000000025fda       0x7b Core/Src/ft5336.o
 .debug_macro   0x0000000000026055       0x10 Core/Src/ft5336.o
 .debug_macro   0x0000000000026065      0x39f Core/Src/ft5336.o
 .debug_macro   0x0000000000026404      0x4f2 Core/Src/main.o
 .debug_macro   0x00000000000268f6      0x109 Core/Src/main.o
 .debug_macro   0x00000000000269ff       0x91 Core/Src/main.o
 .debug_macro   0x0000000000026a90       0x8d Core/Src/main.o
 .debug_macro   0x0000000000026b1d       0x9a Core/Src/main.o
 .debug_macro   0x0000000000026bb7       0x19 Core/Src/main.o
 .debug_macro   0x0000000000026bd0       0xf2 Core/Src/main.o
 .debug_macro   0x0000000000026cc2       0x40 Core/Src/main.o
 .debug_macro   0x0000000000026d02       0xa0 Core/Src/main.o
 .debug_macro   0x0000000000026da2      0x268 Core/Src/main.o
 .debug_macro   0x000000000002700a       0x10 Core/Src/main.o
 .debug_macro   0x000000000002701a      0x12a Core/Src/main.o
 .debug_macro   0x0000000000027144       0x2e Core/Src/main.o
 .debug_macro   0x0000000000027172       0x46 Core/Src/main.o
 .debug_macro   0x00000000000271b8       0x18 Core/Src/main.o
 .debug_macro   0x00000000000271d0       0x3c Core/Src/main.o
 .debug_macro   0x000000000002720c       0x34 Core/Src/main.o
 .debug_macro   0x0000000000027240       0x16 Core/Src/main.o
 .debug_macro   0x0000000000027256       0x35 Core/Src/main.o
 .debug_macro   0x000000000002728b      0x32a Core/Src/main.o
 .debug_macro   0x00000000000275b5       0x10 Core/Src/main.o
 .debug_macro   0x00000000000275c5       0x52 Core/Src/main.o
 .debug_macro   0x0000000000027617       0x1f Core/Src/main.o
 .debug_macro   0x0000000000027636       0x43 Core/Src/main.o
 .debug_macro   0x0000000000027679       0x20 Core/Src/main.o
 .debug_macro   0x0000000000027699      0x1a3 Core/Src/main.o
 .debug_macro   0x000000000002783c       0x10 Core/Src/main.o
 .debug_macro   0x000000000002784c       0x1c Core/Src/main.o
 .debug_macro   0x0000000000027868       0x52 Core/Src/main.o
 .debug_macro   0x00000000000278ba       0x40 Core/Src/main.o
 .debug_macro   0x00000000000278fa       0x10 Core/Src/main.o
 .debug_macro   0x000000000002790a       0x40 Core/Src/main.o
 .debug_macro   0x000000000002794a       0xd7 Core/Src/main.o
 .debug_macro   0x0000000000027a21       0x1c Core/Src/main.o
 .debug_macro   0x0000000000027a3d       0x3d Core/Src/main.o
 .debug_macro   0x0000000000027a7a       0x16 Core/Src/main.o
 .debug_macro   0x0000000000027a90      0x145 Core/Src/main.o
 .debug_macro   0x0000000000027bd5      0x1e1 Core/Src/main.o
 .debug_macro   0x0000000000027db6      0x29a Core/Src/stm32746g_discovery.o
 .debug_macro   0x0000000000028050      0x262 Core/Src/stm32746g_discovery.o
 .debug_macro   0x00000000000282b2      0x2d4 Core/Src/stm32746g_discovery_lcd.o
 .debug_macro   0x0000000000028586       0x9a Core/Src/stm32746g_discovery_lcd.o
 .debug_macro   0x0000000000028620      0x27c Core/Src/stm32746g_discovery_sdram.o
 .debug_macro   0x000000000002889c      0x2a3 Core/Src/stm32746g_discovery_ts.o
 .debug_macro   0x0000000000028b3f      0x27c Core/Src/stm32f7xx_hal_msp.o
 .debug_macro   0x0000000000028dbb      0x26d Core/Src/stm32f7xx_hal_timebase_tim.o
 .debug_macro   0x0000000000029028      0x286 Core/Src/stm32f7xx_it.o
 .debug_macro   0x00000000000292ae       0xee Core/Src/sysmem.o
 .debug_macro   0x000000000002939c      0x23b Core/Src/sysmem.o
 .debug_macro   0x00000000000295d7      0x273 Core/Src/system_stm32f7xx.o
 .debug_macro   0x000000000002984a      0x291 Drivers/STM32F7xx_HAL_Driver/Src/stm32f7xx_hal.o
 .debug_macro   0x0000000000029adb      0x26e Drivers/STM32F7xx_HAL_Driver/Src/stm32f7xx_hal_adc.o
 .debug_macro   0x0000000000029d49      0x26d Drivers/STM32F7xx_HAL_Driver/Src/stm32f7xx_hal_cortex.o
 .debug_macro   0x0000000000029fb6      0x26e Drivers/STM32F7xx_HAL_Driver/Src/stm32f7xx_hal_dac.o
 .debug_macro   0x000000000002a224      0x26d Drivers/STM32F7xx_HAL_Driver/Src/stm32f7xx_hal_dac_ex.o
 .debug_macro   0x000000000002a491      0x273 Drivers/STM32F7xx_HAL_Driver/Src/stm32f7xx_hal_dma.o
 .debug_macro   0x000000000002a704      0x27c Drivers/STM32F7xx_HAL_Driver/Src/stm32f7xx_hal_dma2d.o
 .debug_macro   0x000000000002a980      0x2a3 Drivers/STM32F7xx_HAL_Driver/Src/stm32f7xx_hal_gpio.o
 .debug_macro   0x000000000002ac23      0x332 Drivers/STM32F7xx_HAL_Driver/Src/stm32f7xx_hal_i2c.o
 .debug_macro   0x000000000002af55      0x26d Drivers/STM32F7xx_HAL_Driver/Src/stm32f7xx_hal_i2c_ex.o
 .debug_macro   0x000000000002b1c2      0x26e Drivers/STM32F7xx_HAL_Driver/Src/stm32f7xx_hal_ltdc.o
 .debug_macro   0x000000000002b430      0x28b Drivers/STM32F7xx_HAL_Driver/Src/stm32f7xx_hal_pwr.o
 .debug_macro   0x000000000002b6bb      0x285 Drivers/STM32F7xx_HAL_Driver/Src/stm32f7xx_hal_pwr_ex.o
 .debug_macro   0x000000000002b940      0x291 Drivers/STM32F7xx_HAL_Driver/Src/stm32f7xx_hal_rcc.o
 .debug_macro   0x000000000002bbd1      0x26d Drivers/STM32F7xx_HAL_Driver/Src/stm32f7xx_hal_rcc_ex.o
 .debug_macro   0x000000000002be3e      0x26e Drivers/STM32F7xx_HAL_Driver/Src/stm32f7xx_hal_rtc.o
 .debug_macro   0x000000000002c0ac      0x26d Drivers/STM32F7xx_HAL_Driver/Src/stm32f7xx_hal_rtc_ex.o
 .debug_macro   0x000000000002c319      0x26d Drivers/STM32F7xx_HAL_Driver/Src/stm32f7xx_hal_sdram.o
 .debug_macro   0x000000000002c586      0x26e Drivers/STM32F7xx_HAL_Driver/Src/stm32f7xx_hal_tim.o
 .debug_macro   0x000000000002c7f4      0x26d Drivers/STM32F7xx_HAL_Driver/Src/stm32f7xx_hal_tim_ex.o
 .debug_macro   0x000000000002ca61      0x28a Drivers/STM32F7xx_HAL_Driver/Src/stm32f7xx_hal_uart.o
 .debug_macro   0x000000000002cceb      0x26d Drivers/STM32F7xx_HAL_Driver/Src/stm32f7xx_ll_fmc.o
 .debug_macro   0x000000000002cf58      0x1f1 Middlewares/Third_Party/FreeRTOS/Source/CMSIS_RTOS/cmsis_os.o
 .debug_macro   0x000000000002d149       0x10 Middlewares/Third_Party/FreeRTOS/Source/CMSIS_RTOS/cmsis_os.o
 .debug_macro   0x000000000002d159       0x20 Middlewares/Third_Party/FreeRTOS/Source/CMSIS_RTOS/cmsis_os.o
 .debug_macro   0x000000000002d179       0xc7 Middlewares/Third_Party/FreeRTOS/Source/CMSIS_RTOS/cmsis_os.o
 .debug_macro   0x000000000002d240      0x17a Middlewares/Third_Party/FreeRTOS/Source/list.o
 .debug_macro   0x000000000002d3ba      0x209 Middlewares/Third_Party/FreeRTOS/Source/queue.o
 .debug_macro   0x000000000002d5c3       0x16 Middlewares/Third_Party/FreeRTOS/Source/queue.o
 .debug_macro   0x000000000002d5d9       0x87 Middlewares/Third_Party/FreeRTOS/Source/queue.o
 .debug_macro   0x000000000002d660      0x26c Middlewares/Third_Party/FreeRTOS/Source/tasks.o
 .debug_macro   0x000000000002d8cc       0x10 Middlewares/Third_Party/FreeRTOS/Source/tasks.o
 .debug_macro   0x000000000002d8dc      0x184 Middlewares/Third_Party/FreeRTOS/Source/portable/GCC/ARM_CM7/r0p1/port.o
 .debug_macro   0x000000000002da60      0x1a1 Middlewares/Third_Party/FreeRTOS/Source/portable/MemMang/heap_4.o

.debug_line     0x0000000000000000    0x209f3
 .debug_line    0x0000000000000000      0xa51 Core/Src/freertos.o
 .debug_line    0x0000000000000a51      0x66a Core/Src/ft5336.o
 .debug_line    0x00000000000010bb     0x12e1 Core/Src/main.o
 .debug_line    0x000000000000239c      0xc2a Core/Src/stm32746g_discovery.o
 .debug_line    0x0000000000002fc6     0x1092 Core/Src/stm32746g_discovery_lcd.o
 .debug_line    0x0000000000004058      0xa41 Core/Src/stm32746g_discovery_sdram.o
 .debug_line    0x0000000000004a99      0xaa1 Core/Src/stm32746g_discovery_ts.o
 .debug_line    0x000000000000553a      0xbc6 Core/Src/stm32f7xx_hal_msp.o
 .debug_line    0x0000000000006100      0x94f Core/Src/stm32f7xx_hal_timebase_tim.o
 .debug_line    0x0000000000006a4f      0x9c6 Core/Src/stm32f7xx_it.o
 .debug_line    0x0000000000007415      0x60d Core/Src/sysmem.o
 .debug_line    0x0000000000007a22      0x934 Core/Src/system_stm32f7xx.o
 .debug_line    0x0000000000008356       0x85 Core/Startup/startup_stm32f746nghx.o
 .debug_line    0x00000000000083db      0xb43 Drivers/STM32F7xx_HAL_Driver/Src/stm32f7xx_hal.o
 .debug_line    0x0000000000008f1e      0xd6c Drivers/STM32F7xx_HAL_Driver/Src/stm32f7xx_hal_adc.o
 .debug_line    0x0000000000009c8a      0xc44 Drivers/STM32F7xx_HAL_Driver/Src/stm32f7xx_hal_cortex.o
 .debug_line    0x000000000000a8ce      0xb74 Drivers/STM32F7xx_HAL_Driver/Src/stm32f7xx_hal_dac.o
 .debug_line    0x000000000000b442      0xa37 Drivers/STM32F7xx_HAL_Driver/Src/stm32f7xx_hal_dac_ex.o
 .debug_line    0x000000000000be79      0xbef Drivers/STM32F7xx_HAL_Driver/Src/stm32f7xx_hal_dma.o
 .debug_line    0x000000000000ca68      0xe7c Drivers/STM32F7xx_HAL_Driver/Src/stm32f7xx_hal_dma2d.o
 .debug_line    0x000000000000d8e4      0xb28 Drivers/STM32F7xx_HAL_Driver/Src/stm32f7xx_hal_gpio.o
 .debug_line    0x000000000000e40c     0x1c9f Drivers/STM32F7xx_HAL_Driver/Src/stm32f7xx_hal_i2c.o
 .debug_line    0x00000000000100ab      0x9b3 Drivers/STM32F7xx_HAL_Driver/Src/stm32f7xx_hal_i2c_ex.o
 .debug_line    0x0000000000010a5e     0x11f2 Drivers/STM32F7xx_HAL_Driver/Src/stm32f7xx_hal_ltdc.o
 .debug_line    0x0000000000011c50      0xa88 Drivers/STM32F7xx_HAL_Driver/Src/stm32f7xx_hal_pwr.o
 .debug_line    0x00000000000126d8      0xa64 Drivers/STM32F7xx_HAL_Driver/Src/stm32f7xx_hal_pwr_ex.o
 .debug_line    0x000000000001313c      0xbb9 Drivers/STM32F7xx_HAL_Driver/Src/stm32f7xx_hal_rcc.o
 .debug_line    0x0000000000013cf5      0xb2b Drivers/STM32F7xx_HAL_Driver/Src/stm32f7xx_hal_rcc_ex.o
 .debug_line    0x0000000000014820      0xcab Drivers/STM32F7xx_HAL_Driver/Src/stm32f7xx_hal_rtc.o
 .debug_line    0x00000000000154cb     0x105b Drivers/STM32F7xx_HAL_Driver/Src/stm32f7xx_hal_rtc_ex.o
 .debug_line    0x0000000000016526      0xc77 Drivers/STM32F7xx_HAL_Driver/Src/stm32f7xx_hal_sdram.o
 .debug_line    0x000000000001719d     0x1c60 Drivers/STM32F7xx_HAL_Driver/Src/stm32f7xx_hal_tim.o
 .debug_line    0x0000000000018dfd      0xfcb Drivers/STM32F7xx_HAL_Driver/Src/stm32f7xx_hal_tim_ex.o
 .debug_line    0x0000000000019dc8     0x14ca Drivers/STM32F7xx_HAL_Driver/Src/stm32f7xx_hal_uart.o
 .debug_line    0x000000000001b292      0xbcb Drivers/STM32F7xx_HAL_Driver/Src/stm32f7xx_ll_fmc.o
 .debug_line    0x000000000001be5d      0xe2f Middlewares/Third_Party/FreeRTOS/Source/CMSIS_RTOS/cmsis_os.o
 .debug_line    0x000000000001cc8c      0x7b6 Middlewares/Third_Party/FreeRTOS/Source/list.o
 .debug_line    0x000000000001d442     0x11a0 Middlewares/Third_Party/FreeRTOS/Source/queue.o
 .debug_line    0x000000000001e5e2     0x13d5 Middlewares/Third_Party/FreeRTOS/Source/tasks.o
 .debug_line    0x000000000001f9b7      0x79e Middlewares/Third_Party/FreeRTOS/Source/portable/GCC/ARM_CM7/r0p1/port.o
 .debug_line    0x0000000000020155      0x89e Middlewares/Third_Party/FreeRTOS/Source/portable/MemMang/heap_4.o

.debug_str      0x0000000000000000   0x1130a0
 .debug_str     0x0000000000000000    0xfca1a Core/Src/freertos.o
                                      0xfd135 (size before relaxing)
 .debug_str     0x00000000000fca1a     0x16cb Core/Src/ft5336.o
                                       0x52fa (size before relaxing)
 .debug_str     0x00000000000fe0e5     0xac21 Core/Src/main.o
                                     0x109498 (size before relaxing)
 .debug_str     0x0000000000108d06      0xa5b Core/Src/stm32746g_discovery.o
                                      0xfa7e8 (size before relaxing)
 .debug_str     0x0000000000109761      0x831 Core/Src/stm32746g_discovery_lcd.o
                                      0xfb30e (size before relaxing)
 .debug_str     0x0000000000109f92      0x1a9 Core/Src/stm32746g_discovery_sdram.o
                                      0xf94ba (size before relaxing)
 .debug_str     0x000000000010a13b      0x160 Core/Src/stm32746g_discovery_ts.o
                                      0xfb2db (size before relaxing)
 .debug_str     0x000000000010a29b      0x1cc Core/Src/stm32f7xx_hal_msp.o
                                      0xfae76 (size before relaxing)
 .debug_str     0x000000000010a467       0x98 Core/Src/stm32f7xx_hal_timebase_tim.o
                                      0xf8f0a (size before relaxing)
 .debug_str     0x000000000010a4ff       0xb8 Core/Src/stm32f7xx_it.o
                                      0xf9cb9 (size before relaxing)
 .debug_str     0x000000000010a5b7      0x369 Core/Src/sysmem.o
                                       0x5f5f (size before relaxing)
 .debug_str     0x000000000010a920      0x188 Core/Src/system_stm32f7xx.o
                                      0xf8566 (size before relaxing)
 .debug_str     0x000000000010aaa8       0x36 Core/Startup/startup_stm32f746nghx.o
                                         0x6c (size before relaxing)
 .debug_str     0x000000000010aade      0x341 Drivers/STM32F7xx_HAL_Driver/Src/stm32f7xx_hal.o
                                      0xf8e18 (size before relaxing)
 .debug_str     0x000000000010ae1f      0x281 Drivers/STM32F7xx_HAL_Driver/Src/stm32f7xx_hal_adc.o
                                      0xf8a09 (size before relaxing)
 .debug_str     0x000000000010b0a0      0x375 Drivers/STM32F7xx_HAL_Driver/Src/stm32f7xx_hal_cortex.o
                                      0xf8ebf (size before relaxing)
 .debug_str     0x000000000010b415      0x1bd Drivers/STM32F7xx_HAL_Driver/Src/stm32f7xx_hal_dac.o
                                      0xf88a4 (size before relaxing)
 .debug_str     0x000000000010b5d2      0x164 Drivers/STM32F7xx_HAL_Driver/Src/stm32f7xx_hal_dac_ex.o
                                      0xf87d4 (size before relaxing)
 .debug_str     0x000000000010b736      0x323 Drivers/STM32F7xx_HAL_Driver/Src/stm32f7xx_hal_dma.o
                                      0xf88a0 (size before relaxing)
 .debug_str     0x000000000010ba59      0x360 Drivers/STM32F7xx_HAL_Driver/Src/stm32f7xx_hal_dma2d.o
                                      0xf8a51 (size before relaxing)
 .debug_str     0x000000000010bdb9      0x244 Drivers/STM32F7xx_HAL_Driver/Src/stm32f7xx_hal_gpio.o
                                      0xf873c (size before relaxing)
 .debug_str     0x000000000010bffd      0xcd4 Drivers/STM32F7xx_HAL_Driver/Src/stm32f7xx_hal_i2c.o
                                      0xf9654 (size before relaxing)
 .debug_str     0x000000000010ccd1       0x3b Drivers/STM32F7xx_HAL_Driver/Src/stm32f7xx_hal_i2c_ex.o
                                      0xf8890 (size before relaxing)
 .debug_str     0x000000000010cd0c      0x406 Drivers/STM32F7xx_HAL_Driver/Src/stm32f7xx_hal_ltdc.o
                                      0xf8ad4 (size before relaxing)
 .debug_str     0x000000000010d112      0x2c5 Drivers/STM32F7xx_HAL_Driver/Src/stm32f7xx_hal_pwr.o
                                      0xf881e (size before relaxing)
 .debug_str     0x000000000010d3d7      0x1bd Drivers/STM32F7xx_HAL_Driver/Src/stm32f7xx_hal_pwr_ex.o
                                      0xf87e0 (size before relaxing)
 .debug_str     0x000000000010d594      0x263 Drivers/STM32F7xx_HAL_Driver/Src/stm32f7xx_hal_rcc.o
                                      0xf8881 (size before relaxing)
 .debug_str     0x000000000010d7f7      0x159 Drivers/STM32F7xx_HAL_Driver/Src/stm32f7xx_hal_rcc_ex.o
                                      0xf880b (size before relaxing)
 .debug_str     0x000000000010d950      0x1ac Drivers/STM32F7xx_HAL_Driver/Src/stm32f7xx_hal_rtc.o
                                      0xf887a (size before relaxing)
 .debug_str     0x000000000010dafc      0x5b2 Drivers/STM32F7xx_HAL_Driver/Src/stm32f7xx_hal_rtc_ex.o
                                      0xf8c07 (size before relaxing)
 .debug_str     0x000000000010e0ae      0x254 Drivers/STM32F7xx_HAL_Driver/Src/stm32f7xx_hal_sdram.o
                                      0xf8a74 (size before relaxing)
 .debug_str     0x000000000010e302      0xca6 Drivers/STM32F7xx_HAL_Driver/Src/stm32f7xx_hal_tim.o
                                      0xf95f2 (size before relaxing)
 .debug_str     0x000000000010efa8      0x504 Drivers/STM32F7xx_HAL_Driver/Src/stm32f7xx_hal_tim_ex.o
                                      0xf8e45 (size before relaxing)
 .debug_str     0x000000000010f4ac      0x7c3 Drivers/STM32F7xx_HAL_Driver/Src/stm32f7xx_hal_uart.o
                                      0xf90c5 (size before relaxing)
 .debug_str     0x000000000010fc6f      0x477 Drivers/STM32F7xx_HAL_Driver/Src/stm32f7xx_ll_fmc.o
                                      0xf89c4 (size before relaxing)
 .debug_str     0x00000000001100e6      0x7c4 Middlewares/Third_Party/FreeRTOS/Source/CMSIS_RTOS/cmsis_os.o
                                       0xe2c3 (size before relaxing)
 .debug_str     0x00000000001108aa      0x219 Middlewares/Third_Party/FreeRTOS/Source/list.o
                                       0xa766 (size before relaxing)
 .debug_str     0x0000000000110ac3      0x892 Middlewares/Third_Party/FreeRTOS/Source/queue.o
                                       0xbfef (size before relaxing)
 .debug_str     0x0000000000111355     0x136f Middlewares/Third_Party/FreeRTOS/Source/tasks.o
                                       0xcc24 (size before relaxing)
 .debug_str     0x00000000001126c4      0x782 Middlewares/Third_Party/FreeRTOS/Source/portable/GCC/ARM_CM7/r0p1/port.o
                                       0x84ae (size before relaxing)
 .debug_str     0x0000000000112e46      0x25a Middlewares/Third_Party/FreeRTOS/Source/portable/MemMang/heap_4.o
                                       0xaf76 (size before relaxing)

.comment        0x0000000000000000       0x7b
 .comment       0x0000000000000000       0x7b Core/Src/freertos.o
                                         0x7c (size before relaxing)
 .comment       0x000000000000007b       0x7c Core/Src/ft5336.o
 .comment       0x000000000000007b       0x7c Core/Src/main.o
 .comment       0x000000000000007b       0x7c Core/Src/stm32746g_discovery.o
 .comment       0x000000000000007b       0x7c Core/Src/stm32746g_discovery_lcd.o
 .comment       0x000000000000007b       0x7c Core/Src/stm32746g_discovery_sdram.o
 .comment       0x000000000000007b       0x7c Core/Src/stm32746g_discovery_ts.o
 .comment       0x000000000000007b       0x7c Core/Src/stm32f7xx_hal_msp.o
 .comment       0x000000000000007b       0x7c Core/Src/stm32f7xx_hal_timebase_tim.o
 .comment       0x000000000000007b       0x7c Core/Src/stm32f7xx_it.o
 .comment       0x000000000000007b       0x7c Core/Src/sysmem.o
 .comment       0x000000000000007b       0x7c Core/Src/system_stm32f7xx.o
 .comment       0x000000000000007b       0x7c Drivers/STM32F7xx_HAL_Driver/Src/stm32f7xx_hal.o
 .comment       0x000000000000007b       0x7c Drivers/STM32F7xx_HAL_Driver/Src/stm32f7xx_hal_adc.o
 .comment       0x000000000000007b       0x7c Drivers/STM32F7xx_HAL_Driver/Src/stm32f7xx_hal_cortex.o
 .comment       0x000000000000007b       0x7c Drivers/STM32F7xx_HAL_Driver/Src/stm32f7xx_hal_dac.o
 .comment       0x000000000000007b       0x7c Drivers/STM32F7xx_HAL_Driver/Src/stm32f7xx_hal_dac_ex.o
 .comment       0x000000000000007b       0x7c Drivers/STM32F7xx_HAL_Driver/Src/stm32f7xx_hal_dma.o
 .comment       0x000000000000007b       0x7c Drivers/STM32F7xx_HAL_Driver/Src/stm32f7xx_hal_dma2d.o
 .comment       0x000000000000007b       0x7c Drivers/STM32F7xx_HAL_Driver/Src/stm32f7xx_hal_gpio.o
 .comment       0x000000000000007b       0x7c Drivers/STM32F7xx_HAL_Driver/Src/stm32f7xx_hal_i2c.o
 .comment       0x000000000000007b       0x7c Drivers/STM32F7xx_HAL_Driver/Src/stm32f7xx_hal_i2c_ex.o
 .comment       0x000000000000007b       0x7c Drivers/STM32F7xx_HAL_Driver/Src/stm32f7xx_hal_ltdc.o
 .comment       0x000000000000007b       0x7c Drivers/STM32F7xx_HAL_Driver/Src/stm32f7xx_hal_pwr.o
 .comment       0x000000000000007b       0x7c Drivers/STM32F7xx_HAL_Driver/Src/stm32f7xx_hal_pwr_ex.o
 .comment       0x000000000000007b       0x7c Drivers/STM32F7xx_HAL_Driver/Src/stm32f7xx_hal_rcc.o
 .comment       0x000000000000007b       0x7c Drivers/STM32F7xx_HAL_Driver/Src/stm32f7xx_hal_rcc_ex.o
 .comment       0x000000000000007b       0x7c Drivers/STM32F7xx_HAL_Driver/Src/stm32f7xx_hal_rtc.o
 .comment       0x000000000000007b       0x7c Drivers/STM32F7xx_HAL_Driver/Src/stm32f7xx_hal_rtc_ex.o
 .comment       0x000000000000007b       0x7c Drivers/STM32F7xx_HAL_Driver/Src/stm32f7xx_hal_sdram.o
 .comment       0x000000000000007b       0x7c Drivers/STM32F7xx_HAL_Driver/Src/stm32f7xx_hal_tim.o
 .comment       0x000000000000007b       0x7c Drivers/STM32F7xx_HAL_Driver/Src/stm32f7xx_hal_tim_ex.o
 .comment       0x000000000000007b       0x7c Drivers/STM32F7xx_HAL_Driver/Src/stm32f7xx_hal_uart.o
 .comment       0x000000000000007b       0x7c Drivers/STM32F7xx_HAL_Driver/Src/stm32f7xx_ll_fmc.o
 .comment       0x000000000000007b       0x7c Middlewares/Third_Party/FreeRTOS/Source/CMSIS_RTOS/cmsis_os.o
 .comment       0x000000000000007b       0x7c Middlewares/Third_Party/FreeRTOS/Source/list.o
 .comment       0x000000000000007b       0x7c Middlewares/Third_Party/FreeRTOS/Source/queue.o
 .comment       0x000000000000007b       0x7c Middlewares/Third_Party/FreeRTOS/Source/tasks.o
 .comment       0x000000000000007b       0x7c Middlewares/Third_Party/FreeRTOS/Source/portable/GCC/ARM_CM7/r0p1/port.o
 .comment       0x000000000000007b       0x7c Middlewares/Third_Party/FreeRTOS/Source/portable/MemMang/heap_4.o

.debug_frame    0x0000000000000000     0x9be8
 .debug_frame   0x0000000000000000       0xa0 Core/Src/freertos.o
 .debug_frame   0x00000000000000a0      0x230 Core/Src/ft5336.o
 .debug_frame   0x00000000000002d0      0x398 Core/Src/main.o
 .debug_frame   0x0000000000000668      0x4b0 Core/Src/stm32746g_discovery.o
 .debug_frame   0x0000000000000b18      0x840 Core/Src/stm32746g_discovery_lcd.o
 .debug_frame   0x0000000000001358      0x168 Core/Src/stm32746g_discovery_sdram.o
 .debug_frame   0x00000000000014c0      0x124 Core/Src/stm32746g_discovery_ts.o
 .debug_frame   0x00000000000015e4      0x314 Core/Src/stm32f7xx_hal_msp.o
 .debug_frame   0x00000000000018f8       0x74 Core/Src/stm32f7xx_hal_timebase_tim.o
 .debug_frame   0x000000000000196c       0xfc Core/Src/stm32f7xx_it.o
 .debug_frame   0x0000000000001a68       0x34 Core/Src/sysmem.o
 .debug_frame   0x0000000000001a9c       0x58 Core/Src/system_stm32f7xx.o
 .debug_frame   0x0000000000001af4      0x3b4 Drivers/STM32F7xx_HAL_Driver/Src/stm32f7xx_hal.o
 .debug_frame   0x0000000000001ea8      0x3fc Drivers/STM32F7xx_HAL_Driver/Src/stm32f7xx_hal_adc.o
 .debug_frame   0x00000000000022a4      0x498 Drivers/STM32F7xx_HAL_Driver/Src/stm32f7xx_hal_cortex.o
 .debug_frame   0x000000000000273c      0x338 Drivers/STM32F7xx_HAL_Driver/Src/stm32f7xx_hal_dac.o
 .debug_frame   0x0000000000002a74      0x1bc Drivers/STM32F7xx_HAL_Driver/Src/stm32f7xx_hal_dac_ex.o
 .debug_frame   0x0000000000002c30      0x250 Drivers/STM32F7xx_HAL_Driver/Src/stm32f7xx_hal_dma.o
 .debug_frame   0x0000000000002e80      0x490 Drivers/STM32F7xx_HAL_Driver/Src/stm32f7xx_hal_dma2d.o
 .debug_frame   0x0000000000003310      0x14c Drivers/STM32F7xx_HAL_Driver/Src/stm32f7xx_hal_gpio.o
 .debug_frame   0x000000000000345c      0xbbc Drivers/STM32F7xx_HAL_Driver/Src/stm32f7xx_hal_i2c.o
 .debug_frame   0x0000000000004018       0x60 Drivers/STM32F7xx_HAL_Driver/Src/stm32f7xx_hal_i2c_ex.o
 .debug_frame   0x0000000000004078      0x61c Drivers/STM32F7xx_HAL_Driver/Src/stm32f7xx_hal_ltdc.o
 .debug_frame   0x0000000000004694      0x254 Drivers/STM32F7xx_HAL_Driver/Src/stm32f7xx_hal_pwr.o
 .debug_frame   0x00000000000048e8      0x1c8 Drivers/STM32F7xx_HAL_Driver/Src/stm32f7xx_hal_pwr_ex.o
 .debug_frame   0x0000000000004ab0      0x1f4 Drivers/STM32F7xx_HAL_Driver/Src/stm32f7xx_hal_rcc.o
 .debug_frame   0x0000000000004ca4      0x118 Drivers/STM32F7xx_HAL_Driver/Src/stm32f7xx_hal_rcc_ex.o
 .debug_frame   0x0000000000004dbc      0x308 Drivers/STM32F7xx_HAL_Driver/Src/stm32f7xx_hal_rtc.o
 .debug_frame   0x00000000000050c4      0x59c Drivers/STM32F7xx_HAL_Driver/Src/stm32f7xx_hal_rtc_ex.o
 .debug_frame   0x0000000000005660      0x37c Drivers/STM32F7xx_HAL_Driver/Src/stm32f7xx_hal_sdram.o
 .debug_frame   0x00000000000059dc     0x1144 Drivers/STM32F7xx_HAL_Driver/Src/stm32f7xx_hal_tim.o
 .debug_frame   0x0000000000006b20      0x610 Drivers/STM32F7xx_HAL_Driver/Src/stm32f7xx_hal_tim_ex.o
 .debug_frame   0x0000000000007130      0x96c Drivers/STM32F7xx_HAL_Driver/Src/stm32f7xx_hal_uart.o
 .debug_frame   0x0000000000007a9c      0x37c Drivers/STM32F7xx_HAL_Driver/Src/stm32f7xx_ll_fmc.o
 .debug_frame   0x0000000000007e18      0x7fc Middlewares/Third_Party/FreeRTOS/Source/CMSIS_RTOS/cmsis_os.o
 .debug_frame   0x0000000000008614       0xd8 Middlewares/Third_Party/FreeRTOS/Source/list.o
 .debug_frame   0x00000000000086ec      0x504 Middlewares/Third_Party/FreeRTOS/Source/queue.o
 .debug_frame   0x0000000000008bf0      0x7e8 Middlewares/Third_Party/FreeRTOS/Source/tasks.o
 .debug_frame   0x00000000000093d8      0x1a8 Middlewares/Third_Party/FreeRTOS/Source/portable/GCC/ARM_CM7/r0p1/port.o
 .debug_frame   0x0000000000009580      0x108 Middlewares/Third_Party/FreeRTOS/Source/portable/MemMang/heap_4.o
 .debug_frame   0x0000000000009688       0x20 d:/cours/eea-a2s1/language_c/info_indus_s2/stm32cubeide_1.5.1/stm32cubeide/plugins/com.st.stm32cube.ide.mcu.externaltools.gnu-tools-for-stm32.7-2018-q2-update.win32_1.5.0.202011040924/tools/bin/../lib/gcc/arm-none-eabi/7.3.1/../../../../arm-none-eabi/lib/thumb/v7e-m/fpv4-sp/hard\libc_nano.a(lib_a-errno.o)
 .debug_frame   0x00000000000096a8       0x2c d:/cours/eea-a2s1/language_c/info_indus_s2/stm32cubeide_1.5.1/stm32cubeide/plugins/com.st.stm32cube.ide.mcu.externaltools.gnu-tools-for-stm32.7-2018-q2-update.win32_1.5.0.202011040924/tools/bin/../lib/gcc/arm-none-eabi/7.3.1/../../../../arm-none-eabi/lib/thumb/v7e-m/fpv4-sp/hard\libc_nano.a(lib_a-init.o)
 .debug_frame   0x00000000000096d4       0x28 d:/cours/eea-a2s1/language_c/info_indus_s2/stm32cubeide_1.5.1/stm32cubeide/plugins/com.st.stm32cube.ide.mcu.externaltools.gnu-tools-for-stm32.7-2018-q2-update.win32_1.5.0.202011040924/tools/bin/../lib/gcc/arm-none-eabi/7.3.1/../../../../arm-none-eabi/lib/thumb/v7e-m/fpv4-sp/hard\libc_nano.a(lib_a-memcpy-stub.o)
 .debug_frame   0x00000000000096fc       0x20 d:/cours/eea-a2s1/language_c/info_indus_s2/stm32cubeide_1.5.1/stm32cubeide/plugins/com.st.stm32cube.ide.mcu.externaltools.gnu-tools-for-stm32.7-2018-q2-update.win32_1.5.0.202011040924/tools/bin/../lib/gcc/arm-none-eabi/7.3.1/../../../../arm-none-eabi/lib/thumb/v7e-m/fpv4-sp/hard\libc_nano.a(lib_a-memset.o)
 .debug_frame   0x000000000000971c       0x6c d:/cours/eea-a2s1/language_c/info_indus_s2/stm32cubeide_1.5.1/stm32cubeide/plugins/com.st.stm32cube.ide.mcu.externaltools.gnu-tools-for-stm32.7-2018-q2-update.win32_1.5.0.202011040924/tools/bin/../lib/gcc/arm-none-eabi/7.3.1/../../../../arm-none-eabi/lib/thumb/v7e-m/fpv4-sp/hard\libc_nano.a(lib_a-sprintf.o)
 .debug_frame   0x0000000000009788       0x90 d:/cours/eea-a2s1/language_c/info_indus_s2/stm32cubeide_1.5.1/stm32cubeide/plugins/com.st.stm32cube.ide.mcu.externaltools.gnu-tools-for-stm32.7-2018-q2-update.win32_1.5.0.202011040924/tools/bin/../lib/gcc/arm-none-eabi/7.3.1/../../../../arm-none-eabi/lib/thumb/v7e-m/fpv4-sp/hard\libc_nano.a(lib_a-nano-svfprintf.o)
 .debug_frame   0x0000000000009818       0x60 d:/cours/eea-a2s1/language_c/info_indus_s2/stm32cubeide_1.5.1/stm32cubeide/plugins/com.st.stm32cube.ide.mcu.externaltools.gnu-tools-for-stm32.7-2018-q2-update.win32_1.5.0.202011040924/tools/bin/../lib/gcc/arm-none-eabi/7.3.1/../../../../arm-none-eabi/lib/thumb/v7e-m/fpv4-sp/hard\libc_nano.a(lib_a-nano-vfprintf_i.o)
 .debug_frame   0x0000000000009878       0x28 d:/cours/eea-a2s1/language_c/info_indus_s2/stm32cubeide_1.5.1/stm32cubeide/plugins/com.st.stm32cube.ide.mcu.externaltools.gnu-tools-for-stm32.7-2018-q2-update.win32_1.5.0.202011040924/tools/bin/../lib/gcc/arm-none-eabi/7.3.1/../../../../arm-none-eabi/lib/thumb/v7e-m/fpv4-sp/hard\libc_nano.a(lib_a-memmove.o)
 .debug_frame   0x00000000000098a0       0x38 d:/cours/eea-a2s1/language_c/info_indus_s2/stm32cubeide_1.5.1/stm32cubeide/plugins/com.st.stm32cube.ide.mcu.externaltools.gnu-tools-for-stm32.7-2018-q2-update.win32_1.5.0.202011040924/tools/bin/../lib/gcc/arm-none-eabi/7.3.1/../../../../arm-none-eabi/lib/thumb/v7e-m/fpv4-sp/hard\libc_nano.a(lib_a-nano-freer.o)
 .debug_frame   0x00000000000098d8       0x2c d:/cours/eea-a2s1/language_c/info_indus_s2/stm32cubeide_1.5.1/stm32cubeide/plugins/com.st.stm32cube.ide.mcu.externaltools.gnu-tools-for-stm32.7-2018-q2-update.win32_1.5.0.202011040924/tools/bin/../lib/gcc/arm-none-eabi/7.3.1/../../../../arm-none-eabi/lib/thumb/v7e-m/fpv4-sp/hard\libc_nano.a(lib_a-nano-mallocr.o)
 .debug_frame   0x0000000000009904       0x3c d:/cours/eea-a2s1/language_c/info_indus_s2/stm32cubeide_1.5.1/stm32cubeide/plugins/com.st.stm32cube.ide.mcu.externaltools.gnu-tools-for-stm32.7-2018-q2-update.win32_1.5.0.202011040924/tools/bin/../lib/gcc/arm-none-eabi/7.3.1/../../../../arm-none-eabi/lib/thumb/v7e-m/fpv4-sp/hard\libc_nano.a(lib_a-nano-reallocr.o)
 .debug_frame   0x0000000000009940       0x2c d:/cours/eea-a2s1/language_c/info_indus_s2/stm32cubeide_1.5.1/stm32cubeide/plugins/com.st.stm32cube.ide.mcu.externaltools.gnu-tools-for-stm32.7-2018-q2-update.win32_1.5.0.202011040924/tools/bin/../lib/gcc/arm-none-eabi/7.3.1/../../../../arm-none-eabi/lib/thumb/v7e-m/fpv4-sp/hard\libc_nano.a(lib_a-sbrkr.o)
 .debug_frame   0x000000000000996c       0x30 d:/cours/eea-a2s1/language_c/info_indus_s2/stm32cubeide_1.5.1/stm32cubeide/plugins/com.st.stm32cube.ide.mcu.externaltools.gnu-tools-for-stm32.7-2018-q2-update.win32_1.5.0.202011040924/tools/bin/../lib/gcc/arm-none-eabi/7.3.1/../../../../arm-none-eabi/lib/thumb/v7e-m/fpv4-sp/hard\libc_nano.a(lib_a-mlock.o)
 .debug_frame   0x000000000000999c       0x20 d:/cours/eea-a2s1/language_c/info_indus_s2/stm32cubeide_1.5.1/stm32cubeide/plugins/com.st.stm32cube.ide.mcu.externaltools.gnu-tools-for-stm32.7-2018-q2-update.win32_1.5.0.202011040924/tools/bin/../lib/gcc/arm-none-eabi/7.3.1/../../../../arm-none-eabi/lib/thumb/v7e-m/fpv4-sp/hard\libc_nano.a(lib_a-nano-msizer.o)
 .debug_frame   0x00000000000099bc       0x5c d:/cours/eea-a2s1/language_c/info_indus_s2/stm32cubeide_1.5.1/stm32cubeide/plugins/com.st.stm32cube.ide.mcu.externaltools.gnu-tools-for-stm32.7-2018-q2-update.win32_1.5.0.202011040924/tools/bin/../lib/gcc/arm-none-eabi/7.3.1/../../../../arm-none-eabi/lib/thumb/v7e-m/fpv4-sp/hard\libc_nano.a(lib_a-reent.o)
 .debug_frame   0x0000000000009a18       0xac d:/cours/eea-a2s1/language_c/info_indus_s2/stm32cubeide_1.5.1/stm32cubeide/plugins/com.st.stm32cube.ide.mcu.externaltools.gnu-tools-for-stm32.7-2018-q2-update.win32_1.5.0.202011040924/tools/bin/../lib/gcc/arm-none-eabi/7.3.1/thumb/v7e-m/fpv4-sp/hard\libgcc.a(_arm_addsubdf3.o)
 .debug_frame   0x0000000000009ac4       0xc4 d:/cours/eea-a2s1/language_c/info_indus_s2/stm32cubeide_1.5.1/stm32cubeide/plugins/com.st.stm32cube.ide.mcu.externaltools.gnu-tools-for-stm32.7-2018-q2-update.win32_1.5.0.202011040924/tools/bin/../lib/gcc/arm-none-eabi/7.3.1/thumb/v7e-m/fpv4-sp/hard\libgcc.a(_arm_cmpdf2.o)
 .debug_frame   0x0000000000009b88       0x2c d:/cours/eea-a2s1/language_c/info_indus_s2/stm32cubeide_1.5.1/stm32cubeide/plugins/com.st.stm32cube.ide.mcu.externaltools.gnu-tools-for-stm32.7-2018-q2-update.win32_1.5.0.202011040924/tools/bin/../lib/gcc/arm-none-eabi/7.3.1/thumb/v7e-m/fpv4-sp/hard\libgcc.a(_aeabi_uldivmod.o)
 .debug_frame   0x0000000000009bb4       0x34 d:/cours/eea-a2s1/language_c/info_indus_s2/stm32cubeide_1.5.1/stm32cubeide/plugins/com.st.stm32cube.ide.mcu.externaltools.gnu-tools-for-stm32.7-2018-q2-update.win32_1.5.0.202011040924/tools/bin/../lib/gcc/arm-none-eabi/7.3.1/thumb/v7e-m/fpv4-sp/hard\libgcc.a(_udivmoddi4.o)
